{
	"contracts/Perpustakaan.sol": {
		"Perpustakaan": {
			"abi": [
				{
					"inputs": [],
					"stateMutability": "nonpayable",
					"type": "constructor"
				},
				{
					"anonymous": false,
					"inputs": [
						{
							"indexed": false,
							"internalType": "uint256",
							"name": "ISBN",
							"type": "uint256"
						},
						{
							"indexed": false,
							"internalType": "string",
							"name": "judul",
							"type": "string"
						},
						{
							"indexed": false,
							"internalType": "uint256",
							"name": "tahun",
							"type": "uint256"
						},
						{
							"indexed": false,
							"internalType": "string",
							"name": "pengarang",
							"type": "string"
						}
					],
					"name": "BukuDihapus",
					"type": "event"
				},
				{
					"anonymous": false,
					"inputs": [
						{
							"indexed": false,
							"internalType": "uint256",
							"name": "ISBN",
							"type": "uint256"
						},
						{
							"indexed": false,
							"internalType": "string",
							"name": "judul",
							"type": "string"
						},
						{
							"indexed": false,
							"internalType": "uint256",
							"name": "tahun",
							"type": "uint256"
						},
						{
							"indexed": false,
							"internalType": "string",
							"name": "pengarang",
							"type": "string"
						}
					],
					"name": "BukuDiperbarui",
					"type": "event"
				},
				{
					"anonymous": false,
					"inputs": [
						{
							"indexed": false,
							"internalType": "uint256",
							"name": "ISBN",
							"type": "uint256"
						},
						{
							"indexed": false,
							"internalType": "string",
							"name": "judul",
							"type": "string"
						},
						{
							"indexed": false,
							"internalType": "uint256",
							"name": "tahun",
							"type": "uint256"
						},
						{
							"indexed": false,
							"internalType": "string",
							"name": "pengarang",
							"type": "string"
						}
					],
					"name": "BukuDitambahkan",
					"type": "event"
				},
				{
					"inputs": [],
					"name": "admin",
					"outputs": [
						{
							"internalType": "address",
							"name": "",
							"type": "address"
						}
					],
					"stateMutability": "view",
					"type": "function"
				},
				{
					"inputs": [
						{
							"internalType": "uint256",
							"name": "",
							"type": "uint256"
						}
					],
					"name": "books",
					"outputs": [
						{
							"internalType": "uint256",
							"name": "ISBN",
							"type": "uint256"
						},
						{
							"internalType": "string",
							"name": "judul",
							"type": "string"
						},
						{
							"internalType": "uint256",
							"name": "tahun",
							"type": "uint256"
						},
						{
							"internalType": "string",
							"name": "pengarang",
							"type": "string"
						}
					],
					"stateMutability": "view",
					"type": "function"
				},
				{
					"inputs": [
						{
							"internalType": "uint256",
							"name": "_ISBN",
							"type": "uint256"
						}
					],
					"name": "dapatkanBukuDariISBN",
					"outputs": [
						{
							"components": [
								{
									"internalType": "uint256",
									"name": "ISBN",
									"type": "uint256"
								},
								{
									"internalType": "string",
									"name": "judul",
									"type": "string"
								},
								{
									"internalType": "uint256",
									"name": "tahun",
									"type": "uint256"
								},
								{
									"internalType": "string",
									"name": "pengarang",
									"type": "string"
								}
							],
							"internalType": "struct Perpustakaan.Buku",
							"name": "",
							"type": "tuple"
						}
					],
					"stateMutability": "view",
					"type": "function"
				},
				{
					"inputs": [
						{
							"internalType": "uint256",
							"name": "_ISBN",
							"type": "uint256"
						}
					],
					"name": "hapusBuku",
					"outputs": [],
					"stateMutability": "nonpayable",
					"type": "function"
				},
				{
					"inputs": [
						{
							"internalType": "string",
							"name": "_judul",
							"type": "string"
						},
						{
							"internalType": "uint256",
							"name": "_tahun",
							"type": "uint256"
						},
						{
							"internalType": "string",
							"name": "_pengarang",
							"type": "string"
						}
					],
					"name": "tambahBuku",
					"outputs": [],
					"stateMutability": "nonpayable",
					"type": "function"
				},
				{
					"inputs": [
						{
							"internalType": "uint256",
							"name": "_ISBN",
							"type": "uint256"
						},
						{
							"internalType": "string",
							"name": "_judul",
							"type": "string"
						},
						{
							"internalType": "uint256",
							"name": "_tahun",
							"type": "uint256"
						},
						{
							"internalType": "string",
							"name": "_pengarang",
							"type": "string"
						}
					],
					"name": "updateBuku",
					"outputs": [],
					"stateMutability": "nonpayable",
					"type": "function"
				}
			],
			"devdoc": {
				"kind": "dev",
				"methods": {},
				"version": 1
			},
			"evm": {
				"assembly": "    /* \"contracts/Perpustakaan.sol\":68:2335  contract Perpustakaan {... */\n  mstore(0x40, 0x80)\n    /* \"contracts/Perpustakaan.sol\":317:318  0 */\n  0x00\n    /* \"contracts/Perpustakaan.sol\":293:318  uint256 private nonce = 0 */\n  0x02\n  sstore\n    /* \"contracts/Perpustakaan.sol\":327:378  constructor() {... */\n  callvalue\n  dup1\n  iszero\n  tag_1\n  jumpi\n  0x00\n  dup1\n  revert\ntag_1:\n  pop\n    /* \"contracts/Perpustakaan.sol\":360:370  msg.sender */\n  caller\n    /* \"contracts/Perpustakaan.sol\":352:357  admin */\n  0x01\n  0x00\n    /* \"contracts/Perpustakaan.sol\":352:370  admin = msg.sender */\n  0x0100\n  exp\n  dup2\n  sload\n  dup2\n  0xffffffffffffffffffffffffffffffffffffffff\n  mul\n  not\n  and\n  swap1\n  dup4\n  0xffffffffffffffffffffffffffffffffffffffff\n  and\n  mul\n  or\n  swap1\n  sstore\n  pop\n    /* \"contracts/Perpustakaan.sol\":68:2335  contract Perpustakaan {... */\n  dataSize(sub_0)\n  dup1\n  dataOffset(sub_0)\n  0x00\n  codecopy\n  0x00\n  return\nstop\n\nsub_0: assembly {\n        /* \"contracts/Perpustakaan.sol\":68:2335  contract Perpustakaan {... */\n      mstore(0x40, 0x80)\n      callvalue\n      dup1\n      iszero\n      tag_1\n      jumpi\n      0x00\n      dup1\n      revert\n    tag_1:\n      pop\n      jumpi(tag_2, lt(calldatasize, 0x04))\n      shr(0xe0, calldataload(0x00))\n      dup1\n      0x02a97d7f\n      eq\n      tag_3\n      jumpi\n      dup1\n      0x2e28a7ca\n      eq\n      tag_4\n      jumpi\n      dup1\n      0x48833856\n      eq\n      tag_5\n      jumpi\n      dup1\n      0x68744046\n      eq\n      tag_6\n      jumpi\n      dup1\n      0xebe47460\n      eq\n      tag_7\n      jumpi\n      dup1\n      0xf851a440\n      eq\n      tag_8\n      jumpi\n    tag_2:\n      0x00\n      dup1\n      revert\n        /* \"contracts/Perpustakaan.sol\":1787:1970  function dapatkanBukuDariISBN(uint256 _ISBN) public view returns (Buku memory) {... */\n    tag_3:\n      tag_9\n      0x04\n      dup1\n      calldatasize\n      sub\n      dup2\n      add\n      swap1\n      tag_10\n      swap2\n      swap1\n      tag_11\n      jump\t// in\n    tag_10:\n      tag_12\n      jump\t// in\n    tag_9:\n      mload(0x40)\n      tag_13\n      swap2\n      swap1\n      tag_14\n      jump\t// in\n    tag_13:\n      mload(0x40)\n      dup1\n      swap2\n      sub\n      swap1\n      return\n        /* \"contracts/Perpustakaan.sol\":1468:1779  function hapusBuku(uint256 _ISBN) public hanyaAdmin {... */\n    tag_4:\n      tag_15\n      0x04\n      dup1\n      calldatasize\n      sub\n      dup2\n      add\n      swap1\n      tag_16\n      swap2\n      swap1\n      tag_11\n      jump\t// in\n    tag_16:\n      tag_17\n      jump\t// in\n    tag_15:\n      stop\n        /* \"contracts/Perpustakaan.sol\":788:1074  function tambahBuku(string memory _judul, uint256 _tahun, string memory _pengarang) public hanyaAdmin {... */\n    tag_5:\n      tag_18\n      0x04\n      dup1\n      calldatasize\n      sub\n      dup2\n      add\n      swap1\n      tag_19\n      swap2\n      swap1\n      tag_20\n      jump\t// in\n    tag_19:\n      tag_21\n      jump\t// in\n    tag_18:\n      stop\n        /* \"contracts/Perpustakaan.sol\":222:259  mapping(uint256 => Buku) public books */\n    tag_6:\n      tag_22\n      0x04\n      dup1\n      calldatasize\n      sub\n      dup2\n      add\n      swap1\n      tag_23\n      swap2\n      swap1\n      tag_11\n      jump\t// in\n    tag_23:\n      tag_24\n      jump\t// in\n    tag_22:\n      mload(0x40)\n      tag_25\n      swap5\n      swap4\n      swap3\n      swap2\n      swap1\n      tag_26\n      jump\t// in\n    tag_25:\n      mload(0x40)\n      dup1\n      swap2\n      sub\n      swap1\n      return\n        /* \"contracts/Perpustakaan.sol\":1082:1460  function updateBuku(uint256 _ISBN, string memory _judul, uint256 _tahun, string memory _pengarang) public hanyaAdmin {... */\n    tag_7:\n      tag_27\n      0x04\n      dup1\n      calldatasize\n      sub\n      dup2\n      add\n      swap1\n      tag_28\n      swap2\n      swap1\n      tag_29\n      jump\t// in\n    tag_28:\n      tag_30\n      jump\t// in\n    tag_27:\n      stop\n        /* \"contracts/Perpustakaan.sol\":266:286  address public admin */\n    tag_8:\n      tag_31\n      tag_32\n      jump\t// in\n    tag_31:\n      mload(0x40)\n      tag_33\n      swap2\n      swap1\n      tag_34\n      jump\t// in\n    tag_33:\n      mload(0x40)\n      dup1\n      swap2\n      sub\n      swap1\n      return\n        /* \"contracts/Perpustakaan.sol\":1787:1970  function dapatkanBukuDariISBN(uint256 _ISBN) public view returns (Buku memory) {... */\n    tag_12:\n        /* \"contracts/Perpustakaan.sol\":1853:1864  Buku memory */\n      tag_35\n      tag_36\n      jump\t// in\n    tag_35:\n        /* \"contracts/Perpustakaan.sol\":1906:1907  0 */\n      0x00\n        /* \"contracts/Perpustakaan.sol\":1885:1890  books */\n      dup1\n        /* \"contracts/Perpustakaan.sol\":1885:1897  books[_ISBN] */\n      0x00\n        /* \"contracts/Perpustakaan.sol\":1891:1896  _ISBN */\n      dup5\n        /* \"contracts/Perpustakaan.sol\":1885:1897  books[_ISBN] */\n      dup2\n      mstore\n      0x20\n      add\n      swap1\n      dup2\n      mstore\n      0x20\n      add\n      0x00\n      keccak256\n        /* \"contracts/Perpustakaan.sol\":1885:1902  books[_ISBN].ISBN */\n      0x00\n      add\n      sload\n        /* \"contracts/Perpustakaan.sol\":1885:1907  books[_ISBN].ISBN != 0 */\n      sub\n        /* \"contracts/Perpustakaan.sol\":1877:1932  require(books[_ISBN].ISBN != 0, \"Buku tidak ditemukan\") */\n      tag_38\n      jumpi\n      mload(0x40)\n      0x08c379a000000000000000000000000000000000000000000000000000000000\n      dup2\n      mstore\n      0x04\n      add\n      tag_39\n      swap1\n      tag_40\n      jump\t// in\n    tag_39:\n      mload(0x40)\n      dup1\n      swap2\n      sub\n      swap1\n      revert\n    tag_38:\n        /* \"contracts/Perpustakaan.sol\":1950:1955  books */\n      0x00\n        /* \"contracts/Perpustakaan.sol\":1950:1962  books[_ISBN] */\n      dup1\n        /* \"contracts/Perpustakaan.sol\":1956:1961  _ISBN */\n      dup4\n        /* \"contracts/Perpustakaan.sol\":1950:1962  books[_ISBN] */\n      dup2\n      mstore\n      0x20\n      add\n      swap1\n      dup2\n      mstore\n      0x20\n      add\n      0x00\n      keccak256\n        /* \"contracts/Perpustakaan.sol\":1943:1962  return books[_ISBN] */\n      mload(0x40)\n      dup1\n      0x80\n      add\n      0x40\n      mstore\n      swap1\n      dup2\n      0x00\n      dup3\n      add\n      sload\n      dup2\n      mstore\n      0x20\n      add\n      0x01\n      dup3\n      add\n      dup1\n      sload\n      tag_41\n      swap1\n      tag_42\n      jump\t// in\n    tag_41:\n      dup1\n      0x1f\n      add\n      0x20\n      dup1\n      swap2\n      div\n      mul\n      0x20\n      add\n      mload(0x40)\n      swap1\n      dup2\n      add\n      0x40\n      mstore\n      dup1\n      swap3\n      swap2\n      swap1\n      dup2\n      dup2\n      mstore\n      0x20\n      add\n      dup3\n      dup1\n      sload\n      tag_43\n      swap1\n      tag_42\n      jump\t// in\n    tag_43:\n      dup1\n      iszero\n      tag_44\n      jumpi\n      dup1\n      0x1f\n      lt\n      tag_45\n      jumpi\n      0x0100\n      dup1\n      dup4\n      sload\n      div\n      mul\n      dup4\n      mstore\n      swap2\n      0x20\n      add\n      swap2\n      jump(tag_44)\n    tag_45:\n      dup3\n      add\n      swap2\n      swap1\n      0x00\n      mstore\n      keccak256(0x00, 0x20)\n      swap1\n    tag_46:\n      dup2\n      sload\n      dup2\n      mstore\n      swap1\n      0x01\n      add\n      swap1\n      0x20\n      add\n      dup1\n      dup4\n      gt\n      tag_46\n      jumpi\n      dup3\n      swap1\n      sub\n      0x1f\n      and\n      dup3\n      add\n      swap2\n    tag_44:\n      pop\n      pop\n      pop\n      pop\n      pop\n      dup2\n      mstore\n      0x20\n      add\n      0x02\n      dup3\n      add\n      sload\n      dup2\n      mstore\n      0x20\n      add\n      0x03\n      dup3\n      add\n      dup1\n      sload\n      tag_47\n      swap1\n      tag_42\n      jump\t// in\n    tag_47:\n      dup1\n      0x1f\n      add\n      0x20\n      dup1\n      swap2\n      div\n      mul\n      0x20\n      add\n      mload(0x40)\n      swap1\n      dup2\n      add\n      0x40\n      mstore\n      dup1\n      swap3\n      swap2\n      swap1\n      dup2\n      dup2\n      mstore\n      0x20\n      add\n      dup3\n      dup1\n      sload\n      tag_48\n      swap1\n      tag_42\n      jump\t// in\n    tag_48:\n      dup1\n      iszero\n      tag_49\n      jumpi\n      dup1\n      0x1f\n      lt\n      tag_50\n      jumpi\n      0x0100\n      dup1\n      dup4\n      sload\n      div\n      mul\n      dup4\n      mstore\n      swap2\n      0x20\n      add\n      swap2\n      jump(tag_49)\n    tag_50:\n      dup3\n      add\n      swap2\n      swap1\n      0x00\n      mstore\n      keccak256(0x00, 0x20)\n      swap1\n    tag_51:\n      dup2\n      sload\n      dup2\n      mstore\n      swap1\n      0x01\n      add\n      swap1\n      0x20\n      add\n      dup1\n      dup4\n      gt\n      tag_51\n      jumpi\n      dup3\n      swap1\n      sub\n      0x1f\n      and\n      dup3\n      add\n      swap2\n    tag_49:\n      pop\n      pop\n      pop\n      pop\n      pop\n      dup2\n      mstore\n      pop\n      pop\n      swap1\n      pop\n        /* \"contracts/Perpustakaan.sol\":1787:1970  function dapatkanBukuDariISBN(uint256 _ISBN) public view returns (Buku memory) {... */\n      swap2\n      swap1\n      pop\n      jump\t// out\n        /* \"contracts/Perpustakaan.sol\":1468:1779  function hapusBuku(uint256 _ISBN) public hanyaAdmin {... */\n    tag_17:\n        /* \"contracts/Perpustakaan.sol\":441:446  admin */\n      0x01\n      0x00\n      swap1\n      sload\n      swap1\n      0x0100\n      exp\n      swap1\n      div\n      0xffffffffffffffffffffffffffffffffffffffff\n      and\n        /* \"contracts/Perpustakaan.sol\":427:446  msg.sender == admin */\n      0xffffffffffffffffffffffffffffffffffffffff\n      and\n        /* \"contracts/Perpustakaan.sol\":427:437  msg.sender */\n      caller\n        /* \"contracts/Perpustakaan.sol\":427:446  msg.sender == admin */\n      0xffffffffffffffffffffffffffffffffffffffff\n      and\n      eq\n        /* \"contracts/Perpustakaan.sol\":419:496  require(msg.sender == admin, \"Hanya admin yang dapat melakukan tindakan ini\") */\n      tag_53\n      jumpi\n      mload(0x40)\n      0x08c379a000000000000000000000000000000000000000000000000000000000\n      dup2\n      mstore\n      0x04\n      add\n      tag_54\n      swap1\n      tag_55\n      jump\t// in\n    tag_54:\n      mload(0x40)\n      dup1\n      swap2\n      sub\n      swap1\n      revert\n    tag_53:\n        /* \"contracts/Perpustakaan.sol\":1560:1561  0 */\n      0x00\n        /* \"contracts/Perpustakaan.sol\":1539:1544  books */\n      dup1\n        /* \"contracts/Perpustakaan.sol\":1539:1551  books[_ISBN] */\n      0x00\n        /* \"contracts/Perpustakaan.sol\":1545:1550  _ISBN */\n      dup4\n        /* \"contracts/Perpustakaan.sol\":1539:1551  books[_ISBN] */\n      dup2\n      mstore\n      0x20\n      add\n      swap1\n      dup2\n      mstore\n      0x20\n      add\n      0x00\n      keccak256\n        /* \"contracts/Perpustakaan.sol\":1539:1556  books[_ISBN].ISBN */\n      0x00\n      add\n      sload\n        /* \"contracts/Perpustakaan.sol\":1539:1561  books[_ISBN].ISBN != 0 */\n      sub\n        /* \"contracts/Perpustakaan.sol\":1531:1586  require(books[_ISBN].ISBN != 0, \"Buku tidak ditemukan\") */\n      tag_57\n      jumpi\n      mload(0x40)\n      0x08c379a000000000000000000000000000000000000000000000000000000000\n      dup2\n      mstore\n      0x04\n      add\n      tag_58\n      swap1\n      tag_40\n      jump\t// in\n    tag_58:\n      mload(0x40)\n      dup1\n      swap2\n      sub\n      swap1\n      revert\n    tag_57:\n        /* \"contracts/Perpustakaan.sol\":1597:1620  Buku memory deletedBook */\n      0x00\n        /* \"contracts/Perpustakaan.sol\":1623:1628  books */\n      dup1\n        /* \"contracts/Perpustakaan.sol\":1623:1635  books[_ISBN] */\n      0x00\n        /* \"contracts/Perpustakaan.sol\":1629:1634  _ISBN */\n      dup4\n        /* \"contracts/Perpustakaan.sol\":1623:1635  books[_ISBN] */\n      dup2\n      mstore\n      0x20\n      add\n      swap1\n      dup2\n      mstore\n      0x20\n      add\n      0x00\n      keccak256\n        /* \"contracts/Perpustakaan.sol\":1597:1635  Buku memory deletedBook = books[_ISBN] */\n      mload(0x40)\n      dup1\n      0x80\n      add\n      0x40\n      mstore\n      swap1\n      dup2\n      0x00\n      dup3\n      add\n      sload\n      dup2\n      mstore\n      0x20\n      add\n      0x01\n      dup3\n      add\n      dup1\n      sload\n      tag_59\n      swap1\n      tag_42\n      jump\t// in\n    tag_59:\n      dup1\n      0x1f\n      add\n      0x20\n      dup1\n      swap2\n      div\n      mul\n      0x20\n      add\n      mload(0x40)\n      swap1\n      dup2\n      add\n      0x40\n      mstore\n      dup1\n      swap3\n      swap2\n      swap1\n      dup2\n      dup2\n      mstore\n      0x20\n      add\n      dup3\n      dup1\n      sload\n      tag_60\n      swap1\n      tag_42\n      jump\t// in\n    tag_60:\n      dup1\n      iszero\n      tag_61\n      jumpi\n      dup1\n      0x1f\n      lt\n      tag_62\n      jumpi\n      0x0100\n      dup1\n      dup4\n      sload\n      div\n      mul\n      dup4\n      mstore\n      swap2\n      0x20\n      add\n      swap2\n      jump(tag_61)\n    tag_62:\n      dup3\n      add\n      swap2\n      swap1\n      0x00\n      mstore\n      keccak256(0x00, 0x20)\n      swap1\n    tag_63:\n      dup2\n      sload\n      dup2\n      mstore\n      swap1\n      0x01\n      add\n      swap1\n      0x20\n      add\n      dup1\n      dup4\n      gt\n      tag_63\n      jumpi\n      dup3\n      swap1\n      sub\n      0x1f\n      and\n      dup3\n      add\n      swap2\n    tag_61:\n      pop\n      pop\n      pop\n      pop\n      pop\n      dup2\n      mstore\n      0x20\n      add\n      0x02\n      dup3\n      add\n      sload\n      dup2\n      mstore\n      0x20\n      add\n      0x03\n      dup3\n      add\n      dup1\n      sload\n      tag_64\n      swap1\n      tag_42\n      jump\t// in\n    tag_64:\n      dup1\n      0x1f\n      add\n      0x20\n      dup1\n      swap2\n      div\n      mul\n      0x20\n      add\n      mload(0x40)\n      swap1\n      dup2\n      add\n      0x40\n      mstore\n      dup1\n      swap3\n      swap2\n      swap1\n      dup2\n      dup2\n      mstore\n      0x20\n      add\n      dup3\n      dup1\n      sload\n      tag_65\n      swap1\n      tag_42\n      jump\t// in\n    tag_65:\n      dup1\n      iszero\n      tag_66\n      jumpi\n      dup1\n      0x1f\n      lt\n      tag_67\n      jumpi\n      0x0100\n      dup1\n      dup4\n      sload\n      div\n      mul\n      dup4\n      mstore\n      swap2\n      0x20\n      add\n      swap2\n      jump(tag_66)\n    tag_67:\n      dup3\n      add\n      swap2\n      swap1\n      0x00\n      mstore\n      keccak256(0x00, 0x20)\n      swap1\n    tag_68:\n      dup2\n      sload\n      dup2\n      mstore\n      swap1\n      0x01\n      add\n      swap1\n      0x20\n      add\n      dup1\n      dup4\n      gt\n      tag_68\n      jumpi\n      dup3\n      swap1\n      sub\n      0x1f\n      and\n      dup3\n      add\n      swap2\n    tag_66:\n      pop\n      pop\n      pop\n      pop\n      pop\n      dup2\n      mstore\n      pop\n      pop\n      swap1\n      pop\n        /* \"contracts/Perpustakaan.sol\":1653:1658  books */\n      0x00\n        /* \"contracts/Perpustakaan.sol\":1653:1665  books[_ISBN] */\n      dup1\n        /* \"contracts/Perpustakaan.sol\":1659:1664  _ISBN */\n      dup4\n        /* \"contracts/Perpustakaan.sol\":1653:1665  books[_ISBN] */\n      dup2\n      mstore\n      0x20\n      add\n      swap1\n      dup2\n      mstore\n      0x20\n      add\n      0x00\n      keccak256\n      0x00\n        /* \"contracts/Perpustakaan.sol\":1646:1665  delete books[_ISBN] */\n      dup1\n      dup3\n      add\n      0x00\n      swap1\n      sstore\n      0x01\n      dup3\n      add\n      0x00\n      tag_69\n      swap2\n      swap1\n      tag_70\n      jump\t// in\n    tag_69:\n      0x02\n      dup3\n      add\n      0x00\n      swap1\n      sstore\n      0x03\n      dup3\n      add\n      0x00\n      tag_71\n      swap2\n      swap1\n      tag_70\n      jump\t// in\n    tag_71:\n      pop\n      pop\n        /* \"contracts/Perpustakaan.sol\":1681:1771  BukuDihapus(deletedBook.ISBN, deletedBook.judul, deletedBook.tahun, deletedBook.pengarang) */\n      0x8aa79b649b6a4ebbe5891b28070d032d5687bb783c9447bcfaebeab95fdd0739\n        /* \"contracts/Perpustakaan.sol\":1693:1704  deletedBook */\n      dup2\n        /* \"contracts/Perpustakaan.sol\":1693:1709  deletedBook.ISBN */\n      0x00\n      add\n      mload\n        /* \"contracts/Perpustakaan.sol\":1711:1722  deletedBook */\n      dup3\n        /* \"contracts/Perpustakaan.sol\":1711:1728  deletedBook.judul */\n      0x20\n      add\n      mload\n        /* \"contracts/Perpustakaan.sol\":1730:1741  deletedBook */\n      dup4\n        /* \"contracts/Perpustakaan.sol\":1730:1747  deletedBook.tahun */\n      0x40\n      add\n      mload\n        /* \"contracts/Perpustakaan.sol\":1749:1760  deletedBook */\n      dup5\n        /* \"contracts/Perpustakaan.sol\":1749:1770  deletedBook.pengarang */\n      0x60\n      add\n      mload\n        /* \"contracts/Perpustakaan.sol\":1681:1771  BukuDihapus(deletedBook.ISBN, deletedBook.judul, deletedBook.tahun, deletedBook.pengarang) */\n      mload(0x40)\n      tag_72\n      swap5\n      swap4\n      swap3\n      swap2\n      swap1\n      tag_26\n      jump\t// in\n    tag_72:\n      mload(0x40)\n      dup1\n      swap2\n      sub\n      swap1\n      log1\n        /* \"contracts/Perpustakaan.sol\":1520:1779  {... */\n      pop\n        /* \"contracts/Perpustakaan.sol\":1468:1779  function hapusBuku(uint256 _ISBN) public hanyaAdmin {... */\n      pop\n      jump\t// out\n        /* \"contracts/Perpustakaan.sol\":788:1074  function tambahBuku(string memory _judul, uint256 _tahun, string memory _pengarang) public hanyaAdmin {... */\n    tag_21:\n        /* \"contracts/Perpustakaan.sol\":441:446  admin */\n      0x01\n      0x00\n      swap1\n      sload\n      swap1\n      0x0100\n      exp\n      swap1\n      div\n      0xffffffffffffffffffffffffffffffffffffffff\n      and\n        /* \"contracts/Perpustakaan.sol\":427:446  msg.sender == admin */\n      0xffffffffffffffffffffffffffffffffffffffff\n      and\n        /* \"contracts/Perpustakaan.sol\":427:437  msg.sender */\n      caller\n        /* \"contracts/Perpustakaan.sol\":427:446  msg.sender == admin */\n      0xffffffffffffffffffffffffffffffffffffffff\n      and\n      eq\n        /* \"contracts/Perpustakaan.sol\":419:496  require(msg.sender == admin, \"Hanya admin yang dapat melakukan tindakan ini\") */\n      tag_74\n      jumpi\n      mload(0x40)\n      0x08c379a000000000000000000000000000000000000000000000000000000000\n      dup2\n      mstore\n      0x04\n      add\n      tag_75\n      swap1\n      tag_55\n      jump\t// in\n    tag_75:\n      mload(0x40)\n      dup1\n      swap2\n      sub\n      swap1\n      revert\n    tag_74:\n        /* \"contracts/Perpustakaan.sol\":901:914  uint256 _ISBN */\n      0x00\n        /* \"contracts/Perpustakaan.sol\":917:935  generateAcakISBN() */\n      tag_77\n        /* \"contracts/Perpustakaan.sol\":917:933  generateAcakISBN */\n      tag_78\n        /* \"contracts/Perpustakaan.sol\":917:935  generateAcakISBN() */\n      jump\t// in\n    tag_77:\n        /* \"contracts/Perpustakaan.sol\":901:935  uint256 _ISBN = generateAcakISBN() */\n      swap1\n      pop\n        /* \"contracts/Perpustakaan.sol\":961:1000  Buku(_ISBN, _judul, _tahun, _pengarang) */\n      mload(0x40)\n      dup1\n      0x80\n      add\n      0x40\n      mstore\n      dup1\n        /* \"contracts/Perpustakaan.sol\":966:971  _ISBN */\n      dup3\n        /* \"contracts/Perpustakaan.sol\":961:1000  Buku(_ISBN, _judul, _tahun, _pengarang) */\n      dup2\n      mstore\n      0x20\n      add\n        /* \"contracts/Perpustakaan.sol\":973:979  _judul */\n      dup6\n        /* \"contracts/Perpustakaan.sol\":961:1000  Buku(_ISBN, _judul, _tahun, _pengarang) */\n      dup2\n      mstore\n      0x20\n      add\n        /* \"contracts/Perpustakaan.sol\":981:987  _tahun */\n      dup5\n        /* \"contracts/Perpustakaan.sol\":961:1000  Buku(_ISBN, _judul, _tahun, _pengarang) */\n      dup2\n      mstore\n      0x20\n      add\n        /* \"contracts/Perpustakaan.sol\":989:999  _pengarang */\n      dup4\n        /* \"contracts/Perpustakaan.sol\":961:1000  Buku(_ISBN, _judul, _tahun, _pengarang) */\n      dup2\n      mstore\n      pop\n        /* \"contracts/Perpustakaan.sol\":946:951  books */\n      0x00\n        /* \"contracts/Perpustakaan.sol\":946:958  books[_ISBN] */\n      dup1\n        /* \"contracts/Perpustakaan.sol\":952:957  _ISBN */\n      dup4\n        /* \"contracts/Perpustakaan.sol\":946:958  books[_ISBN] */\n      dup2\n      mstore\n      0x20\n      add\n      swap1\n      dup2\n      mstore\n      0x20\n      add\n      0x00\n      keccak256\n        /* \"contracts/Perpustakaan.sol\":946:1000  books[_ISBN] = Buku(_ISBN, _judul, _tahun, _pengarang) */\n      0x00\n      dup3\n      add\n      mload\n      dup2\n      0x00\n      add\n      sstore\n      0x20\n      dup3\n      add\n      mload\n      dup2\n      0x01\n      add\n      swap1\n      dup2\n      tag_79\n      swap2\n      swap1\n      tag_80\n      jump\t// in\n    tag_79:\n      pop\n      0x40\n      dup3\n      add\n      mload\n      dup2\n      0x02\n      add\n      sstore\n      0x60\n      dup3\n      add\n      mload\n      dup2\n      0x03\n      add\n      swap1\n      dup2\n      tag_81\n      swap2\n      swap1\n      tag_80\n      jump\t// in\n    tag_81:\n      pop\n      swap1\n      pop\n      pop\n        /* \"contracts/Perpustakaan.sol\":1016:1066  BukuDitambahkan(_ISBN, _judul, _tahun, _pengarang) */\n      0xd0d4cd8737018e52a6388a5921967e80bec857befd9ca6c10fa377129e0cba4b\n        /* \"contracts/Perpustakaan.sol\":1032:1037  _ISBN */\n      dup2\n        /* \"contracts/Perpustakaan.sol\":1039:1045  _judul */\n      dup6\n        /* \"contracts/Perpustakaan.sol\":1047:1053  _tahun */\n      dup6\n        /* \"contracts/Perpustakaan.sol\":1055:1065  _pengarang */\n      dup6\n        /* \"contracts/Perpustakaan.sol\":1016:1066  BukuDitambahkan(_ISBN, _judul, _tahun, _pengarang) */\n      mload(0x40)\n      tag_82\n      swap5\n      swap4\n      swap3\n      swap2\n      swap1\n      tag_26\n      jump\t// in\n    tag_82:\n      mload(0x40)\n      dup1\n      swap2\n      sub\n      swap1\n      log1\n        /* \"contracts/Perpustakaan.sol\":890:1074  {... */\n      pop\n        /* \"contracts/Perpustakaan.sol\":788:1074  function tambahBuku(string memory _judul, uint256 _tahun, string memory _pengarang) public hanyaAdmin {... */\n      pop\n      pop\n      pop\n      jump\t// out\n        /* \"contracts/Perpustakaan.sol\":222:259  mapping(uint256 => Buku) public books */\n    tag_24:\n      mstore(0x20, 0x00)\n      dup1\n      0x00\n      mstore\n      keccak256(0x00, 0x40)\n      0x00\n      swap2\n      pop\n      swap1\n      pop\n      dup1\n      0x00\n      add\n      sload\n      swap1\n      dup1\n      0x01\n      add\n      dup1\n      sload\n      tag_83\n      swap1\n      tag_42\n      jump\t// in\n    tag_83:\n      dup1\n      0x1f\n      add\n      0x20\n      dup1\n      swap2\n      div\n      mul\n      0x20\n      add\n      mload(0x40)\n      swap1\n      dup2\n      add\n      0x40\n      mstore\n      dup1\n      swap3\n      swap2\n      swap1\n      dup2\n      dup2\n      mstore\n      0x20\n      add\n      dup3\n      dup1\n      sload\n      tag_84\n      swap1\n      tag_42\n      jump\t// in\n    tag_84:\n      dup1\n      iszero\n      tag_85\n      jumpi\n      dup1\n      0x1f\n      lt\n      tag_86\n      jumpi\n      0x0100\n      dup1\n      dup4\n      sload\n      div\n      mul\n      dup4\n      mstore\n      swap2\n      0x20\n      add\n      swap2\n      jump(tag_85)\n    tag_86:\n      dup3\n      add\n      swap2\n      swap1\n      0x00\n      mstore\n      keccak256(0x00, 0x20)\n      swap1\n    tag_87:\n      dup2\n      sload\n      dup2\n      mstore\n      swap1\n      0x01\n      add\n      swap1\n      0x20\n      add\n      dup1\n      dup4\n      gt\n      tag_87\n      jumpi\n      dup3\n      swap1\n      sub\n      0x1f\n      and\n      dup3\n      add\n      swap2\n    tag_85:\n      pop\n      pop\n      pop\n      pop\n      pop\n      swap1\n      dup1\n      0x02\n      add\n      sload\n      swap1\n      dup1\n      0x03\n      add\n      dup1\n      sload\n      tag_88\n      swap1\n      tag_42\n      jump\t// in\n    tag_88:\n      dup1\n      0x1f\n      add\n      0x20\n      dup1\n      swap2\n      div\n      mul\n      0x20\n      add\n      mload(0x40)\n      swap1\n      dup2\n      add\n      0x40\n      mstore\n      dup1\n      swap3\n      swap2\n      swap1\n      dup2\n      dup2\n      mstore\n      0x20\n      add\n      dup3\n      dup1\n      sload\n      tag_89\n      swap1\n      tag_42\n      jump\t// in\n    tag_89:\n      dup1\n      iszero\n      tag_90\n      jumpi\n      dup1\n      0x1f\n      lt\n      tag_91\n      jumpi\n      0x0100\n      dup1\n      dup4\n      sload\n      div\n      mul\n      dup4\n      mstore\n      swap2\n      0x20\n      add\n      swap2\n      jump(tag_90)\n    tag_91:\n      dup3\n      add\n      swap2\n      swap1\n      0x00\n      mstore\n      keccak256(0x00, 0x20)\n      swap1\n    tag_92:\n      dup2\n      sload\n      dup2\n      mstore\n      swap1\n      0x01\n      add\n      swap1\n      0x20\n      add\n      dup1\n      dup4\n      gt\n      tag_92\n      jumpi\n      dup3\n      swap1\n      sub\n      0x1f\n      and\n      dup3\n      add\n      swap2\n    tag_90:\n      pop\n      pop\n      pop\n      pop\n      pop\n      swap1\n      pop\n      dup5\n      jump\t// out\n        /* \"contracts/Perpustakaan.sol\":1082:1460  function updateBuku(uint256 _ISBN, string memory _judul, uint256 _tahun, string memory _pengarang) public hanyaAdmin {... */\n    tag_30:\n        /* \"contracts/Perpustakaan.sol\":441:446  admin */\n      0x01\n      0x00\n      swap1\n      sload\n      swap1\n      0x0100\n      exp\n      swap1\n      div\n      0xffffffffffffffffffffffffffffffffffffffff\n      and\n        /* \"contracts/Perpustakaan.sol\":427:446  msg.sender == admin */\n      0xffffffffffffffffffffffffffffffffffffffff\n      and\n        /* \"contracts/Perpustakaan.sol\":427:437  msg.sender */\n      caller\n        /* \"contracts/Perpustakaan.sol\":427:446  msg.sender == admin */\n      0xffffffffffffffffffffffffffffffffffffffff\n      and\n      eq\n        /* \"contracts/Perpustakaan.sol\":419:496  require(msg.sender == admin, \"Hanya admin yang dapat melakukan tindakan ini\") */\n      tag_94\n      jumpi\n      mload(0x40)\n      0x08c379a000000000000000000000000000000000000000000000000000000000\n      dup2\n      mstore\n      0x04\n      add\n      tag_95\n      swap1\n      tag_55\n      jump\t// in\n    tag_95:\n      mload(0x40)\n      dup1\n      swap2\n      sub\n      swap1\n      revert\n    tag_94:\n        /* \"contracts/Perpustakaan.sol\":1239:1240  0 */\n      0x00\n        /* \"contracts/Perpustakaan.sol\":1218:1223  books */\n      dup1\n        /* \"contracts/Perpustakaan.sol\":1218:1230  books[_ISBN] */\n      0x00\n        /* \"contracts/Perpustakaan.sol\":1224:1229  _ISBN */\n      dup7\n        /* \"contracts/Perpustakaan.sol\":1218:1230  books[_ISBN] */\n      dup2\n      mstore\n      0x20\n      add\n      swap1\n      dup2\n      mstore\n      0x20\n      add\n      0x00\n      keccak256\n        /* \"contracts/Perpustakaan.sol\":1218:1235  books[_ISBN].ISBN */\n      0x00\n      add\n      sload\n        /* \"contracts/Perpustakaan.sol\":1218:1240  books[_ISBN].ISBN != 0 */\n      sub\n        /* \"contracts/Perpustakaan.sol\":1210:1265  require(books[_ISBN].ISBN != 0, \"Buku tidak ditemukan\") */\n      tag_97\n      jumpi\n      mload(0x40)\n      0x08c379a000000000000000000000000000000000000000000000000000000000\n      dup2\n      mstore\n      0x04\n      add\n      tag_98\n      swap1\n      tag_40\n      jump\t// in\n    tag_98:\n      mload(0x40)\n      dup1\n      swap2\n      sub\n      swap1\n      revert\n    tag_97:\n        /* \"contracts/Perpustakaan.sol\":1297:1303  _judul */\n      dup3\n        /* \"contracts/Perpustakaan.sol\":1276:1281  books */\n      0x00\n        /* \"contracts/Perpustakaan.sol\":1276:1288  books[_ISBN] */\n      dup1\n        /* \"contracts/Perpustakaan.sol\":1282:1287  _ISBN */\n      dup7\n        /* \"contracts/Perpustakaan.sol\":1276:1288  books[_ISBN] */\n      dup2\n      mstore\n      0x20\n      add\n      swap1\n      dup2\n      mstore\n      0x20\n      add\n      0x00\n      keccak256\n        /* \"contracts/Perpustakaan.sol\":1276:1294  books[_ISBN].judul */\n      0x01\n      add\n        /* \"contracts/Perpustakaan.sol\":1276:1303  books[_ISBN].judul = _judul */\n      swap1\n      dup2\n      tag_99\n      swap2\n      swap1\n      tag_80\n      jump\t// in\n    tag_99:\n      pop\n        /* \"contracts/Perpustakaan.sol\":1335:1341  _tahun */\n      dup2\n        /* \"contracts/Perpustakaan.sol\":1314:1319  books */\n      0x00\n        /* \"contracts/Perpustakaan.sol\":1314:1326  books[_ISBN] */\n      dup1\n        /* \"contracts/Perpustakaan.sol\":1320:1325  _ISBN */\n      dup7\n        /* \"contracts/Perpustakaan.sol\":1314:1326  books[_ISBN] */\n      dup2\n      mstore\n      0x20\n      add\n      swap1\n      dup2\n      mstore\n      0x20\n      add\n      0x00\n      keccak256\n        /* \"contracts/Perpustakaan.sol\":1314:1332  books[_ISBN].tahun */\n      0x02\n      add\n        /* \"contracts/Perpustakaan.sol\":1314:1341  books[_ISBN].tahun = _tahun */\n      dup2\n      swap1\n      sstore\n      pop\n        /* \"contracts/Perpustakaan.sol\":1377:1387  _pengarang */\n      dup1\n        /* \"contracts/Perpustakaan.sol\":1352:1357  books */\n      0x00\n        /* \"contracts/Perpustakaan.sol\":1352:1364  books[_ISBN] */\n      dup1\n        /* \"contracts/Perpustakaan.sol\":1358:1363  _ISBN */\n      dup7\n        /* \"contracts/Perpustakaan.sol\":1352:1364  books[_ISBN] */\n      dup2\n      mstore\n      0x20\n      add\n      swap1\n      dup2\n      mstore\n      0x20\n      add\n      0x00\n      keccak256\n        /* \"contracts/Perpustakaan.sol\":1352:1374  books[_ISBN].pengarang */\n      0x03\n      add\n        /* \"contracts/Perpustakaan.sol\":1352:1387  books[_ISBN].pengarang = _pengarang */\n      swap1\n      dup2\n      tag_100\n      swap2\n      swap1\n      tag_80\n      jump\t// in\n    tag_100:\n      pop\n        /* \"contracts/Perpustakaan.sol\":1403:1452  BukuDiperbarui(_ISBN, _judul, _tahun, _pengarang) */\n      0x31885bd69be5fd94381a4d4dc2b2f4868dd0e8d7f8fa4c667a0a4675f3abeeec\n        /* \"contracts/Perpustakaan.sol\":1418:1423  _ISBN */\n      dup5\n        /* \"contracts/Perpustakaan.sol\":1425:1431  _judul */\n      dup5\n        /* \"contracts/Perpustakaan.sol\":1433:1439  _tahun */\n      dup5\n        /* \"contracts/Perpustakaan.sol\":1441:1451  _pengarang */\n      dup5\n        /* \"contracts/Perpustakaan.sol\":1403:1452  BukuDiperbarui(_ISBN, _judul, _tahun, _pengarang) */\n      mload(0x40)\n      tag_101\n      swap5\n      swap4\n      swap3\n      swap2\n      swap1\n      tag_26\n      jump\t// in\n    tag_101:\n      mload(0x40)\n      dup1\n      swap2\n      sub\n      swap1\n      log1\n        /* \"contracts/Perpustakaan.sol\":1082:1460  function updateBuku(uint256 _ISBN, string memory _judul, uint256 _tahun, string memory _pengarang) public hanyaAdmin {... */\n      pop\n      pop\n      pop\n      pop\n      jump\t// out\n        /* \"contracts/Perpustakaan.sol\":266:286  address public admin */\n    tag_32:\n      0x01\n      0x00\n      swap1\n      sload\n      swap1\n      0x0100\n      exp\n      swap1\n      div\n      0xffffffffffffffffffffffffffffffffffffffff\n      and\n      dup2\n      jump\t// out\n        /* \"contracts/Perpustakaan.sol\":1978:2332  function generateAcakISBN() private returns (uint256) {... */\n    tag_78:\n        /* \"contracts/Perpustakaan.sol\":2023:2030  uint256 */\n      0x00\n        /* \"contracts/Perpustakaan.sol\":2043:2056  uint256 _ISBN */\n      dup1\n        /* \"contracts/Perpustakaan.sol\":2094:2099  nonce */\n      sload(0x02)\n        /* \"contracts/Perpustakaan.sol\":2101:2111  msg.sender */\n      caller\n        /* \"contracts/Perpustakaan.sol\":2113:2128  block.timestamp */\n      timestamp\n        /* \"contracts/Perpustakaan.sol\":2077:2129  abi.encodePacked(nonce, msg.sender, block.timestamp) */\n      add(0x20, mload(0x40))\n      tag_103\n      swap4\n      swap3\n      swap2\n      swap1\n      tag_104\n      jump\t// in\n    tag_103:\n      mload(0x40)\n      0x20\n      dup2\n      dup4\n      sub\n      sub\n      dup2\n      mstore\n      swap1\n      0x40\n      mstore\n        /* \"contracts/Perpustakaan.sol\":2067:2130  keccak256(abi.encodePacked(nonce, msg.sender, block.timestamp)) */\n      dup1\n      mload\n      swap1\n      0x20\n      add\n      keccak256\n        /* \"contracts/Perpustakaan.sol\":2059:2131  uint256(keccak256(abi.encodePacked(nonce, msg.sender, block.timestamp))) */\n      0x00\n      shr\n        /* \"contracts/Perpustakaan.sol\":2043:2131  uint256 _ISBN = uint256(keccak256(abi.encodePacked(nonce, msg.sender, block.timestamp))) */\n      swap1\n      pop\n        /* \"contracts/Perpustakaan.sol\":2142:2302  while (books[_ISBN].ISBN != 0) {... */\n    tag_105:\n        /* \"contracts/Perpustakaan.sol\":2170:2171  0 */\n      0x00\n        /* \"contracts/Perpustakaan.sol\":2149:2154  books */\n      dup1\n        /* \"contracts/Perpustakaan.sol\":2149:2161  books[_ISBN] */\n      0x00\n        /* \"contracts/Perpustakaan.sol\":2155:2160  _ISBN */\n      dup4\n        /* \"contracts/Perpustakaan.sol\":2149:2161  books[_ISBN] */\n      dup2\n      mstore\n      0x20\n      add\n      swap1\n      dup2\n      mstore\n      0x20\n      add\n      0x00\n      keccak256\n        /* \"contracts/Perpustakaan.sol\":2149:2166  books[_ISBN].ISBN */\n      0x00\n      add\n      sload\n        /* \"contracts/Perpustakaan.sol\":2149:2171  books[_ISBN].ISBN != 0 */\n      eq\n        /* \"contracts/Perpustakaan.sol\":2142:2302  while (books[_ISBN].ISBN != 0) {... */\n      tag_106\n      jumpi\n        /* \"contracts/Perpustakaan.sol\":2188:2193  nonce */\n      0x02\n      0x00\n        /* \"contracts/Perpustakaan.sol\":2188:2195  nonce++ */\n      dup2\n      sload\n      dup1\n      swap3\n      swap2\n      swap1\n      tag_107\n      swap1\n      tag_108\n      jump\t// in\n    tag_107:\n      swap2\n      swap1\n      pop\n      sstore\n      pop\n        /* \"contracts/Perpustakaan.sol\":2253:2258  nonce */\n      sload(0x02)\n        /* \"contracts/Perpustakaan.sol\":2260:2270  msg.sender */\n      caller\n        /* \"contracts/Perpustakaan.sol\":2272:2287  block.timestamp */\n      timestamp\n        /* \"contracts/Perpustakaan.sol\":2236:2288  abi.encodePacked(nonce, msg.sender, block.timestamp) */\n      add(0x20, mload(0x40))\n      tag_109\n      swap4\n      swap3\n      swap2\n      swap1\n      tag_104\n      jump\t// in\n    tag_109:\n      mload(0x40)\n      0x20\n      dup2\n      dup4\n      sub\n      sub\n      dup2\n      mstore\n      swap1\n      0x40\n      mstore\n        /* \"contracts/Perpustakaan.sol\":2226:2289  keccak256(abi.encodePacked(nonce, msg.sender, block.timestamp)) */\n      dup1\n      mload\n      swap1\n      0x20\n      add\n      keccak256\n        /* \"contracts/Perpustakaan.sol\":2218:2290  uint256(keccak256(abi.encodePacked(nonce, msg.sender, block.timestamp))) */\n      0x00\n      shr\n        /* \"contracts/Perpustakaan.sol\":2210:2290  _ISBN = uint256(keccak256(abi.encodePacked(nonce, msg.sender, block.timestamp))) */\n      swap1\n      pop\n        /* \"contracts/Perpustakaan.sol\":2142:2302  while (books[_ISBN].ISBN != 0) {... */\n      jump(tag_105)\n    tag_106:\n        /* \"contracts/Perpustakaan.sol\":2319:2324  _ISBN */\n      dup1\n        /* \"contracts/Perpustakaan.sol\":2312:2324  return _ISBN */\n      swap2\n      pop\n      pop\n        /* \"contracts/Perpustakaan.sol\":1978:2332  function generateAcakISBN() private returns (uint256) {... */\n      swap1\n      jump\t// out\n    tag_36:\n      mload(0x40)\n      dup1\n      0x80\n      add\n      0x40\n      mstore\n      dup1\n      0x00\n      dup2\n      mstore\n      0x20\n      add\n      0x60\n      dup2\n      mstore\n      0x20\n      add\n      0x00\n      dup2\n      mstore\n      0x20\n      add\n      0x60\n      dup2\n      mstore\n      pop\n      swap1\n      jump\t// out\n    tag_70:\n      pop\n      dup1\n      sload\n      tag_110\n      swap1\n      tag_42\n      jump\t// in\n    tag_110:\n      0x00\n      dup3\n      sstore\n      dup1\n      0x1f\n      lt\n      tag_112\n      jumpi\n      pop\n      jump(tag_111)\n    tag_112:\n      0x1f\n      add\n      0x20\n      swap1\n      div\n      swap1\n      0x00\n      mstore\n      keccak256(0x00, 0x20)\n      swap1\n      dup2\n      add\n      swap1\n      tag_113\n      swap2\n      swap1\n      tag_114\n      jump\t// in\n    tag_113:\n    tag_111:\n      pop\n      jump\t// out\n    tag_114:\n    tag_115:\n      dup1\n      dup3\n      gt\n      iszero\n      tag_116\n      jumpi\n      0x00\n      dup2\n      0x00\n      swap1\n      sstore\n      pop\n      0x01\n      add\n      jump(tag_115)\n    tag_116:\n      pop\n      swap1\n      jump\t// out\n        /* \"#utility.yul\":7:82   */\n    tag_117:\n        /* \"#utility.yul\":40:46   */\n      0x00\n        /* \"#utility.yul\":73:75   */\n      0x40\n        /* \"#utility.yul\":67:76   */\n      mload\n        /* \"#utility.yul\":57:76   */\n      swap1\n      pop\n        /* \"#utility.yul\":7:82   */\n      swap1\n      jump\t// out\n        /* \"#utility.yul\":88:205   */\n    tag_118:\n        /* \"#utility.yul\":197:198   */\n      0x00\n        /* \"#utility.yul\":194:195   */\n      dup1\n        /* \"#utility.yul\":187:199   */\n      revert\n        /* \"#utility.yul\":211:328   */\n    tag_119:\n        /* \"#utility.yul\":320:321   */\n      0x00\n        /* \"#utility.yul\":317:318   */\n      dup1\n        /* \"#utility.yul\":310:322   */\n      revert\n        /* \"#utility.yul\":334:411   */\n    tag_120:\n        /* \"#utility.yul\":371:378   */\n      0x00\n        /* \"#utility.yul\":400:405   */\n      dup2\n        /* \"#utility.yul\":389:405   */\n      swap1\n      pop\n        /* \"#utility.yul\":334:411   */\n      swap2\n      swap1\n      pop\n      jump\t// out\n        /* \"#utility.yul\":417:539   */\n    tag_121:\n        /* \"#utility.yul\":490:514   */\n      tag_178\n        /* \"#utility.yul\":508:513   */\n      dup2\n        /* \"#utility.yul\":490:514   */\n      tag_120\n      jump\t// in\n    tag_178:\n        /* \"#utility.yul\":483:488   */\n      dup2\n        /* \"#utility.yul\":480:515   */\n      eq\n        /* \"#utility.yul\":470:533   */\n      tag_179\n      jumpi\n        /* \"#utility.yul\":529:530   */\n      0x00\n        /* \"#utility.yul\":526:527   */\n      dup1\n        /* \"#utility.yul\":519:531   */\n      revert\n        /* \"#utility.yul\":470:533   */\n    tag_179:\n        /* \"#utility.yul\":417:539   */\n      pop\n      jump\t// out\n        /* \"#utility.yul\":545:684   */\n    tag_122:\n        /* \"#utility.yul\":591:596   */\n      0x00\n        /* \"#utility.yul\":629:635   */\n      dup2\n        /* \"#utility.yul\":616:636   */\n      calldataload\n        /* \"#utility.yul\":607:636   */\n      swap1\n      pop\n        /* \"#utility.yul\":645:678   */\n      tag_181\n        /* \"#utility.yul\":672:677   */\n      dup2\n        /* \"#utility.yul\":645:678   */\n      tag_121\n      jump\t// in\n    tag_181:\n        /* \"#utility.yul\":545:684   */\n      swap3\n      swap2\n      pop\n      pop\n      jump\t// out\n        /* \"#utility.yul\":690:1019   */\n    tag_11:\n        /* \"#utility.yul\":749:755   */\n      0x00\n        /* \"#utility.yul\":798:800   */\n      0x20\n        /* \"#utility.yul\":786:795   */\n      dup3\n        /* \"#utility.yul\":777:784   */\n      dup5\n        /* \"#utility.yul\":773:796   */\n      sub\n        /* \"#utility.yul\":769:801   */\n      slt\n        /* \"#utility.yul\":766:885   */\n      iszero\n      tag_183\n      jumpi\n        /* \"#utility.yul\":804:883   */\n      tag_184\n      tag_118\n      jump\t// in\n    tag_184:\n        /* \"#utility.yul\":766:885   */\n    tag_183:\n        /* \"#utility.yul\":924:925   */\n      0x00\n        /* \"#utility.yul\":949:1002   */\n      tag_185\n        /* \"#utility.yul\":994:1001   */\n      dup5\n        /* \"#utility.yul\":985:991   */\n      dup3\n        /* \"#utility.yul\":974:983   */\n      dup6\n        /* \"#utility.yul\":970:992   */\n      add\n        /* \"#utility.yul\":949:1002   */\n      tag_122\n      jump\t// in\n    tag_185:\n        /* \"#utility.yul\":939:1002   */\n      swap2\n      pop\n        /* \"#utility.yul\":895:1012   */\n      pop\n        /* \"#utility.yul\":690:1019   */\n      swap3\n      swap2\n      pop\n      pop\n      jump\t// out\n        /* \"#utility.yul\":1025:1133   */\n    tag_123:\n        /* \"#utility.yul\":1102:1126   */\n      tag_187\n        /* \"#utility.yul\":1120:1125   */\n      dup2\n        /* \"#utility.yul\":1102:1126   */\n      tag_120\n      jump\t// in\n    tag_187:\n        /* \"#utility.yul\":1097:1100   */\n      dup3\n        /* \"#utility.yul\":1090:1127   */\n      mstore\n        /* \"#utility.yul\":1025:1133   */\n      pop\n      pop\n      jump\t// out\n        /* \"#utility.yul\":1139:1238   */\n    tag_124:\n        /* \"#utility.yul\":1191:1197   */\n      0x00\n        /* \"#utility.yul\":1225:1230   */\n      dup2\n        /* \"#utility.yul\":1219:1231   */\n      mload\n        /* \"#utility.yul\":1209:1231   */\n      swap1\n      pop\n        /* \"#utility.yul\":1139:1238   */\n      swap2\n      swap1\n      pop\n      jump\t// out\n        /* \"#utility.yul\":1244:1403   */\n    tag_125:\n        /* \"#utility.yul\":1318:1329   */\n      0x00\n        /* \"#utility.yul\":1352:1358   */\n      dup3\n        /* \"#utility.yul\":1347:1350   */\n      dup3\n        /* \"#utility.yul\":1340:1359   */\n      mstore\n        /* \"#utility.yul\":1392:1396   */\n      0x20\n        /* \"#utility.yul\":1387:1390   */\n      dup3\n        /* \"#utility.yul\":1383:1397   */\n      add\n        /* \"#utility.yul\":1368:1397   */\n      swap1\n      pop\n        /* \"#utility.yul\":1244:1403   */\n      swap3\n      swap2\n      pop\n      pop\n      jump\t// out\n        /* \"#utility.yul\":1409:1655   */\n    tag_126:\n        /* \"#utility.yul\":1490:1491   */\n      0x00\n        /* \"#utility.yul\":1500:1613   */\n    tag_191:\n        /* \"#utility.yul\":1514:1520   */\n      dup4\n        /* \"#utility.yul\":1511:1512   */\n      dup2\n        /* \"#utility.yul\":1508:1521   */\n      lt\n        /* \"#utility.yul\":1500:1613   */\n      iszero\n      tag_193\n      jumpi\n        /* \"#utility.yul\":1599:1600   */\n      dup1\n        /* \"#utility.yul\":1594:1597   */\n      dup3\n        /* \"#utility.yul\":1590:1601   */\n      add\n        /* \"#utility.yul\":1584:1602   */\n      mload\n        /* \"#utility.yul\":1580:1581   */\n      dup2\n        /* \"#utility.yul\":1575:1578   */\n      dup5\n        /* \"#utility.yul\":1571:1582   */\n      add\n        /* \"#utility.yul\":1564:1603   */\n      mstore\n        /* \"#utility.yul\":1536:1538   */\n      0x20\n        /* \"#utility.yul\":1533:1534   */\n      dup2\n        /* \"#utility.yul\":1529:1539   */\n      add\n        /* \"#utility.yul\":1524:1539   */\n      swap1\n      pop\n        /* \"#utility.yul\":1500:1613   */\n      jump(tag_191)\n    tag_193:\n        /* \"#utility.yul\":1647:1648   */\n      0x00\n        /* \"#utility.yul\":1638:1644   */\n      dup5\n        /* \"#utility.yul\":1633:1636   */\n      dup5\n        /* \"#utility.yul\":1629:1645   */\n      add\n        /* \"#utility.yul\":1622:1649   */\n      mstore\n        /* \"#utility.yul\":1471:1655   */\n      pop\n        /* \"#utility.yul\":1409:1655   */\n      pop\n      pop\n      pop\n      jump\t// out\n        /* \"#utility.yul\":1661:1763   */\n    tag_127:\n        /* \"#utility.yul\":1702:1708   */\n      0x00\n        /* \"#utility.yul\":1753:1755   */\n      0x1f\n        /* \"#utility.yul\":1749:1756   */\n      not\n        /* \"#utility.yul\":1744:1746   */\n      0x1f\n        /* \"#utility.yul\":1737:1742   */\n      dup4\n        /* \"#utility.yul\":1733:1747   */\n      add\n        /* \"#utility.yul\":1729:1757   */\n      and\n        /* \"#utility.yul\":1719:1757   */\n      swap1\n      pop\n        /* \"#utility.yul\":1661:1763   */\n      swap2\n      swap1\n      pop\n      jump\t// out\n        /* \"#utility.yul\":1769:2126   */\n    tag_128:\n        /* \"#utility.yul\":1847:1850   */\n      0x00\n        /* \"#utility.yul\":1875:1914   */\n      tag_196\n        /* \"#utility.yul\":1908:1913   */\n      dup3\n        /* \"#utility.yul\":1875:1914   */\n      tag_124\n      jump\t// in\n    tag_196:\n        /* \"#utility.yul\":1930:1991   */\n      tag_197\n        /* \"#utility.yul\":1984:1990   */\n      dup2\n        /* \"#utility.yul\":1979:1982   */\n      dup6\n        /* \"#utility.yul\":1930:1991   */\n      tag_125\n      jump\t// in\n    tag_197:\n        /* \"#utility.yul\":1923:1991   */\n      swap4\n      pop\n        /* \"#utility.yul\":2000:2065   */\n      tag_198\n        /* \"#utility.yul\":2058:2064   */\n      dup2\n        /* \"#utility.yul\":2053:2056   */\n      dup6\n        /* \"#utility.yul\":2046:2050   */\n      0x20\n        /* \"#utility.yul\":2039:2044   */\n      dup7\n        /* \"#utility.yul\":2035:2051   */\n      add\n        /* \"#utility.yul\":2000:2065   */\n      tag_126\n      jump\t// in\n    tag_198:\n        /* \"#utility.yul\":2090:2119   */\n      tag_199\n        /* \"#utility.yul\":2112:2118   */\n      dup2\n        /* \"#utility.yul\":2090:2119   */\n      tag_127\n      jump\t// in\n    tag_199:\n        /* \"#utility.yul\":2085:2088   */\n      dup5\n        /* \"#utility.yul\":2081:2120   */\n      add\n        /* \"#utility.yul\":2074:2120   */\n      swap2\n      pop\n        /* \"#utility.yul\":1851:2126   */\n      pop\n        /* \"#utility.yul\":1769:2126   */\n      swap3\n      swap2\n      pop\n      pop\n      jump\t// out\n        /* \"#utility.yul\":2192:3214   */\n    tag_129:\n        /* \"#utility.yul\":2301:2304   */\n      0x00\n        /* \"#utility.yul\":2337:2341   */\n      0x80\n        /* \"#utility.yul\":2332:2335   */\n      dup4\n        /* \"#utility.yul\":2328:2342   */\n      add\n        /* \"#utility.yul\":2424:2428   */\n      0x00\n        /* \"#utility.yul\":2417:2422   */\n      dup4\n        /* \"#utility.yul\":2413:2429   */\n      add\n        /* \"#utility.yul\":2407:2430   */\n      mload\n        /* \"#utility.yul\":2443:2506   */\n      tag_201\n        /* \"#utility.yul\":2500:2504   */\n      0x00\n        /* \"#utility.yul\":2495:2498   */\n      dup7\n        /* \"#utility.yul\":2491:2505   */\n      add\n        /* \"#utility.yul\":2477:2489   */\n      dup3\n        /* \"#utility.yul\":2443:2506   */\n      tag_123\n      jump\t// in\n    tag_201:\n        /* \"#utility.yul\":2352:2516   */\n      pop\n        /* \"#utility.yul\":2599:2603   */\n      0x20\n        /* \"#utility.yul\":2592:2597   */\n      dup4\n        /* \"#utility.yul\":2588:2604   */\n      add\n        /* \"#utility.yul\":2582:2605   */\n      mload\n        /* \"#utility.yul\":2652:2655   */\n      dup5\n        /* \"#utility.yul\":2646:2650   */\n      dup3\n        /* \"#utility.yul\":2642:2656   */\n      sub\n        /* \"#utility.yul\":2635:2639   */\n      0x20\n        /* \"#utility.yul\":2630:2633   */\n      dup7\n        /* \"#utility.yul\":2626:2640   */\n      add\n        /* \"#utility.yul\":2619:2657   */\n      mstore\n        /* \"#utility.yul\":2678:2751   */\n      tag_202\n        /* \"#utility.yul\":2746:2750   */\n      dup3\n        /* \"#utility.yul\":2732:2744   */\n      dup3\n        /* \"#utility.yul\":2678:2751   */\n      tag_128\n      jump\t// in\n    tag_202:\n        /* \"#utility.yul\":2670:2751   */\n      swap2\n      pop\n        /* \"#utility.yul\":2526:2762   */\n      pop\n        /* \"#utility.yul\":2845:2849   */\n      0x40\n        /* \"#utility.yul\":2838:2843   */\n      dup4\n        /* \"#utility.yul\":2834:2850   */\n      add\n        /* \"#utility.yul\":2828:2851   */\n      mload\n        /* \"#utility.yul\":2864:2927   */\n      tag_203\n        /* \"#utility.yul\":2921:2925   */\n      0x40\n        /* \"#utility.yul\":2916:2919   */\n      dup7\n        /* \"#utility.yul\":2912:2926   */\n      add\n        /* \"#utility.yul\":2898:2910   */\n      dup3\n        /* \"#utility.yul\":2864:2927   */\n      tag_123\n      jump\t// in\n    tag_203:\n        /* \"#utility.yul\":2772:2937   */\n      pop\n        /* \"#utility.yul\":3024:3028   */\n      0x60\n        /* \"#utility.yul\":3017:3022   */\n      dup4\n        /* \"#utility.yul\":3013:3029   */\n      add\n        /* \"#utility.yul\":3007:3030   */\n      mload\n        /* \"#utility.yul\":3077:3080   */\n      dup5\n        /* \"#utility.yul\":3071:3075   */\n      dup3\n        /* \"#utility.yul\":3067:3081   */\n      sub\n        /* \"#utility.yul\":3060:3064   */\n      0x60\n        /* \"#utility.yul\":3055:3058   */\n      dup7\n        /* \"#utility.yul\":3051:3065   */\n      add\n        /* \"#utility.yul\":3044:3082   */\n      mstore\n        /* \"#utility.yul\":3103:3176   */\n      tag_204\n        /* \"#utility.yul\":3171:3175   */\n      dup3\n        /* \"#utility.yul\":3157:3169   */\n      dup3\n        /* \"#utility.yul\":3103:3176   */\n      tag_128\n      jump\t// in\n    tag_204:\n        /* \"#utility.yul\":3095:3176   */\n      swap2\n      pop\n        /* \"#utility.yul\":2947:3187   */\n      pop\n        /* \"#utility.yul\":3204:3208   */\n      dup1\n        /* \"#utility.yul\":3197:3208   */\n      swap2\n      pop\n        /* \"#utility.yul\":2306:3214   */\n      pop\n        /* \"#utility.yul\":2192:3214   */\n      swap3\n      swap2\n      pop\n      pop\n      jump\t// out\n        /* \"#utility.yul\":3220:3573   */\n    tag_14:\n        /* \"#utility.yul\":3353:3357   */\n      0x00\n        /* \"#utility.yul\":3391:3393   */\n      0x20\n        /* \"#utility.yul\":3380:3389   */\n      dup3\n        /* \"#utility.yul\":3376:3394   */\n      add\n        /* \"#utility.yul\":3368:3394   */\n      swap1\n      pop\n        /* \"#utility.yul\":3440:3449   */\n      dup2\n        /* \"#utility.yul\":3434:3438   */\n      dup2\n        /* \"#utility.yul\":3430:3450   */\n      sub\n        /* \"#utility.yul\":3426:3427   */\n      0x00\n        /* \"#utility.yul\":3415:3424   */\n      dup4\n        /* \"#utility.yul\":3411:3428   */\n      add\n        /* \"#utility.yul\":3404:3451   */\n      mstore\n        /* \"#utility.yul\":3468:3566   */\n      tag_206\n        /* \"#utility.yul\":3561:3565   */\n      dup2\n        /* \"#utility.yul\":3552:3558   */\n      dup5\n        /* \"#utility.yul\":3468:3566   */\n      tag_129\n      jump\t// in\n    tag_206:\n        /* \"#utility.yul\":3460:3566   */\n      swap1\n      pop\n        /* \"#utility.yul\":3220:3573   */\n      swap3\n      swap2\n      pop\n      pop\n      jump\t// out\n        /* \"#utility.yul\":3579:3696   */\n    tag_130:\n        /* \"#utility.yul\":3688:3689   */\n      0x00\n        /* \"#utility.yul\":3685:3686   */\n      dup1\n        /* \"#utility.yul\":3678:3690   */\n      revert\n        /* \"#utility.yul\":3702:3819   */\n    tag_131:\n        /* \"#utility.yul\":3811:3812   */\n      0x00\n        /* \"#utility.yul\":3808:3809   */\n      dup1\n        /* \"#utility.yul\":3801:3813   */\n      revert\n        /* \"#utility.yul\":3825:4005   */\n    tag_132:\n        /* \"#utility.yul\":3873:3950   */\n      0x4e487b7100000000000000000000000000000000000000000000000000000000\n        /* \"#utility.yul\":3870:3871   */\n      0x00\n        /* \"#utility.yul\":3863:3951   */\n      mstore\n        /* \"#utility.yul\":3970:3974   */\n      0x41\n        /* \"#utility.yul\":3967:3968   */\n      0x04\n        /* \"#utility.yul\":3960:3975   */\n      mstore\n        /* \"#utility.yul\":3994:3998   */\n      0x24\n        /* \"#utility.yul\":3991:3992   */\n      0x00\n        /* \"#utility.yul\":3984:3999   */\n      revert\n        /* \"#utility.yul\":4011:4292   */\n    tag_133:\n        /* \"#utility.yul\":4094:4121   */\n      tag_211\n        /* \"#utility.yul\":4116:4120   */\n      dup3\n        /* \"#utility.yul\":4094:4121   */\n      tag_127\n      jump\t// in\n    tag_211:\n        /* \"#utility.yul\":4086:4092   */\n      dup2\n        /* \"#utility.yul\":4082:4122   */\n      add\n        /* \"#utility.yul\":4224:4230   */\n      dup2\n        /* \"#utility.yul\":4212:4222   */\n      dup2\n        /* \"#utility.yul\":4209:4231   */\n      lt\n        /* \"#utility.yul\":4188:4206   */\n      0xffffffffffffffff\n        /* \"#utility.yul\":4176:4186   */\n      dup3\n        /* \"#utility.yul\":4173:4207   */\n      gt\n        /* \"#utility.yul\":4170:4232   */\n      or\n        /* \"#utility.yul\":4167:4255   */\n      iszero\n      tag_212\n      jumpi\n        /* \"#utility.yul\":4235:4253   */\n      tag_213\n      tag_132\n      jump\t// in\n    tag_213:\n        /* \"#utility.yul\":4167:4255   */\n    tag_212:\n        /* \"#utility.yul\":4275:4285   */\n      dup1\n        /* \"#utility.yul\":4271:4273   */\n      0x40\n        /* \"#utility.yul\":4264:4286   */\n      mstore\n        /* \"#utility.yul\":4054:4292   */\n      pop\n        /* \"#utility.yul\":4011:4292   */\n      pop\n      pop\n      jump\t// out\n        /* \"#utility.yul\":4298:4427   */\n    tag_134:\n        /* \"#utility.yul\":4332:4338   */\n      0x00\n        /* \"#utility.yul\":4359:4379   */\n      tag_215\n      tag_117\n      jump\t// in\n    tag_215:\n        /* \"#utility.yul\":4349:4379   */\n      swap1\n      pop\n        /* \"#utility.yul\":4388:4421   */\n      tag_216\n        /* \"#utility.yul\":4416:4420   */\n      dup3\n        /* \"#utility.yul\":4408:4414   */\n      dup3\n        /* \"#utility.yul\":4388:4421   */\n      tag_133\n      jump\t// in\n    tag_216:\n        /* \"#utility.yul\":4298:4427   */\n      swap2\n      swap1\n      pop\n      jump\t// out\n        /* \"#utility.yul\":4433:4741   */\n    tag_135:\n        /* \"#utility.yul\":4495:4499   */\n      0x00\n        /* \"#utility.yul\":4585:4603   */\n      0xffffffffffffffff\n        /* \"#utility.yul\":4577:4583   */\n      dup3\n        /* \"#utility.yul\":4574:4604   */\n      gt\n        /* \"#utility.yul\":4571:4627   */\n      iszero\n      tag_218\n      jumpi\n        /* \"#utility.yul\":4607:4625   */\n      tag_219\n      tag_132\n      jump\t// in\n    tag_219:\n        /* \"#utility.yul\":4571:4627   */\n    tag_218:\n        /* \"#utility.yul\":4645:4674   */\n      tag_220\n        /* \"#utility.yul\":4667:4673   */\n      dup3\n        /* \"#utility.yul\":4645:4674   */\n      tag_127\n      jump\t// in\n    tag_220:\n        /* \"#utility.yul\":4637:4674   */\n      swap1\n      pop\n        /* \"#utility.yul\":4729:4733   */\n      0x20\n        /* \"#utility.yul\":4723:4727   */\n      dup2\n        /* \"#utility.yul\":4719:4734   */\n      add\n        /* \"#utility.yul\":4711:4734   */\n      swap1\n      pop\n        /* \"#utility.yul\":4433:4741   */\n      swap2\n      swap1\n      pop\n      jump\t// out\n        /* \"#utility.yul\":4747:4893   */\n    tag_136:\n        /* \"#utility.yul\":4844:4850   */\n      dup3\n        /* \"#utility.yul\":4839:4842   */\n      dup2\n        /* \"#utility.yul\":4834:4837   */\n      dup4\n        /* \"#utility.yul\":4821:4851   */\n      calldatacopy\n        /* \"#utility.yul\":4885:4886   */\n      0x00\n        /* \"#utility.yul\":4876:4882   */\n      dup4\n        /* \"#utility.yul\":4871:4874   */\n      dup4\n        /* \"#utility.yul\":4867:4883   */\n      add\n        /* \"#utility.yul\":4860:4887   */\n      mstore\n        /* \"#utility.yul\":4747:4893   */\n      pop\n      pop\n      pop\n      jump\t// out\n        /* \"#utility.yul\":4899:5324   */\n    tag_137:\n        /* \"#utility.yul\":4977:4982   */\n      0x00\n        /* \"#utility.yul\":5002:5068   */\n      tag_223\n        /* \"#utility.yul\":5018:5067   */\n      tag_224\n        /* \"#utility.yul\":5060:5066   */\n      dup5\n        /* \"#utility.yul\":5018:5067   */\n      tag_135\n      jump\t// in\n    tag_224:\n        /* \"#utility.yul\":5002:5068   */\n      tag_134\n      jump\t// in\n    tag_223:\n        /* \"#utility.yul\":4993:5068   */\n      swap1\n      pop\n        /* \"#utility.yul\":5091:5097   */\n      dup3\n        /* \"#utility.yul\":5084:5089   */\n      dup2\n        /* \"#utility.yul\":5077:5098   */\n      mstore\n        /* \"#utility.yul\":5129:5133   */\n      0x20\n        /* \"#utility.yul\":5122:5127   */\n      dup2\n        /* \"#utility.yul\":5118:5134   */\n      add\n        /* \"#utility.yul\":5167:5170   */\n      dup5\n        /* \"#utility.yul\":5158:5164   */\n      dup5\n        /* \"#utility.yul\":5153:5156   */\n      dup5\n        /* \"#utility.yul\":5149:5165   */\n      add\n        /* \"#utility.yul\":5146:5171   */\n      gt\n        /* \"#utility.yul\":5143:5255   */\n      iszero\n      tag_225\n      jumpi\n        /* \"#utility.yul\":5174:5253   */\n      tag_226\n      tag_131\n      jump\t// in\n    tag_226:\n        /* \"#utility.yul\":5143:5255   */\n    tag_225:\n        /* \"#utility.yul\":5264:5318   */\n      tag_227\n        /* \"#utility.yul\":5311:5317   */\n      dup5\n        /* \"#utility.yul\":5306:5309   */\n      dup3\n        /* \"#utility.yul\":5301:5304   */\n      dup6\n        /* \"#utility.yul\":5264:5318   */\n      tag_136\n      jump\t// in\n    tag_227:\n        /* \"#utility.yul\":4983:5324   */\n      pop\n        /* \"#utility.yul\":4899:5324   */\n      swap4\n      swap3\n      pop\n      pop\n      pop\n      jump\t// out\n        /* \"#utility.yul\":5344:5684   */\n    tag_138:\n        /* \"#utility.yul\":5400:5405   */\n      0x00\n        /* \"#utility.yul\":5449:5452   */\n      dup3\n        /* \"#utility.yul\":5442:5446   */\n      0x1f\n        /* \"#utility.yul\":5434:5440   */\n      dup4\n        /* \"#utility.yul\":5430:5447   */\n      add\n        /* \"#utility.yul\":5426:5453   */\n      slt\n        /* \"#utility.yul\":5416:5538   */\n      tag_229\n      jumpi\n        /* \"#utility.yul\":5457:5536   */\n      tag_230\n      tag_130\n      jump\t// in\n    tag_230:\n        /* \"#utility.yul\":5416:5538   */\n    tag_229:\n        /* \"#utility.yul\":5574:5580   */\n      dup2\n        /* \"#utility.yul\":5561:5581   */\n      calldataload\n        /* \"#utility.yul\":5599:5678   */\n      tag_231\n        /* \"#utility.yul\":5674:5677   */\n      dup5\n        /* \"#utility.yul\":5666:5672   */\n      dup3\n        /* \"#utility.yul\":5659:5663   */\n      0x20\n        /* \"#utility.yul\":5651:5657   */\n      dup7\n        /* \"#utility.yul\":5647:5664   */\n      add\n        /* \"#utility.yul\":5599:5678   */\n      tag_137\n      jump\t// in\n    tag_231:\n        /* \"#utility.yul\":5590:5678   */\n      swap2\n      pop\n        /* \"#utility.yul\":5406:5684   */\n      pop\n        /* \"#utility.yul\":5344:5684   */\n      swap3\n      swap2\n      pop\n      pop\n      jump\t// out\n        /* \"#utility.yul\":5690:6669   */\n    tag_20:\n        /* \"#utility.yul\":5787:5793   */\n      0x00\n        /* \"#utility.yul\":5795:5801   */\n      dup1\n        /* \"#utility.yul\":5803:5809   */\n      0x00\n        /* \"#utility.yul\":5852:5854   */\n      0x60\n        /* \"#utility.yul\":5840:5849   */\n      dup5\n        /* \"#utility.yul\":5831:5838   */\n      dup7\n        /* \"#utility.yul\":5827:5850   */\n      sub\n        /* \"#utility.yul\":5823:5855   */\n      slt\n        /* \"#utility.yul\":5820:5939   */\n      iszero\n      tag_233\n      jumpi\n        /* \"#utility.yul\":5858:5937   */\n      tag_234\n      tag_118\n      jump\t// in\n    tag_234:\n        /* \"#utility.yul\":5820:5939   */\n    tag_233:\n        /* \"#utility.yul\":6006:6007   */\n      0x00\n        /* \"#utility.yul\":5995:6004   */\n      dup5\n        /* \"#utility.yul\":5991:6008   */\n      add\n        /* \"#utility.yul\":5978:6009   */\n      calldataload\n        /* \"#utility.yul\":6036:6054   */\n      0xffffffffffffffff\n        /* \"#utility.yul\":6028:6034   */\n      dup2\n        /* \"#utility.yul\":6025:6055   */\n      gt\n        /* \"#utility.yul\":6022:6139   */\n      iszero\n      tag_235\n      jumpi\n        /* \"#utility.yul\":6058:6137   */\n      tag_236\n      tag_119\n      jump\t// in\n    tag_236:\n        /* \"#utility.yul\":6022:6139   */\n    tag_235:\n        /* \"#utility.yul\":6163:6226   */\n      tag_237\n        /* \"#utility.yul\":6218:6225   */\n      dup7\n        /* \"#utility.yul\":6209:6215   */\n      dup3\n        /* \"#utility.yul\":6198:6207   */\n      dup8\n        /* \"#utility.yul\":6194:6216   */\n      add\n        /* \"#utility.yul\":6163:6226   */\n      tag_138\n      jump\t// in\n    tag_237:\n        /* \"#utility.yul\":6153:6226   */\n      swap4\n      pop\n        /* \"#utility.yul\":5949:6236   */\n      pop\n        /* \"#utility.yul\":6275:6277   */\n      0x20\n        /* \"#utility.yul\":6301:6354   */\n      tag_238\n        /* \"#utility.yul\":6346:6353   */\n      dup7\n        /* \"#utility.yul\":6337:6343   */\n      dup3\n        /* \"#utility.yul\":6326:6335   */\n      dup8\n        /* \"#utility.yul\":6322:6344   */\n      add\n        /* \"#utility.yul\":6301:6354   */\n      tag_122\n      jump\t// in\n    tag_238:\n        /* \"#utility.yul\":6291:6354   */\n      swap3\n      pop\n        /* \"#utility.yul\":6246:6364   */\n      pop\n        /* \"#utility.yul\":6431:6433   */\n      0x40\n        /* \"#utility.yul\":6420:6429   */\n      dup5\n        /* \"#utility.yul\":6416:6434   */\n      add\n        /* \"#utility.yul\":6403:6435   */\n      calldataload\n        /* \"#utility.yul\":6462:6480   */\n      0xffffffffffffffff\n        /* \"#utility.yul\":6454:6460   */\n      dup2\n        /* \"#utility.yul\":6451:6481   */\n      gt\n        /* \"#utility.yul\":6448:6565   */\n      iszero\n      tag_239\n      jumpi\n        /* \"#utility.yul\":6484:6563   */\n      tag_240\n      tag_119\n      jump\t// in\n    tag_240:\n        /* \"#utility.yul\":6448:6565   */\n    tag_239:\n        /* \"#utility.yul\":6589:6652   */\n      tag_241\n        /* \"#utility.yul\":6644:6651   */\n      dup7\n        /* \"#utility.yul\":6635:6641   */\n      dup3\n        /* \"#utility.yul\":6624:6633   */\n      dup8\n        /* \"#utility.yul\":6620:6642   */\n      add\n        /* \"#utility.yul\":6589:6652   */\n      tag_138\n      jump\t// in\n    tag_241:\n        /* \"#utility.yul\":6579:6652   */\n      swap2\n      pop\n        /* \"#utility.yul\":6374:6662   */\n      pop\n        /* \"#utility.yul\":5690:6669   */\n      swap3\n      pop\n      swap3\n      pop\n      swap3\n      jump\t// out\n        /* \"#utility.yul\":6675:6793   */\n    tag_139:\n        /* \"#utility.yul\":6762:6786   */\n      tag_243\n        /* \"#utility.yul\":6780:6785   */\n      dup2\n        /* \"#utility.yul\":6762:6786   */\n      tag_120\n      jump\t// in\n    tag_243:\n        /* \"#utility.yul\":6757:6760   */\n      dup3\n        /* \"#utility.yul\":6750:6787   */\n      mstore\n        /* \"#utility.yul\":6675:6793   */\n      pop\n      pop\n      jump\t// out\n        /* \"#utility.yul\":6799:6968   */\n    tag_140:\n        /* \"#utility.yul\":6883:6894   */\n      0x00\n        /* \"#utility.yul\":6917:6923   */\n      dup3\n        /* \"#utility.yul\":6912:6915   */\n      dup3\n        /* \"#utility.yul\":6905:6924   */\n      mstore\n        /* \"#utility.yul\":6957:6961   */\n      0x20\n        /* \"#utility.yul\":6952:6955   */\n      dup3\n        /* \"#utility.yul\":6948:6962   */\n      add\n        /* \"#utility.yul\":6933:6962   */\n      swap1\n      pop\n        /* \"#utility.yul\":6799:6968   */\n      swap3\n      swap2\n      pop\n      pop\n      jump\t// out\n        /* \"#utility.yul\":6974:7351   */\n    tag_141:\n        /* \"#utility.yul\":7062:7065   */\n      0x00\n        /* \"#utility.yul\":7090:7129   */\n      tag_246\n        /* \"#utility.yul\":7123:7128   */\n      dup3\n        /* \"#utility.yul\":7090:7129   */\n      tag_124\n      jump\t// in\n    tag_246:\n        /* \"#utility.yul\":7145:7216   */\n      tag_247\n        /* \"#utility.yul\":7209:7215   */\n      dup2\n        /* \"#utility.yul\":7204:7207   */\n      dup6\n        /* \"#utility.yul\":7145:7216   */\n      tag_140\n      jump\t// in\n    tag_247:\n        /* \"#utility.yul\":7138:7216   */\n      swap4\n      pop\n        /* \"#utility.yul\":7225:7290   */\n      tag_248\n        /* \"#utility.yul\":7283:7289   */\n      dup2\n        /* \"#utility.yul\":7278:7281   */\n      dup6\n        /* \"#utility.yul\":7271:7275   */\n      0x20\n        /* \"#utility.yul\":7264:7269   */\n      dup7\n        /* \"#utility.yul\":7260:7276   */\n      add\n        /* \"#utility.yul\":7225:7290   */\n      tag_126\n      jump\t// in\n    tag_248:\n        /* \"#utility.yul\":7315:7344   */\n      tag_249\n        /* \"#utility.yul\":7337:7343   */\n      dup2\n        /* \"#utility.yul\":7315:7344   */\n      tag_127\n      jump\t// in\n    tag_249:\n        /* \"#utility.yul\":7310:7313   */\n      dup5\n        /* \"#utility.yul\":7306:7345   */\n      add\n        /* \"#utility.yul\":7299:7345   */\n      swap2\n      pop\n        /* \"#utility.yul\":7066:7351   */\n      pop\n        /* \"#utility.yul\":6974:7351   */\n      swap3\n      swap2\n      pop\n      pop\n      jump\t// out\n        /* \"#utility.yul\":7357:8092   */\n    tag_26:\n        /* \"#utility.yul\":7574:7578   */\n      0x00\n        /* \"#utility.yul\":7612:7615   */\n      0x80\n        /* \"#utility.yul\":7601:7610   */\n      dup3\n        /* \"#utility.yul\":7597:7616   */\n      add\n        /* \"#utility.yul\":7589:7616   */\n      swap1\n      pop\n        /* \"#utility.yul\":7626:7697   */\n      tag_251\n        /* \"#utility.yul\":7694:7695   */\n      0x00\n        /* \"#utility.yul\":7683:7692   */\n      dup4\n        /* \"#utility.yul\":7679:7696   */\n      add\n        /* \"#utility.yul\":7670:7676   */\n      dup8\n        /* \"#utility.yul\":7626:7697   */\n      tag_139\n      jump\t// in\n    tag_251:\n        /* \"#utility.yul\":7744:7753   */\n      dup2\n        /* \"#utility.yul\":7738:7742   */\n      dup2\n        /* \"#utility.yul\":7734:7754   */\n      sub\n        /* \"#utility.yul\":7729:7731   */\n      0x20\n        /* \"#utility.yul\":7718:7727   */\n      dup4\n        /* \"#utility.yul\":7714:7732   */\n      add\n        /* \"#utility.yul\":7707:7755   */\n      mstore\n        /* \"#utility.yul\":7772:7850   */\n      tag_252\n        /* \"#utility.yul\":7845:7849   */\n      dup2\n        /* \"#utility.yul\":7836:7842   */\n      dup7\n        /* \"#utility.yul\":7772:7850   */\n      tag_141\n      jump\t// in\n    tag_252:\n        /* \"#utility.yul\":7764:7850   */\n      swap1\n      pop\n        /* \"#utility.yul\":7860:7932   */\n      tag_253\n        /* \"#utility.yul\":7928:7930   */\n      0x40\n        /* \"#utility.yul\":7917:7926   */\n      dup4\n        /* \"#utility.yul\":7913:7931   */\n      add\n        /* \"#utility.yul\":7904:7910   */\n      dup6\n        /* \"#utility.yul\":7860:7932   */\n      tag_139\n      jump\t// in\n    tag_253:\n        /* \"#utility.yul\":7979:7988   */\n      dup2\n        /* \"#utility.yul\":7973:7977   */\n      dup2\n        /* \"#utility.yul\":7969:7989   */\n      sub\n        /* \"#utility.yul\":7964:7966   */\n      0x60\n        /* \"#utility.yul\":7953:7962   */\n      dup4\n        /* \"#utility.yul\":7949:7967   */\n      add\n        /* \"#utility.yul\":7942:7990   */\n      mstore\n        /* \"#utility.yul\":8007:8085   */\n      tag_254\n        /* \"#utility.yul\":8080:8084   */\n      dup2\n        /* \"#utility.yul\":8071:8077   */\n      dup5\n        /* \"#utility.yul\":8007:8085   */\n      tag_141\n      jump\t// in\n    tag_254:\n        /* \"#utility.yul\":7999:8085   */\n      swap1\n      pop\n        /* \"#utility.yul\":7357:8092   */\n      swap6\n      swap5\n      pop\n      pop\n      pop\n      pop\n      pop\n      jump\t// out\n        /* \"#utility.yul\":8098:9223   */\n    tag_29:\n        /* \"#utility.yul\":8204:8210   */\n      0x00\n        /* \"#utility.yul\":8212:8218   */\n      dup1\n        /* \"#utility.yul\":8220:8226   */\n      0x00\n        /* \"#utility.yul\":8228:8234   */\n      dup1\n        /* \"#utility.yul\":8277:8280   */\n      0x80\n        /* \"#utility.yul\":8265:8274   */\n      dup6\n        /* \"#utility.yul\":8256:8263   */\n      dup8\n        /* \"#utility.yul\":8252:8275   */\n      sub\n        /* \"#utility.yul\":8248:8281   */\n      slt\n        /* \"#utility.yul\":8245:8365   */\n      iszero\n      tag_256\n      jumpi\n        /* \"#utility.yul\":8284:8363   */\n      tag_257\n      tag_118\n      jump\t// in\n    tag_257:\n        /* \"#utility.yul\":8245:8365   */\n    tag_256:\n        /* \"#utility.yul\":8404:8405   */\n      0x00\n        /* \"#utility.yul\":8429:8482   */\n      tag_258\n        /* \"#utility.yul\":8474:8481   */\n      dup8\n        /* \"#utility.yul\":8465:8471   */\n      dup3\n        /* \"#utility.yul\":8454:8463   */\n      dup9\n        /* \"#utility.yul\":8450:8472   */\n      add\n        /* \"#utility.yul\":8429:8482   */\n      tag_122\n      jump\t// in\n    tag_258:\n        /* \"#utility.yul\":8419:8482   */\n      swap5\n      pop\n        /* \"#utility.yul\":8375:8492   */\n      pop\n        /* \"#utility.yul\":8559:8561   */\n      0x20\n        /* \"#utility.yul\":8548:8557   */\n      dup6\n        /* \"#utility.yul\":8544:8562   */\n      add\n        /* \"#utility.yul\":8531:8563   */\n      calldataload\n        /* \"#utility.yul\":8590:8608   */\n      0xffffffffffffffff\n        /* \"#utility.yul\":8582:8588   */\n      dup2\n        /* \"#utility.yul\":8579:8609   */\n      gt\n        /* \"#utility.yul\":8576:8693   */\n      iszero\n      tag_259\n      jumpi\n        /* \"#utility.yul\":8612:8691   */\n      tag_260\n      tag_119\n      jump\t// in\n    tag_260:\n        /* \"#utility.yul\":8576:8693   */\n    tag_259:\n        /* \"#utility.yul\":8717:8780   */\n      tag_261\n        /* \"#utility.yul\":8772:8779   */\n      dup8\n        /* \"#utility.yul\":8763:8769   */\n      dup3\n        /* \"#utility.yul\":8752:8761   */\n      dup9\n        /* \"#utility.yul\":8748:8770   */\n      add\n        /* \"#utility.yul\":8717:8780   */\n      tag_138\n      jump\t// in\n    tag_261:\n        /* \"#utility.yul\":8707:8780   */\n      swap4\n      pop\n        /* \"#utility.yul\":8502:8790   */\n      pop\n        /* \"#utility.yul\":8829:8831   */\n      0x40\n        /* \"#utility.yul\":8855:8908   */\n      tag_262\n        /* \"#utility.yul\":8900:8907   */\n      dup8\n        /* \"#utility.yul\":8891:8897   */\n      dup3\n        /* \"#utility.yul\":8880:8889   */\n      dup9\n        /* \"#utility.yul\":8876:8898   */\n      add\n        /* \"#utility.yul\":8855:8908   */\n      tag_122\n      jump\t// in\n    tag_262:\n        /* \"#utility.yul\":8845:8908   */\n      swap3\n      pop\n        /* \"#utility.yul\":8800:8918   */\n      pop\n        /* \"#utility.yul\":8985:8987   */\n      0x60\n        /* \"#utility.yul\":8974:8983   */\n      dup6\n        /* \"#utility.yul\":8970:8988   */\n      add\n        /* \"#utility.yul\":8957:8989   */\n      calldataload\n        /* \"#utility.yul\":9016:9034   */\n      0xffffffffffffffff\n        /* \"#utility.yul\":9008:9014   */\n      dup2\n        /* \"#utility.yul\":9005:9035   */\n      gt\n        /* \"#utility.yul\":9002:9119   */\n      iszero\n      tag_263\n      jumpi\n        /* \"#utility.yul\":9038:9117   */\n      tag_264\n      tag_119\n      jump\t// in\n    tag_264:\n        /* \"#utility.yul\":9002:9119   */\n    tag_263:\n        /* \"#utility.yul\":9143:9206   */\n      tag_265\n        /* \"#utility.yul\":9198:9205   */\n      dup8\n        /* \"#utility.yul\":9189:9195   */\n      dup3\n        /* \"#utility.yul\":9178:9187   */\n      dup9\n        /* \"#utility.yul\":9174:9196   */\n      add\n        /* \"#utility.yul\":9143:9206   */\n      tag_138\n      jump\t// in\n    tag_265:\n        /* \"#utility.yul\":9133:9206   */\n      swap2\n      pop\n        /* \"#utility.yul\":8928:9216   */\n      pop\n        /* \"#utility.yul\":8098:9223   */\n      swap3\n      swap6\n      swap2\n      swap5\n      pop\n      swap3\n      pop\n      jump\t// out\n        /* \"#utility.yul\":9229:9355   */\n    tag_142:\n        /* \"#utility.yul\":9266:9273   */\n      0x00\n        /* \"#utility.yul\":9306:9348   */\n      0xffffffffffffffffffffffffffffffffffffffff\n        /* \"#utility.yul\":9299:9304   */\n      dup3\n        /* \"#utility.yul\":9295:9349   */\n      and\n        /* \"#utility.yul\":9284:9349   */\n      swap1\n      pop\n        /* \"#utility.yul\":9229:9355   */\n      swap2\n      swap1\n      pop\n      jump\t// out\n        /* \"#utility.yul\":9361:9457   */\n    tag_143:\n        /* \"#utility.yul\":9398:9405   */\n      0x00\n        /* \"#utility.yul\":9427:9451   */\n      tag_268\n        /* \"#utility.yul\":9445:9450   */\n      dup3\n        /* \"#utility.yul\":9427:9451   */\n      tag_142\n      jump\t// in\n    tag_268:\n        /* \"#utility.yul\":9416:9451   */\n      swap1\n      pop\n        /* \"#utility.yul\":9361:9457   */\n      swap2\n      swap1\n      pop\n      jump\t// out\n        /* \"#utility.yul\":9463:9581   */\n    tag_144:\n        /* \"#utility.yul\":9550:9574   */\n      tag_270\n        /* \"#utility.yul\":9568:9573   */\n      dup2\n        /* \"#utility.yul\":9550:9574   */\n      tag_143\n      jump\t// in\n    tag_270:\n        /* \"#utility.yul\":9545:9548   */\n      dup3\n        /* \"#utility.yul\":9538:9575   */\n      mstore\n        /* \"#utility.yul\":9463:9581   */\n      pop\n      pop\n      jump\t// out\n        /* \"#utility.yul\":9587:9809   */\n    tag_34:\n        /* \"#utility.yul\":9680:9684   */\n      0x00\n        /* \"#utility.yul\":9718:9720   */\n      0x20\n        /* \"#utility.yul\":9707:9716   */\n      dup3\n        /* \"#utility.yul\":9703:9721   */\n      add\n        /* \"#utility.yul\":9695:9721   */\n      swap1\n      pop\n        /* \"#utility.yul\":9731:9802   */\n      tag_272\n        /* \"#utility.yul\":9799:9800   */\n      0x00\n        /* \"#utility.yul\":9788:9797   */\n      dup4\n        /* \"#utility.yul\":9784:9801   */\n      add\n        /* \"#utility.yul\":9775:9781   */\n      dup5\n        /* \"#utility.yul\":9731:9802   */\n      tag_144\n      jump\t// in\n    tag_272:\n        /* \"#utility.yul\":9587:9809   */\n      swap3\n      swap2\n      pop\n      pop\n      jump\t// out\n        /* \"#utility.yul\":9815:9985   */\n    tag_145:\n        /* \"#utility.yul\":9955:9977   */\n      0x42756b7520746964616b20646974656d756b616e000000000000000000000000\n        /* \"#utility.yul\":9951:9952   */\n      0x00\n        /* \"#utility.yul\":9943:9949   */\n      dup3\n        /* \"#utility.yul\":9939:9953   */\n      add\n        /* \"#utility.yul\":9932:9978   */\n      mstore\n        /* \"#utility.yul\":9815:9985   */\n      pop\n      jump\t// out\n        /* \"#utility.yul\":9991:10357   */\n    tag_146:\n        /* \"#utility.yul\":10133:10136   */\n      0x00\n        /* \"#utility.yul\":10154:10221   */\n      tag_275\n        /* \"#utility.yul\":10218:10220   */\n      0x14\n        /* \"#utility.yul\":10213:10216   */\n      dup4\n        /* \"#utility.yul\":10154:10221   */\n      tag_140\n      jump\t// in\n    tag_275:\n        /* \"#utility.yul\":10147:10221   */\n      swap2\n      pop\n        /* \"#utility.yul\":10230:10323   */\n      tag_276\n        /* \"#utility.yul\":10319:10322   */\n      dup3\n        /* \"#utility.yul\":10230:10323   */\n      tag_145\n      jump\t// in\n    tag_276:\n        /* \"#utility.yul\":10348:10350   */\n      0x20\n        /* \"#utility.yul\":10343:10346   */\n      dup3\n        /* \"#utility.yul\":10339:10351   */\n      add\n        /* \"#utility.yul\":10332:10351   */\n      swap1\n      pop\n        /* \"#utility.yul\":9991:10357   */\n      swap2\n      swap1\n      pop\n      jump\t// out\n        /* \"#utility.yul\":10363:10782   */\n    tag_40:\n        /* \"#utility.yul\":10529:10533   */\n      0x00\n        /* \"#utility.yul\":10567:10569   */\n      0x20\n        /* \"#utility.yul\":10556:10565   */\n      dup3\n        /* \"#utility.yul\":10552:10570   */\n      add\n        /* \"#utility.yul\":10544:10570   */\n      swap1\n      pop\n        /* \"#utility.yul\":10616:10625   */\n      dup2\n        /* \"#utility.yul\":10610:10614   */\n      dup2\n        /* \"#utility.yul\":10606:10626   */\n      sub\n        /* \"#utility.yul\":10602:10603   */\n      0x00\n        /* \"#utility.yul\":10591:10600   */\n      dup4\n        /* \"#utility.yul\":10587:10604   */\n      add\n        /* \"#utility.yul\":10580:10627   */\n      mstore\n        /* \"#utility.yul\":10644:10775   */\n      tag_278\n        /* \"#utility.yul\":10770:10774   */\n      dup2\n        /* \"#utility.yul\":10644:10775   */\n      tag_146\n      jump\t// in\n    tag_278:\n        /* \"#utility.yul\":10636:10775   */\n      swap1\n      pop\n        /* \"#utility.yul\":10363:10782   */\n      swap2\n      swap1\n      pop\n      jump\t// out\n        /* \"#utility.yul\":10788:10968   */\n    tag_147:\n        /* \"#utility.yul\":10836:10913   */\n      0x4e487b7100000000000000000000000000000000000000000000000000000000\n        /* \"#utility.yul\":10833:10834   */\n      0x00\n        /* \"#utility.yul\":10826:10914   */\n      mstore\n        /* \"#utility.yul\":10933:10937   */\n      0x22\n        /* \"#utility.yul\":10930:10931   */\n      0x04\n        /* \"#utility.yul\":10923:10938   */\n      mstore\n        /* \"#utility.yul\":10957:10961   */\n      0x24\n        /* \"#utility.yul\":10954:10955   */\n      0x00\n        /* \"#utility.yul\":10947:10962   */\n      revert\n        /* \"#utility.yul\":10974:11294   */\n    tag_42:\n        /* \"#utility.yul\":11018:11024   */\n      0x00\n        /* \"#utility.yul\":11055:11056   */\n      0x02\n        /* \"#utility.yul\":11049:11053   */\n      dup3\n        /* \"#utility.yul\":11045:11057   */\n      div\n        /* \"#utility.yul\":11035:11057   */\n      swap1\n      pop\n        /* \"#utility.yul\":11102:11103   */\n      0x01\n        /* \"#utility.yul\":11096:11100   */\n      dup3\n        /* \"#utility.yul\":11092:11104   */\n      and\n        /* \"#utility.yul\":11123:11141   */\n      dup1\n        /* \"#utility.yul\":11113:11194   */\n      tag_281\n      jumpi\n        /* \"#utility.yul\":11179:11183   */\n      0x7f\n        /* \"#utility.yul\":11171:11177   */\n      dup3\n        /* \"#utility.yul\":11167:11184   */\n      and\n        /* \"#utility.yul\":11157:11184   */\n      swap2\n      pop\n        /* \"#utility.yul\":11113:11194   */\n    tag_281:\n        /* \"#utility.yul\":11241:11243   */\n      0x20\n        /* \"#utility.yul\":11233:11239   */\n      dup3\n        /* \"#utility.yul\":11230:11244   */\n      lt\n        /* \"#utility.yul\":11210:11228   */\n      dup2\n        /* \"#utility.yul\":11207:11245   */\n      sub\n        /* \"#utility.yul\":11204:11288   */\n      tag_282\n      jumpi\n        /* \"#utility.yul\":11260:11278   */\n      tag_283\n      tag_147\n      jump\t// in\n    tag_283:\n        /* \"#utility.yul\":11204:11288   */\n    tag_282:\n        /* \"#utility.yul\":11025:11294   */\n      pop\n        /* \"#utility.yul\":10974:11294   */\n      swap2\n      swap1\n      pop\n      jump\t// out\n        /* \"#utility.yul\":11300:11532   */\n    tag_148:\n        /* \"#utility.yul\":11440:11474   */\n      0x48616e79612061646d696e2079616e67206461706174206d656c616b756b616e\n        /* \"#utility.yul\":11436:11437   */\n      0x00\n        /* \"#utility.yul\":11428:11434   */\n      dup3\n        /* \"#utility.yul\":11424:11438   */\n      add\n        /* \"#utility.yul\":11417:11475   */\n      mstore\n        /* \"#utility.yul\":11509:11524   */\n      0x2074696e64616b616e20696e6900000000000000000000000000000000000000\n        /* \"#utility.yul\":11504:11506   */\n      0x20\n        /* \"#utility.yul\":11496:11502   */\n      dup3\n        /* \"#utility.yul\":11492:11507   */\n      add\n        /* \"#utility.yul\":11485:11525   */\n      mstore\n        /* \"#utility.yul\":11300:11532   */\n      pop\n      jump\t// out\n        /* \"#utility.yul\":11538:11904   */\n    tag_149:\n        /* \"#utility.yul\":11680:11683   */\n      0x00\n        /* \"#utility.yul\":11701:11768   */\n      tag_286\n        /* \"#utility.yul\":11765:11767   */\n      0x2d\n        /* \"#utility.yul\":11760:11763   */\n      dup4\n        /* \"#utility.yul\":11701:11768   */\n      tag_140\n      jump\t// in\n    tag_286:\n        /* \"#utility.yul\":11694:11768   */\n      swap2\n      pop\n        /* \"#utility.yul\":11777:11870   */\n      tag_287\n        /* \"#utility.yul\":11866:11869   */\n      dup3\n        /* \"#utility.yul\":11777:11870   */\n      tag_148\n      jump\t// in\n    tag_287:\n        /* \"#utility.yul\":11895:11897   */\n      0x40\n        /* \"#utility.yul\":11890:11893   */\n      dup3\n        /* \"#utility.yul\":11886:11898   */\n      add\n        /* \"#utility.yul\":11879:11898   */\n      swap1\n      pop\n        /* \"#utility.yul\":11538:11904   */\n      swap2\n      swap1\n      pop\n      jump\t// out\n        /* \"#utility.yul\":11910:12329   */\n    tag_55:\n        /* \"#utility.yul\":12076:12080   */\n      0x00\n        /* \"#utility.yul\":12114:12116   */\n      0x20\n        /* \"#utility.yul\":12103:12112   */\n      dup3\n        /* \"#utility.yul\":12099:12117   */\n      add\n        /* \"#utility.yul\":12091:12117   */\n      swap1\n      pop\n        /* \"#utility.yul\":12163:12172   */\n      dup2\n        /* \"#utility.yul\":12157:12161   */\n      dup2\n        /* \"#utility.yul\":12153:12173   */\n      sub\n        /* \"#utility.yul\":12149:12150   */\n      0x00\n        /* \"#utility.yul\":12138:12147   */\n      dup4\n        /* \"#utility.yul\":12134:12151   */\n      add\n        /* \"#utility.yul\":12127:12174   */\n      mstore\n        /* \"#utility.yul\":12191:12322   */\n      tag_289\n        /* \"#utility.yul\":12317:12321   */\n      dup2\n        /* \"#utility.yul\":12191:12322   */\n      tag_149\n      jump\t// in\n    tag_289:\n        /* \"#utility.yul\":12183:12322   */\n      swap1\n      pop\n        /* \"#utility.yul\":11910:12329   */\n      swap2\n      swap1\n      pop\n      jump\t// out\n        /* \"#utility.yul\":12335:12476   */\n    tag_150:\n        /* \"#utility.yul\":12384:12388   */\n      0x00\n        /* \"#utility.yul\":12407:12410   */\n      dup2\n        /* \"#utility.yul\":12399:12410   */\n      swap1\n      pop\n        /* \"#utility.yul\":12430:12433   */\n      dup2\n        /* \"#utility.yul\":12427:12428   */\n      0x00\n        /* \"#utility.yul\":12420:12434   */\n      mstore\n        /* \"#utility.yul\":12464:12468   */\n      0x20\n        /* \"#utility.yul\":12461:12462   */\n      0x00\n        /* \"#utility.yul\":12451:12469   */\n      keccak256\n        /* \"#utility.yul\":12443:12469   */\n      swap1\n      pop\n        /* \"#utility.yul\":12335:12476   */\n      swap2\n      swap1\n      pop\n      jump\t// out\n        /* \"#utility.yul\":12482:12575   */\n    tag_151:\n        /* \"#utility.yul\":12519:12525   */\n      0x00\n        /* \"#utility.yul\":12566:12568   */\n      0x20\n        /* \"#utility.yul\":12561:12563   */\n      0x1f\n        /* \"#utility.yul\":12554:12559   */\n      dup4\n        /* \"#utility.yul\":12550:12564   */\n      add\n        /* \"#utility.yul\":12546:12569   */\n      div\n        /* \"#utility.yul\":12536:12569   */\n      swap1\n      pop\n        /* \"#utility.yul\":12482:12575   */\n      swap2\n      swap1\n      pop\n      jump\t// out\n        /* \"#utility.yul\":12581:12688   */\n    tag_152:\n        /* \"#utility.yul\":12625:12633   */\n      0x00\n        /* \"#utility.yul\":12675:12680   */\n      dup3\n        /* \"#utility.yul\":12669:12673   */\n      dup3\n        /* \"#utility.yul\":12665:12681   */\n      shl\n        /* \"#utility.yul\":12644:12681   */\n      swap1\n      pop\n        /* \"#utility.yul\":12581:12688   */\n      swap3\n      swap2\n      pop\n      pop\n      jump\t// out\n        /* \"#utility.yul\":12694:13087   */\n    tag_153:\n        /* \"#utility.yul\":12763:12769   */\n      0x00\n        /* \"#utility.yul\":12813:12814   */\n      0x08\n        /* \"#utility.yul\":12801:12811   */\n      dup4\n        /* \"#utility.yul\":12797:12815   */\n      mul\n        /* \"#utility.yul\":12836:12933   */\n      tag_294\n        /* \"#utility.yul\":12866:12932   */\n      0xffffffffffffffffffffffffffffffffffffffffffffffffffffffffffffffff\n        /* \"#utility.yul\":12855:12864   */\n      dup3\n        /* \"#utility.yul\":12836:12933   */\n      tag_152\n      jump\t// in\n    tag_294:\n        /* \"#utility.yul\":12954:12993   */\n      tag_295\n        /* \"#utility.yul\":12984:12992   */\n      dup7\n        /* \"#utility.yul\":12973:12982   */\n      dup4\n        /* \"#utility.yul\":12954:12993   */\n      tag_152\n      jump\t// in\n    tag_295:\n        /* \"#utility.yul\":12942:12993   */\n      swap6\n      pop\n        /* \"#utility.yul\":13026:13030   */\n      dup1\n        /* \"#utility.yul\":13022:13031   */\n      not\n        /* \"#utility.yul\":13015:13020   */\n      dup5\n        /* \"#utility.yul\":13011:13032   */\n      and\n        /* \"#utility.yul\":13002:13032   */\n      swap4\n      pop\n        /* \"#utility.yul\":13075:13079   */\n      dup1\n        /* \"#utility.yul\":13065:13073   */\n      dup7\n        /* \"#utility.yul\":13061:13080   */\n      and\n        /* \"#utility.yul\":13054:13059   */\n      dup5\n        /* \"#utility.yul\":13051:13081   */\n      or\n        /* \"#utility.yul\":13041:13081   */\n      swap3\n      pop\n        /* \"#utility.yul\":12770:13087   */\n      pop\n      pop\n        /* \"#utility.yul\":12694:13087   */\n      swap4\n      swap3\n      pop\n      pop\n      pop\n      jump\t// out\n        /* \"#utility.yul\":13093:13153   */\n    tag_154:\n        /* \"#utility.yul\":13121:13124   */\n      0x00\n        /* \"#utility.yul\":13142:13147   */\n      dup2\n        /* \"#utility.yul\":13135:13147   */\n      swap1\n      pop\n        /* \"#utility.yul\":13093:13153   */\n      swap2\n      swap1\n      pop\n      jump\t// out\n        /* \"#utility.yul\":13159:13301   */\n    tag_155:\n        /* \"#utility.yul\":13209:13218   */\n      0x00\n        /* \"#utility.yul\":13242:13295   */\n      tag_298\n        /* \"#utility.yul\":13260:13294   */\n      tag_299\n        /* \"#utility.yul\":13269:13293   */\n      tag_300\n        /* \"#utility.yul\":13287:13292   */\n      dup5\n        /* \"#utility.yul\":13269:13293   */\n      tag_120\n      jump\t// in\n    tag_300:\n        /* \"#utility.yul\":13260:13294   */\n      tag_154\n      jump\t// in\n    tag_299:\n        /* \"#utility.yul\":13242:13295   */\n      tag_120\n      jump\t// in\n    tag_298:\n        /* \"#utility.yul\":13229:13295   */\n      swap1\n      pop\n        /* \"#utility.yul\":13159:13301   */\n      swap2\n      swap1\n      pop\n      jump\t// out\n        /* \"#utility.yul\":13307:13382   */\n    tag_156:\n        /* \"#utility.yul\":13350:13353   */\n      0x00\n        /* \"#utility.yul\":13371:13376   */\n      dup2\n        /* \"#utility.yul\":13364:13376   */\n      swap1\n      pop\n        /* \"#utility.yul\":13307:13382   */\n      swap2\n      swap1\n      pop\n      jump\t// out\n        /* \"#utility.yul\":13388:13657   */\n    tag_157:\n        /* \"#utility.yul\":13498:13537   */\n      tag_303\n        /* \"#utility.yul\":13529:13536   */\n      dup4\n        /* \"#utility.yul\":13498:13537   */\n      tag_155\n      jump\t// in\n    tag_303:\n        /* \"#utility.yul\":13559:13650   */\n      tag_304\n        /* \"#utility.yul\":13608:13649   */\n      tag_305\n        /* \"#utility.yul\":13632:13648   */\n      dup3\n        /* \"#utility.yul\":13608:13649   */\n      tag_156\n      jump\t// in\n    tag_305:\n        /* \"#utility.yul\":13600:13606   */\n      dup5\n        /* \"#utility.yul\":13593:13597   */\n      dup5\n        /* \"#utility.yul\":13587:13598   */\n      sload\n        /* \"#utility.yul\":13559:13650   */\n      tag_153\n      jump\t// in\n    tag_304:\n        /* \"#utility.yul\":13553:13557   */\n      dup3\n        /* \"#utility.yul\":13546:13651   */\n      sstore\n        /* \"#utility.yul\":13464:13657   */\n      pop\n        /* \"#utility.yul\":13388:13657   */\n      pop\n      pop\n      pop\n      jump\t// out\n        /* \"#utility.yul\":13663:13736   */\n    tag_158:\n        /* \"#utility.yul\":13708:13711   */\n      0x00\n        /* \"#utility.yul\":13663:13736   */\n      swap1\n      jump\t// out\n        /* \"#utility.yul\":13742:13931   */\n    tag_159:\n        /* \"#utility.yul\":13819:13851   */\n      tag_308\n      tag_158\n      jump\t// in\n    tag_308:\n        /* \"#utility.yul\":13860:13925   */\n      tag_309\n        /* \"#utility.yul\":13918:13924   */\n      dup2\n        /* \"#utility.yul\":13910:13916   */\n      dup5\n        /* \"#utility.yul\":13904:13908   */\n      dup5\n        /* \"#utility.yul\":13860:13925   */\n      tag_157\n      jump\t// in\n    tag_309:\n        /* \"#utility.yul\":13795:13931   */\n      pop\n        /* \"#utility.yul\":13742:13931   */\n      pop\n      pop\n      jump\t// out\n        /* \"#utility.yul\":13937:14123   */\n    tag_160:\n        /* \"#utility.yul\":13997:14117   */\n    tag_311:\n        /* \"#utility.yul\":14014:14017   */\n      dup2\n        /* \"#utility.yul\":14007:14012   */\n      dup2\n        /* \"#utility.yul\":14004:14018   */\n      lt\n        /* \"#utility.yul\":13997:14117   */\n      iszero\n      tag_313\n      jumpi\n        /* \"#utility.yul\":14068:14107   */\n      tag_314\n        /* \"#utility.yul\":14105:14106   */\n      0x00\n        /* \"#utility.yul\":14098:14103   */\n      dup3\n        /* \"#utility.yul\":14068:14107   */\n      tag_159\n      jump\t// in\n    tag_314:\n        /* \"#utility.yul\":14041:14042   */\n      0x01\n        /* \"#utility.yul\":14034:14039   */\n      dup2\n        /* \"#utility.yul\":14030:14043   */\n      add\n        /* \"#utility.yul\":14021:14043   */\n      swap1\n      pop\n        /* \"#utility.yul\":13997:14117   */\n      jump(tag_311)\n    tag_313:\n        /* \"#utility.yul\":13937:14123   */\n      pop\n      pop\n      jump\t// out\n        /* \"#utility.yul\":14129:14672   */\n    tag_161:\n        /* \"#utility.yul\":14230:14232   */\n      0x1f\n        /* \"#utility.yul\":14225:14228   */\n      dup3\n        /* \"#utility.yul\":14222:14233   */\n      gt\n        /* \"#utility.yul\":14219:14665   */\n      iszero\n      tag_316\n      jumpi\n        /* \"#utility.yul\":14264:14302   */\n      tag_317\n        /* \"#utility.yul\":14296:14301   */\n      dup2\n        /* \"#utility.yul\":14264:14302   */\n      tag_150\n      jump\t// in\n    tag_317:\n        /* \"#utility.yul\":14348:14377   */\n      tag_318\n        /* \"#utility.yul\":14366:14376   */\n      dup5\n        /* \"#utility.yul\":14348:14377   */\n      tag_151\n      jump\t// in\n    tag_318:\n        /* \"#utility.yul\":14338:14346   */\n      dup2\n        /* \"#utility.yul\":14334:14378   */\n      add\n        /* \"#utility.yul\":14531:14533   */\n      0x20\n        /* \"#utility.yul\":14519:14529   */\n      dup6\n        /* \"#utility.yul\":14516:14534   */\n      lt\n        /* \"#utility.yul\":14513:14562   */\n      iszero\n      tag_319\n      jumpi\n        /* \"#utility.yul\":14552:14560   */\n      dup2\n        /* \"#utility.yul\":14537:14560   */\n      swap1\n      pop\n        /* \"#utility.yul\":14513:14562   */\n    tag_319:\n        /* \"#utility.yul\":14575:14655   */\n      tag_320\n        /* \"#utility.yul\":14631:14653   */\n      tag_321\n        /* \"#utility.yul\":14649:14652   */\n      dup6\n        /* \"#utility.yul\":14631:14653   */\n      tag_151\n      jump\t// in\n    tag_321:\n        /* \"#utility.yul\":14621:14629   */\n      dup4\n        /* \"#utility.yul\":14617:14654   */\n      add\n        /* \"#utility.yul\":14604:14615   */\n      dup3\n        /* \"#utility.yul\":14575:14655   */\n      tag_160\n      jump\t// in\n    tag_320:\n        /* \"#utility.yul\":14234:14665   */\n      pop\n      pop\n        /* \"#utility.yul\":14219:14665   */\n    tag_316:\n        /* \"#utility.yul\":14129:14672   */\n      pop\n      pop\n      pop\n      jump\t// out\n        /* \"#utility.yul\":14678:14795   */\n    tag_162:\n        /* \"#utility.yul\":14732:14740   */\n      0x00\n        /* \"#utility.yul\":14782:14787   */\n      dup3\n        /* \"#utility.yul\":14776:14780   */\n      dup3\n        /* \"#utility.yul\":14772:14788   */\n      shr\n        /* \"#utility.yul\":14751:14788   */\n      swap1\n      pop\n        /* \"#utility.yul\":14678:14795   */\n      swap3\n      swap2\n      pop\n      pop\n      jump\t// out\n        /* \"#utility.yul\":14801:14970   */\n    tag_163:\n        /* \"#utility.yul\":14845:14851   */\n      0x00\n        /* \"#utility.yul\":14878:14929   */\n      tag_324\n        /* \"#utility.yul\":14926:14927   */\n      0x00\n        /* \"#utility.yul\":14922:14928   */\n      not\n        /* \"#utility.yul\":14914:14919   */\n      dup5\n        /* \"#utility.yul\":14911:14912   */\n      0x08\n        /* \"#utility.yul\":14907:14920   */\n      mul\n        /* \"#utility.yul\":14878:14929   */\n      tag_162\n      jump\t// in\n    tag_324:\n        /* \"#utility.yul\":14874:14930   */\n      not\n        /* \"#utility.yul\":14959:14963   */\n      dup1\n        /* \"#utility.yul\":14953:14957   */\n      dup4\n        /* \"#utility.yul\":14949:14964   */\n      and\n        /* \"#utility.yul\":14939:14964   */\n      swap2\n      pop\n        /* \"#utility.yul\":14852:14970   */\n      pop\n        /* \"#utility.yul\":14801:14970   */\n      swap3\n      swap2\n      pop\n      pop\n      jump\t// out\n        /* \"#utility.yul\":14975:15270   */\n    tag_164:\n        /* \"#utility.yul\":15051:15055   */\n      0x00\n        /* \"#utility.yul\":15197:15226   */\n      tag_326\n        /* \"#utility.yul\":15222:15225   */\n      dup4\n        /* \"#utility.yul\":15216:15220   */\n      dup4\n        /* \"#utility.yul\":15197:15226   */\n      tag_163\n      jump\t// in\n    tag_326:\n        /* \"#utility.yul\":15189:15226   */\n      swap2\n      pop\n        /* \"#utility.yul\":15259:15262   */\n      dup3\n        /* \"#utility.yul\":15256:15257   */\n      0x02\n        /* \"#utility.yul\":15252:15263   */\n      mul\n        /* \"#utility.yul\":15246:15250   */\n      dup3\n        /* \"#utility.yul\":15243:15264   */\n      or\n        /* \"#utility.yul\":15235:15264   */\n      swap1\n      pop\n        /* \"#utility.yul\":14975:15270   */\n      swap3\n      swap2\n      pop\n      pop\n      jump\t// out\n        /* \"#utility.yul\":15275:16670   */\n    tag_80:\n        /* \"#utility.yul\":15392:15429   */\n      tag_328\n        /* \"#utility.yul\":15425:15428   */\n      dup3\n        /* \"#utility.yul\":15392:15429   */\n      tag_124\n      jump\t// in\n    tag_328:\n        /* \"#utility.yul\":15494:15512   */\n      0xffffffffffffffff\n        /* \"#utility.yul\":15486:15492   */\n      dup2\n        /* \"#utility.yul\":15483:15513   */\n      gt\n        /* \"#utility.yul\":15480:15536   */\n      iszero\n      tag_329\n      jumpi\n        /* \"#utility.yul\":15516:15534   */\n      tag_330\n      tag_132\n      jump\t// in\n    tag_330:\n        /* \"#utility.yul\":15480:15536   */\n    tag_329:\n        /* \"#utility.yul\":15560:15598   */\n      tag_331\n        /* \"#utility.yul\":15592:15596   */\n      dup3\n        /* \"#utility.yul\":15586:15597   */\n      sload\n        /* \"#utility.yul\":15560:15598   */\n      tag_42\n      jump\t// in\n    tag_331:\n        /* \"#utility.yul\":15645:15712   */\n      tag_332\n        /* \"#utility.yul\":15705:15711   */\n      dup3\n        /* \"#utility.yul\":15697:15703   */\n      dup3\n        /* \"#utility.yul\":15691:15695   */\n      dup6\n        /* \"#utility.yul\":15645:15712   */\n      tag_161\n      jump\t// in\n    tag_332:\n        /* \"#utility.yul\":15739:15740   */\n      0x00\n        /* \"#utility.yul\":15763:15767   */\n      0x20\n        /* \"#utility.yul\":15750:15767   */\n      swap1\n      pop\n        /* \"#utility.yul\":15795:15797   */\n      0x1f\n        /* \"#utility.yul\":15787:15793   */\n      dup4\n        /* \"#utility.yul\":15784:15798   */\n      gt\n        /* \"#utility.yul\":15812:15813   */\n      0x01\n        /* \"#utility.yul\":15807:16425   */\n      dup2\n      eq\n      tag_334\n      jumpi\n        /* \"#utility.yul\":16469:16470   */\n      0x00\n        /* \"#utility.yul\":16486:16492   */\n      dup5\n        /* \"#utility.yul\":16483:16560   */\n      iszero\n      tag_335\n      jumpi\n        /* \"#utility.yul\":16535:16544   */\n      dup3\n        /* \"#utility.yul\":16530:16533   */\n      dup8\n        /* \"#utility.yul\":16526:16545   */\n      add\n        /* \"#utility.yul\":16520:16546   */\n      mload\n        /* \"#utility.yul\":16511:16546   */\n      swap1\n      pop\n        /* \"#utility.yul\":16483:16560   */\n    tag_335:\n        /* \"#utility.yul\":16586:16653   */\n      tag_336\n        /* \"#utility.yul\":16646:16652   */\n      dup6\n        /* \"#utility.yul\":16639:16644   */\n      dup3\n        /* \"#utility.yul\":16586:16653   */\n      tag_164\n      jump\t// in\n    tag_336:\n        /* \"#utility.yul\":16580:16584   */\n      dup7\n        /* \"#utility.yul\":16573:16654   */\n      sstore\n        /* \"#utility.yul\":16442:16664   */\n      pop\n        /* \"#utility.yul\":15777:16664   */\n      jump(tag_333)\n        /* \"#utility.yul\":15807:16425   */\n    tag_334:\n        /* \"#utility.yul\":15859:15863   */\n      0x1f\n        /* \"#utility.yul\":15855:15864   */\n      not\n        /* \"#utility.yul\":15847:15853   */\n      dup5\n        /* \"#utility.yul\":15843:15865   */\n      and\n        /* \"#utility.yul\":15893:15930   */\n      tag_337\n        /* \"#utility.yul\":15925:15929   */\n      dup7\n        /* \"#utility.yul\":15893:15930   */\n      tag_150\n      jump\t// in\n    tag_337:\n        /* \"#utility.yul\":15952:15953   */\n      0x00\n        /* \"#utility.yul\":15966:16174   */\n    tag_338:\n        /* \"#utility.yul\":15980:15987   */\n      dup3\n        /* \"#utility.yul\":15977:15978   */\n      dup2\n        /* \"#utility.yul\":15974:15988   */\n      lt\n        /* \"#utility.yul\":15966:16174   */\n      iszero\n      tag_340\n      jumpi\n        /* \"#utility.yul\":16059:16068   */\n      dup5\n        /* \"#utility.yul\":16054:16057   */\n      dup10\n        /* \"#utility.yul\":16050:16069   */\n      add\n        /* \"#utility.yul\":16044:16070   */\n      mload\n        /* \"#utility.yul\":16036:16042   */\n      dup3\n        /* \"#utility.yul\":16029:16071   */\n      sstore\n        /* \"#utility.yul\":16110:16111   */\n      0x01\n        /* \"#utility.yul\":16102:16108   */\n      dup3\n        /* \"#utility.yul\":16098:16112   */\n      add\n        /* \"#utility.yul\":16088:16112   */\n      swap2\n      pop\n        /* \"#utility.yul\":16157:16159   */\n      0x20\n        /* \"#utility.yul\":16146:16155   */\n      dup6\n        /* \"#utility.yul\":16142:16160   */\n      add\n        /* \"#utility.yul\":16129:16160   */\n      swap5\n      pop\n        /* \"#utility.yul\":16003:16007   */\n      0x20\n        /* \"#utility.yul\":16000:16001   */\n      dup2\n        /* \"#utility.yul\":15996:16008   */\n      add\n        /* \"#utility.yul\":15991:16008   */\n      swap1\n      pop\n        /* \"#utility.yul\":15966:16174   */\n      jump(tag_338)\n    tag_340:\n        /* \"#utility.yul\":16202:16208   */\n      dup7\n        /* \"#utility.yul\":16193:16200   */\n      dup4\n        /* \"#utility.yul\":16190:16209   */\n      lt\n        /* \"#utility.yul\":16187:16366   */\n      iszero\n      tag_341\n      jumpi\n        /* \"#utility.yul\":16260:16269   */\n      dup5\n        /* \"#utility.yul\":16255:16258   */\n      dup10\n        /* \"#utility.yul\":16251:16270   */\n      add\n        /* \"#utility.yul\":16245:16271   */\n      mload\n        /* \"#utility.yul\":16303:16351   */\n      tag_342\n        /* \"#utility.yul\":16345:16349   */\n      0x1f\n        /* \"#utility.yul\":16337:16343   */\n      dup10\n        /* \"#utility.yul\":16333:16350   */\n      and\n        /* \"#utility.yul\":16322:16331   */\n      dup3\n        /* \"#utility.yul\":16303:16351   */\n      tag_163\n      jump\t// in\n    tag_342:\n        /* \"#utility.yul\":16295:16301   */\n      dup4\n        /* \"#utility.yul\":16288:16352   */\n      sstore\n        /* \"#utility.yul\":16210:16366   */\n      pop\n        /* \"#utility.yul\":16187:16366   */\n    tag_341:\n        /* \"#utility.yul\":16412:16413   */\n      0x01\n        /* \"#utility.yul\":16408:16409   */\n      0x02\n        /* \"#utility.yul\":16400:16406   */\n      dup9\n        /* \"#utility.yul\":16396:16410   */\n      mul\n        /* \"#utility.yul\":16392:16414   */\n      add\n        /* \"#utility.yul\":16386:16390   */\n      dup9\n        /* \"#utility.yul\":16379:16415   */\n      sstore\n        /* \"#utility.yul\":15814:16425   */\n      pop\n      pop\n      pop\n        /* \"#utility.yul\":15777:16664   */\n    tag_333:\n      pop\n        /* \"#utility.yul\":15367:16670   */\n      pop\n      pop\n      pop\n        /* \"#utility.yul\":15275:16670   */\n      pop\n      pop\n      jump\t// out\n        /* \"#utility.yul\":16676:16755   */\n    tag_165:\n        /* \"#utility.yul\":16715:16722   */\n      0x00\n        /* \"#utility.yul\":16744:16749   */\n      dup2\n        /* \"#utility.yul\":16733:16749   */\n      swap1\n      pop\n        /* \"#utility.yul\":16676:16755   */\n      swap2\n      swap1\n      pop\n      jump\t// out\n        /* \"#utility.yul\":16761:16918   */\n    tag_166:\n        /* \"#utility.yul\":16866:16911   */\n      tag_345\n        /* \"#utility.yul\":16886:16910   */\n      tag_346\n        /* \"#utility.yul\":16904:16909   */\n      dup3\n        /* \"#utility.yul\":16886:16910   */\n      tag_120\n      jump\t// in\n    tag_346:\n        /* \"#utility.yul\":16866:16911   */\n      tag_165\n      jump\t// in\n    tag_345:\n        /* \"#utility.yul\":16861:16864   */\n      dup3\n        /* \"#utility.yul\":16854:16912   */\n      mstore\n        /* \"#utility.yul\":16761:16918   */\n      pop\n      pop\n      jump\t// out\n        /* \"#utility.yul\":16924:17018   */\n    tag_167:\n        /* \"#utility.yul\":16957:16965   */\n      0x00\n        /* \"#utility.yul\":17005:17010   */\n      dup2\n        /* \"#utility.yul\":17001:17003   */\n      0x60\n        /* \"#utility.yul\":16997:17011   */\n      shl\n        /* \"#utility.yul\":16976:17011   */\n      swap1\n      pop\n        /* \"#utility.yul\":16924:17018   */\n      swap2\n      swap1\n      pop\n      jump\t// out\n        /* \"#utility.yul\":17024:17118   */\n    tag_168:\n        /* \"#utility.yul\":17063:17070   */\n      0x00\n        /* \"#utility.yul\":17092:17112   */\n      tag_349\n        /* \"#utility.yul\":17106:17111   */\n      dup3\n        /* \"#utility.yul\":17092:17112   */\n      tag_167\n      jump\t// in\n    tag_349:\n        /* \"#utility.yul\":17081:17112   */\n      swap1\n      pop\n        /* \"#utility.yul\":17024:17118   */\n      swap2\n      swap1\n      pop\n      jump\t// out\n        /* \"#utility.yul\":17124:17224   */\n    tag_169:\n        /* \"#utility.yul\":17163:17170   */\n      0x00\n        /* \"#utility.yul\":17192:17218   */\n      tag_351\n        /* \"#utility.yul\":17212:17217   */\n      dup3\n        /* \"#utility.yul\":17192:17218   */\n      tag_168\n      jump\t// in\n    tag_351:\n        /* \"#utility.yul\":17181:17218   */\n      swap1\n      pop\n        /* \"#utility.yul\":17124:17224   */\n      swap2\n      swap1\n      pop\n      jump\t// out\n        /* \"#utility.yul\":17230:17387   */\n    tag_170:\n        /* \"#utility.yul\":17335:17380   */\n      tag_353\n        /* \"#utility.yul\":17355:17379   */\n      tag_354\n        /* \"#utility.yul\":17373:17378   */\n      dup3\n        /* \"#utility.yul\":17355:17379   */\n      tag_143\n      jump\t// in\n    tag_354:\n        /* \"#utility.yul\":17335:17380   */\n      tag_169\n      jump\t// in\n    tag_353:\n        /* \"#utility.yul\":17330:17333   */\n      dup3\n        /* \"#utility.yul\":17323:17381   */\n      mstore\n        /* \"#utility.yul\":17230:17387   */\n      pop\n      pop\n      jump\t// out\n        /* \"#utility.yul\":17393:17931   */\n    tag_104:\n        /* \"#utility.yul\":17561:17564   */\n      0x00\n        /* \"#utility.yul\":17576:17651   */\n      tag_356\n        /* \"#utility.yul\":17647:17650   */\n      dup3\n        /* \"#utility.yul\":17638:17644   */\n      dup7\n        /* \"#utility.yul\":17576:17651   */\n      tag_166\n      jump\t// in\n    tag_356:\n        /* \"#utility.yul\":17676:17678   */\n      0x20\n        /* \"#utility.yul\":17671:17674   */\n      dup3\n        /* \"#utility.yul\":17667:17679   */\n      add\n        /* \"#utility.yul\":17660:17679   */\n      swap2\n      pop\n        /* \"#utility.yul\":17689:17764   */\n      tag_357\n        /* \"#utility.yul\":17760:17763   */\n      dup3\n        /* \"#utility.yul\":17751:17757   */\n      dup6\n        /* \"#utility.yul\":17689:17764   */\n      tag_170\n      jump\t// in\n    tag_357:\n        /* \"#utility.yul\":17789:17791   */\n      0x14\n        /* \"#utility.yul\":17784:17787   */\n      dup3\n        /* \"#utility.yul\":17780:17792   */\n      add\n        /* \"#utility.yul\":17773:17792   */\n      swap2\n      pop\n        /* \"#utility.yul\":17802:17877   */\n      tag_358\n        /* \"#utility.yul\":17873:17876   */\n      dup3\n        /* \"#utility.yul\":17864:17870   */\n      dup5\n        /* \"#utility.yul\":17802:17877   */\n      tag_166\n      jump\t// in\n    tag_358:\n        /* \"#utility.yul\":17902:17904   */\n      0x20\n        /* \"#utility.yul\":17897:17900   */\n      dup3\n        /* \"#utility.yul\":17893:17905   */\n      add\n        /* \"#utility.yul\":17886:17905   */\n      swap2\n      pop\n        /* \"#utility.yul\":17922:17925   */\n      dup2\n        /* \"#utility.yul\":17915:17925   */\n      swap1\n      pop\n        /* \"#utility.yul\":17393:17931   */\n      swap5\n      swap4\n      pop\n      pop\n      pop\n      pop\n      jump\t// out\n        /* \"#utility.yul\":17937:18117   */\n    tag_171:\n        /* \"#utility.yul\":17985:18062   */\n      0x4e487b7100000000000000000000000000000000000000000000000000000000\n        /* \"#utility.yul\":17982:17983   */\n      0x00\n        /* \"#utility.yul\":17975:18063   */\n      mstore\n        /* \"#utility.yul\":18082:18086   */\n      0x11\n        /* \"#utility.yul\":18079:18080   */\n      0x04\n        /* \"#utility.yul\":18072:18087   */\n      mstore\n        /* \"#utility.yul\":18106:18110   */\n      0x24\n        /* \"#utility.yul\":18103:18104   */\n      0x00\n        /* \"#utility.yul\":18096:18111   */\n      revert\n        /* \"#utility.yul\":18123:18356   */\n    tag_108:\n        /* \"#utility.yul\":18162:18165   */\n      0x00\n        /* \"#utility.yul\":18185:18209   */\n      tag_361\n        /* \"#utility.yul\":18203:18208   */\n      dup3\n        /* \"#utility.yul\":18185:18209   */\n      tag_120\n      jump\t// in\n    tag_361:\n        /* \"#utility.yul\":18176:18209   */\n      swap2\n      pop\n        /* \"#utility.yul\":18231:18297   */\n      0xffffffffffffffffffffffffffffffffffffffffffffffffffffffffffffffff\n        /* \"#utility.yul\":18224:18229   */\n      dup3\n        /* \"#utility.yul\":18221:18298   */\n      sub\n        /* \"#utility.yul\":18218:18321   */\n      tag_362\n      jumpi\n        /* \"#utility.yul\":18301:18319   */\n      tag_363\n      tag_171\n      jump\t// in\n    tag_363:\n        /* \"#utility.yul\":18218:18321   */\n    tag_362:\n        /* \"#utility.yul\":18348:18349   */\n      0x01\n        /* \"#utility.yul\":18341:18346   */\n      dup3\n        /* \"#utility.yul\":18337:18350   */\n      add\n        /* \"#utility.yul\":18330:18350   */\n      swap1\n      pop\n        /* \"#utility.yul\":18123:18356   */\n      swap2\n      swap1\n      pop\n      jump\t// out\n\n    auxdata: 0xa2646970667358221220b4c3ae3b8e072a0a3bd4973f05886eec4c7985a37019f13538f9e516f7720eab64736f6c63430008120033\n}\n",
				"bytecode": {
					"linkReferences": {},
					"object": "6080604052600060025534801561001557600080fd5b5033600160006101000a81548173ffffffffffffffffffffffffffffffffffffffff021916908373ffffffffffffffffffffffffffffffffffffffff16021790555061157b806100666000396000f3fe608060405234801561001057600080fd5b50600436106100625760003560e01c806302a97d7f146100675780632e28a7ca1461009757806348833856146100b357806368744046146100cf578063ebe4746014610102578063f851a4401461011e575b600080fd5b610081600480360381019061007c9190610b8d565b61013c565b60405161008e9190610cc3565b60405180910390f35b6100b160048036038101906100ac9190610b8d565b6102f8565b005b6100cd60048036038101906100c89190610e1a565b6105cf565b005b6100e960048036038101906100e49190610b8d565b610724565b6040516100f99493929190610efe565b60405180910390f35b61011c60048036038101906101179190610f51565b610864565b005b6101266109ef565b6040516101339190611031565b60405180910390f35b610144610abe565b6000806000848152602001908152602001600020600001540361019c576040517f08c379a000000000000000000000000000000000000000000000000000000000815260040161019390611098565b60405180910390fd5b600080838152602001908152602001600020604051806080016040529081600082015481526020016001820180546101d3906110e7565b80601f01602080910402602001604051908101604052809291908181526020018280546101ff906110e7565b801561024c5780601f106102215761010080835404028352916020019161024c565b820191906000526020600020905b81548152906001019060200180831161022f57829003601f168201915b505050505081526020016002820154815260200160038201805461026f906110e7565b80601f016020809104026020016040519081016040528092919081815260200182805461029b906110e7565b80156102e85780601f106102bd576101008083540402835291602001916102e8565b820191906000526020600020905b8154815290600101906020018083116102cb57829003601f168201915b5050505050815250509050919050565b600160009054906101000a900473ffffffffffffffffffffffffffffffffffffffff1673ffffffffffffffffffffffffffffffffffffffff163373ffffffffffffffffffffffffffffffffffffffff1614610388576040517f08c379a000000000000000000000000000000000000000000000000000000000815260040161037f9061118a565b60405180910390fd5b600080600083815260200190815260200160002060000154036103e0576040517f08c379a00000000000000000000000000000000000000000000000000000000081526004016103d790611098565b60405180910390fd5b600080600083815260200190815260200160002060405180608001604052908160008201548152602001600182018054610419906110e7565b80601f0160208091040260200160405190810160405280929190818152602001828054610445906110e7565b80156104925780601f1061046757610100808354040283529160200191610492565b820191906000526020600020905b81548152906001019060200180831161047557829003601f168201915b50505050508152602001600282015481526020016003820180546104b5906110e7565b80601f01602080910402602001604051908101604052809291908181526020018280546104e1906110e7565b801561052e5780601f106105035761010080835404028352916020019161052e565b820191906000526020600020905b81548152906001019060200180831161051157829003601f168201915b50505050508152505090506000808381526020019081526020016000206000808201600090556001820160006105649190610ae6565b600282016000905560038201600061057c9190610ae6565b50507f8aa79b649b6a4ebbe5891b28070d032d5687bb783c9447bcfaebeab95fdd073981600001518260200151836040015184606001516040516105c39493929190610efe565b60405180910390a15050565b600160009054906101000a900473ffffffffffffffffffffffffffffffffffffffff1673ffffffffffffffffffffffffffffffffffffffff163373ffffffffffffffffffffffffffffffffffffffff161461065f576040517f08c379a00000000000000000000000000000000000000000000000000000000081526004016106569061118a565b60405180910390fd5b6000610669610a15565b90506040518060800160405280828152602001858152602001848152602001838152506000808381526020019081526020016000206000820151816000015560208201518160010190816106bd9190611356565b506040820151816002015560608201518160030190816106dd9190611356565b509050507fd0d4cd8737018e52a6388a5921967e80bec857befd9ca6c10fa377129e0cba4b818585856040516107169493929190610efe565b60405180910390a150505050565b600060205280600052604060002060009150905080600001549080600101805461074d906110e7565b80601f0160208091040260200160405190810160405280929190818152602001828054610779906110e7565b80156107c65780601f1061079b576101008083540402835291602001916107c6565b820191906000526020600020905b8154815290600101906020018083116107a957829003601f168201915b5050505050908060020154908060030180546107e1906110e7565b80601f016020809104026020016040519081016040528092919081815260200182805461080d906110e7565b801561085a5780601f1061082f5761010080835404028352916020019161085a565b820191906000526020600020905b81548152906001019060200180831161083d57829003601f168201915b5050505050905084565b600160009054906101000a900473ffffffffffffffffffffffffffffffffffffffff1673ffffffffffffffffffffffffffffffffffffffff163373ffffffffffffffffffffffffffffffffffffffff16146108f4576040517f08c379a00000000000000000000000000000000000000000000000000000000081526004016108eb9061118a565b60405180910390fd5b6000806000868152602001908152602001600020600001540361094c576040517f08c379a000000000000000000000000000000000000000000000000000000000815260040161094390611098565b60405180910390fd5b82600080868152602001908152602001600020600101908161096e9190611356565b5081600080868152602001908152602001600020600201819055508060008086815260200190815260200160002060030190816109ab9190611356565b507f31885bd69be5fd94381a4d4dc2b2f4868dd0e8d7f8fa4c667a0a4675f3abeeec848484846040516109e19493929190610efe565b60405180910390a150505050565b600160009054906101000a900473ffffffffffffffffffffffffffffffffffffffff1681565b6000806002543342604051602001610a2f93929190611491565b6040516020818303038152906040528051906020012060001c90505b60008060008381526020019081526020016000206000015414610ab75760026000815480929190610a7b906114fd565b91905055506002543342604051602001610a9793929190611491565b6040516020818303038152906040528051906020012060001c9050610a4b565b8091505090565b6040518060800160405280600081526020016060815260200160008152602001606081525090565b508054610af2906110e7565b6000825580601f10610b045750610b23565b601f016020900490600052602060002090810190610b229190610b26565b5b50565b5b80821115610b3f576000816000905550600101610b27565b5090565b6000604051905090565b600080fd5b600080fd5b6000819050919050565b610b6a81610b57565b8114610b7557600080fd5b50565b600081359050610b8781610b61565b92915050565b600060208284031215610ba357610ba2610b4d565b5b6000610bb184828501610b78565b91505092915050565b610bc381610b57565b82525050565b600081519050919050565b600082825260208201905092915050565b60005b83811015610c03578082015181840152602081019050610be8565b60008484015250505050565b6000601f19601f8301169050919050565b6000610c2b82610bc9565b610c358185610bd4565b9350610c45818560208601610be5565b610c4e81610c0f565b840191505092915050565b6000608083016000830151610c716000860182610bba565b5060208301518482036020860152610c898282610c20565b9150506040830151610c9e6040860182610bba565b5060608301518482036060860152610cb68282610c20565b9150508091505092915050565b60006020820190508181036000830152610cdd8184610c59565b905092915050565b600080fd5b600080fd5b7f4e487b7100000000000000000000000000000000000000000000000000000000600052604160045260246000fd5b610d2782610c0f565b810181811067ffffffffffffffff82111715610d4657610d45610cef565b5b80604052505050565b6000610d59610b43565b9050610d658282610d1e565b919050565b600067ffffffffffffffff821115610d8557610d84610cef565b5b610d8e82610c0f565b9050602081019050919050565b82818337600083830152505050565b6000610dbd610db884610d6a565b610d4f565b905082815260208101848484011115610dd957610dd8610cea565b5b610de4848285610d9b565b509392505050565b600082601f830112610e0157610e00610ce5565b5b8135610e11848260208601610daa565b91505092915050565b600080600060608486031215610e3357610e32610b4d565b5b600084013567ffffffffffffffff811115610e5157610e50610b52565b5b610e5d86828701610dec565b9350506020610e6e86828701610b78565b925050604084013567ffffffffffffffff811115610e8f57610e8e610b52565b5b610e9b86828701610dec565b9150509250925092565b610eae81610b57565b82525050565b600082825260208201905092915050565b6000610ed082610bc9565b610eda8185610eb4565b9350610eea818560208601610be5565b610ef381610c0f565b840191505092915050565b6000608082019050610f136000830187610ea5565b8181036020830152610f258186610ec5565b9050610f346040830185610ea5565b8181036060830152610f468184610ec5565b905095945050505050565b60008060008060808587031215610f6b57610f6a610b4d565b5b6000610f7987828801610b78565b945050602085013567ffffffffffffffff811115610f9a57610f99610b52565b5b610fa687828801610dec565b9350506040610fb787828801610b78565b925050606085013567ffffffffffffffff811115610fd857610fd7610b52565b5b610fe487828801610dec565b91505092959194509250565b600073ffffffffffffffffffffffffffffffffffffffff82169050919050565b600061101b82610ff0565b9050919050565b61102b81611010565b82525050565b60006020820190506110466000830184611022565b92915050565b7f42756b7520746964616b20646974656d756b616e000000000000000000000000600082015250565b6000611082601483610eb4565b915061108d8261104c565b602082019050919050565b600060208201905081810360008301526110b181611075565b9050919050565b7f4e487b7100000000000000000000000000000000000000000000000000000000600052602260045260246000fd5b600060028204905060018216806110ff57607f821691505b602082108103611112576111116110b8565b5b50919050565b7f48616e79612061646d696e2079616e67206461706174206d656c616b756b616e60008201527f2074696e64616b616e20696e6900000000000000000000000000000000000000602082015250565b6000611174602d83610eb4565b915061117f82611118565b604082019050919050565b600060208201905081810360008301526111a381611167565b9050919050565b60008190508160005260206000209050919050565b60006020601f8301049050919050565b600082821b905092915050565b60006008830261120c7fffffffffffffffffffffffffffffffffffffffffffffffffffffffffffffffff826111cf565b61121686836111cf565b95508019841693508086168417925050509392505050565b6000819050919050565b600061125361124e61124984610b57565b61122e565b610b57565b9050919050565b6000819050919050565b61126d83611238565b6112816112798261125a565b8484546111dc565b825550505050565b600090565b611296611289565b6112a1818484611264565b505050565b5b818110156112c5576112ba60008261128e565b6001810190506112a7565b5050565b601f82111561130a576112db816111aa565b6112e4846111bf565b810160208510156112f3578190505b6113076112ff856111bf565b8301826112a6565b50505b505050565b600082821c905092915050565b600061132d6000198460080261130f565b1980831691505092915050565b6000611346838361131c565b9150826002028217905092915050565b61135f82610bc9565b67ffffffffffffffff81111561137857611377610cef565b5b61138282546110e7565b61138d8282856112c9565b600060209050601f8311600181146113c057600084156113ae578287015190505b6113b8858261133a565b865550611420565b601f1984166113ce866111aa565b60005b828110156113f6578489015182556001820191506020850194506020810190506113d1565b86831015611413578489015161140f601f89168261131c565b8355505b6001600288020188555050505b505050505050565b6000819050919050565b61144361143e82610b57565b611428565b82525050565b60008160601b9050919050565b600061146182611449565b9050919050565b600061147382611456565b9050919050565b61148b61148682611010565b611468565b82525050565b600061149d8286611432565b6020820191506114ad828561147a565b6014820191506114bd8284611432565b602082019150819050949350505050565b7f4e487b7100000000000000000000000000000000000000000000000000000000600052601160045260246000fd5b600061150882610b57565b91507fffffffffffffffffffffffffffffffffffffffffffffffffffffffffffffffff820361153a576115396114ce565b5b60018201905091905056fea2646970667358221220b4c3ae3b8e072a0a3bd4973f05886eec4c7985a37019f13538f9e516f7720eab64736f6c63430008120033",
					"opcodes": "PUSH1 0x80 PUSH1 0x40 MSTORE PUSH1 0x0 PUSH1 0x2 SSTORE CALLVALUE DUP1 ISZERO PUSH2 0x15 JUMPI PUSH1 0x0 DUP1 REVERT JUMPDEST POP CALLER PUSH1 0x1 PUSH1 0x0 PUSH2 0x100 EXP DUP2 SLOAD DUP2 PUSH20 0xFFFFFFFFFFFFFFFFFFFFFFFFFFFFFFFFFFFFFFFF MUL NOT AND SWAP1 DUP4 PUSH20 0xFFFFFFFFFFFFFFFFFFFFFFFFFFFFFFFFFFFFFFFF AND MUL OR SWAP1 SSTORE POP PUSH2 0x157B DUP1 PUSH2 0x66 PUSH1 0x0 CODECOPY PUSH1 0x0 RETURN INVALID PUSH1 0x80 PUSH1 0x40 MSTORE CALLVALUE DUP1 ISZERO PUSH2 0x10 JUMPI PUSH1 0x0 DUP1 REVERT JUMPDEST POP PUSH1 0x4 CALLDATASIZE LT PUSH2 0x62 JUMPI PUSH1 0x0 CALLDATALOAD PUSH1 0xE0 SHR DUP1 PUSH4 0x2A97D7F EQ PUSH2 0x67 JUMPI DUP1 PUSH4 0x2E28A7CA EQ PUSH2 0x97 JUMPI DUP1 PUSH4 0x48833856 EQ PUSH2 0xB3 JUMPI DUP1 PUSH4 0x68744046 EQ PUSH2 0xCF JUMPI DUP1 PUSH4 0xEBE47460 EQ PUSH2 0x102 JUMPI DUP1 PUSH4 0xF851A440 EQ PUSH2 0x11E JUMPI JUMPDEST PUSH1 0x0 DUP1 REVERT JUMPDEST PUSH2 0x81 PUSH1 0x4 DUP1 CALLDATASIZE SUB DUP2 ADD SWAP1 PUSH2 0x7C SWAP2 SWAP1 PUSH2 0xB8D JUMP JUMPDEST PUSH2 0x13C JUMP JUMPDEST PUSH1 0x40 MLOAD PUSH2 0x8E SWAP2 SWAP1 PUSH2 0xCC3 JUMP JUMPDEST PUSH1 0x40 MLOAD DUP1 SWAP2 SUB SWAP1 RETURN JUMPDEST PUSH2 0xB1 PUSH1 0x4 DUP1 CALLDATASIZE SUB DUP2 ADD SWAP1 PUSH2 0xAC SWAP2 SWAP1 PUSH2 0xB8D JUMP JUMPDEST PUSH2 0x2F8 JUMP JUMPDEST STOP JUMPDEST PUSH2 0xCD PUSH1 0x4 DUP1 CALLDATASIZE SUB DUP2 ADD SWAP1 PUSH2 0xC8 SWAP2 SWAP1 PUSH2 0xE1A JUMP JUMPDEST PUSH2 0x5CF JUMP JUMPDEST STOP JUMPDEST PUSH2 0xE9 PUSH1 0x4 DUP1 CALLDATASIZE SUB DUP2 ADD SWAP1 PUSH2 0xE4 SWAP2 SWAP1 PUSH2 0xB8D JUMP JUMPDEST PUSH2 0x724 JUMP JUMPDEST PUSH1 0x40 MLOAD PUSH2 0xF9 SWAP5 SWAP4 SWAP3 SWAP2 SWAP1 PUSH2 0xEFE JUMP JUMPDEST PUSH1 0x40 MLOAD DUP1 SWAP2 SUB SWAP1 RETURN JUMPDEST PUSH2 0x11C PUSH1 0x4 DUP1 CALLDATASIZE SUB DUP2 ADD SWAP1 PUSH2 0x117 SWAP2 SWAP1 PUSH2 0xF51 JUMP JUMPDEST PUSH2 0x864 JUMP JUMPDEST STOP JUMPDEST PUSH2 0x126 PUSH2 0x9EF JUMP JUMPDEST PUSH1 0x40 MLOAD PUSH2 0x133 SWAP2 SWAP1 PUSH2 0x1031 JUMP JUMPDEST PUSH1 0x40 MLOAD DUP1 SWAP2 SUB SWAP1 RETURN JUMPDEST PUSH2 0x144 PUSH2 0xABE JUMP JUMPDEST PUSH1 0x0 DUP1 PUSH1 0x0 DUP5 DUP2 MSTORE PUSH1 0x20 ADD SWAP1 DUP2 MSTORE PUSH1 0x20 ADD PUSH1 0x0 KECCAK256 PUSH1 0x0 ADD SLOAD SUB PUSH2 0x19C JUMPI PUSH1 0x40 MLOAD PUSH32 0x8C379A000000000000000000000000000000000000000000000000000000000 DUP2 MSTORE PUSH1 0x4 ADD PUSH2 0x193 SWAP1 PUSH2 0x1098 JUMP JUMPDEST PUSH1 0x40 MLOAD DUP1 SWAP2 SUB SWAP1 REVERT JUMPDEST PUSH1 0x0 DUP1 DUP4 DUP2 MSTORE PUSH1 0x20 ADD SWAP1 DUP2 MSTORE PUSH1 0x20 ADD PUSH1 0x0 KECCAK256 PUSH1 0x40 MLOAD DUP1 PUSH1 0x80 ADD PUSH1 0x40 MSTORE SWAP1 DUP2 PUSH1 0x0 DUP3 ADD SLOAD DUP2 MSTORE PUSH1 0x20 ADD PUSH1 0x1 DUP3 ADD DUP1 SLOAD PUSH2 0x1D3 SWAP1 PUSH2 0x10E7 JUMP JUMPDEST DUP1 PUSH1 0x1F ADD PUSH1 0x20 DUP1 SWAP2 DIV MUL PUSH1 0x20 ADD PUSH1 0x40 MLOAD SWAP1 DUP2 ADD PUSH1 0x40 MSTORE DUP1 SWAP3 SWAP2 SWAP1 DUP2 DUP2 MSTORE PUSH1 0x20 ADD DUP3 DUP1 SLOAD PUSH2 0x1FF SWAP1 PUSH2 0x10E7 JUMP JUMPDEST DUP1 ISZERO PUSH2 0x24C JUMPI DUP1 PUSH1 0x1F LT PUSH2 0x221 JUMPI PUSH2 0x100 DUP1 DUP4 SLOAD DIV MUL DUP4 MSTORE SWAP2 PUSH1 0x20 ADD SWAP2 PUSH2 0x24C JUMP JUMPDEST DUP3 ADD SWAP2 SWAP1 PUSH1 0x0 MSTORE PUSH1 0x20 PUSH1 0x0 KECCAK256 SWAP1 JUMPDEST DUP2 SLOAD DUP2 MSTORE SWAP1 PUSH1 0x1 ADD SWAP1 PUSH1 0x20 ADD DUP1 DUP4 GT PUSH2 0x22F JUMPI DUP3 SWAP1 SUB PUSH1 0x1F AND DUP3 ADD SWAP2 JUMPDEST POP POP POP POP POP DUP2 MSTORE PUSH1 0x20 ADD PUSH1 0x2 DUP3 ADD SLOAD DUP2 MSTORE PUSH1 0x20 ADD PUSH1 0x3 DUP3 ADD DUP1 SLOAD PUSH2 0x26F SWAP1 PUSH2 0x10E7 JUMP JUMPDEST DUP1 PUSH1 0x1F ADD PUSH1 0x20 DUP1 SWAP2 DIV MUL PUSH1 0x20 ADD PUSH1 0x40 MLOAD SWAP1 DUP2 ADD PUSH1 0x40 MSTORE DUP1 SWAP3 SWAP2 SWAP1 DUP2 DUP2 MSTORE PUSH1 0x20 ADD DUP3 DUP1 SLOAD PUSH2 0x29B SWAP1 PUSH2 0x10E7 JUMP JUMPDEST DUP1 ISZERO PUSH2 0x2E8 JUMPI DUP1 PUSH1 0x1F LT PUSH2 0x2BD JUMPI PUSH2 0x100 DUP1 DUP4 SLOAD DIV MUL DUP4 MSTORE SWAP2 PUSH1 0x20 ADD SWAP2 PUSH2 0x2E8 JUMP JUMPDEST DUP3 ADD SWAP2 SWAP1 PUSH1 0x0 MSTORE PUSH1 0x20 PUSH1 0x0 KECCAK256 SWAP1 JUMPDEST DUP2 SLOAD DUP2 MSTORE SWAP1 PUSH1 0x1 ADD SWAP1 PUSH1 0x20 ADD DUP1 DUP4 GT PUSH2 0x2CB JUMPI DUP3 SWAP1 SUB PUSH1 0x1F AND DUP3 ADD SWAP2 JUMPDEST POP POP POP POP POP DUP2 MSTORE POP POP SWAP1 POP SWAP2 SWAP1 POP JUMP JUMPDEST PUSH1 0x1 PUSH1 0x0 SWAP1 SLOAD SWAP1 PUSH2 0x100 EXP SWAP1 DIV PUSH20 0xFFFFFFFFFFFFFFFFFFFFFFFFFFFFFFFFFFFFFFFF AND PUSH20 0xFFFFFFFFFFFFFFFFFFFFFFFFFFFFFFFFFFFFFFFF AND CALLER PUSH20 0xFFFFFFFFFFFFFFFFFFFFFFFFFFFFFFFFFFFFFFFF AND EQ PUSH2 0x388 JUMPI PUSH1 0x40 MLOAD PUSH32 0x8C379A000000000000000000000000000000000000000000000000000000000 DUP2 MSTORE PUSH1 0x4 ADD PUSH2 0x37F SWAP1 PUSH2 0x118A JUMP JUMPDEST PUSH1 0x40 MLOAD DUP1 SWAP2 SUB SWAP1 REVERT JUMPDEST PUSH1 0x0 DUP1 PUSH1 0x0 DUP4 DUP2 MSTORE PUSH1 0x20 ADD SWAP1 DUP2 MSTORE PUSH1 0x20 ADD PUSH1 0x0 KECCAK256 PUSH1 0x0 ADD SLOAD SUB PUSH2 0x3E0 JUMPI PUSH1 0x40 MLOAD PUSH32 0x8C379A000000000000000000000000000000000000000000000000000000000 DUP2 MSTORE PUSH1 0x4 ADD PUSH2 0x3D7 SWAP1 PUSH2 0x1098 JUMP JUMPDEST PUSH1 0x40 MLOAD DUP1 SWAP2 SUB SWAP1 REVERT JUMPDEST PUSH1 0x0 DUP1 PUSH1 0x0 DUP4 DUP2 MSTORE PUSH1 0x20 ADD SWAP1 DUP2 MSTORE PUSH1 0x20 ADD PUSH1 0x0 KECCAK256 PUSH1 0x40 MLOAD DUP1 PUSH1 0x80 ADD PUSH1 0x40 MSTORE SWAP1 DUP2 PUSH1 0x0 DUP3 ADD SLOAD DUP2 MSTORE PUSH1 0x20 ADD PUSH1 0x1 DUP3 ADD DUP1 SLOAD PUSH2 0x419 SWAP1 PUSH2 0x10E7 JUMP JUMPDEST DUP1 PUSH1 0x1F ADD PUSH1 0x20 DUP1 SWAP2 DIV MUL PUSH1 0x20 ADD PUSH1 0x40 MLOAD SWAP1 DUP2 ADD PUSH1 0x40 MSTORE DUP1 SWAP3 SWAP2 SWAP1 DUP2 DUP2 MSTORE PUSH1 0x20 ADD DUP3 DUP1 SLOAD PUSH2 0x445 SWAP1 PUSH2 0x10E7 JUMP JUMPDEST DUP1 ISZERO PUSH2 0x492 JUMPI DUP1 PUSH1 0x1F LT PUSH2 0x467 JUMPI PUSH2 0x100 DUP1 DUP4 SLOAD DIV MUL DUP4 MSTORE SWAP2 PUSH1 0x20 ADD SWAP2 PUSH2 0x492 JUMP JUMPDEST DUP3 ADD SWAP2 SWAP1 PUSH1 0x0 MSTORE PUSH1 0x20 PUSH1 0x0 KECCAK256 SWAP1 JUMPDEST DUP2 SLOAD DUP2 MSTORE SWAP1 PUSH1 0x1 ADD SWAP1 PUSH1 0x20 ADD DUP1 DUP4 GT PUSH2 0x475 JUMPI DUP3 SWAP1 SUB PUSH1 0x1F AND DUP3 ADD SWAP2 JUMPDEST POP POP POP POP POP DUP2 MSTORE PUSH1 0x20 ADD PUSH1 0x2 DUP3 ADD SLOAD DUP2 MSTORE PUSH1 0x20 ADD PUSH1 0x3 DUP3 ADD DUP1 SLOAD PUSH2 0x4B5 SWAP1 PUSH2 0x10E7 JUMP JUMPDEST DUP1 PUSH1 0x1F ADD PUSH1 0x20 DUP1 SWAP2 DIV MUL PUSH1 0x20 ADD PUSH1 0x40 MLOAD SWAP1 DUP2 ADD PUSH1 0x40 MSTORE DUP1 SWAP3 SWAP2 SWAP1 DUP2 DUP2 MSTORE PUSH1 0x20 ADD DUP3 DUP1 SLOAD PUSH2 0x4E1 SWAP1 PUSH2 0x10E7 JUMP JUMPDEST DUP1 ISZERO PUSH2 0x52E JUMPI DUP1 PUSH1 0x1F LT PUSH2 0x503 JUMPI PUSH2 0x100 DUP1 DUP4 SLOAD DIV MUL DUP4 MSTORE SWAP2 PUSH1 0x20 ADD SWAP2 PUSH2 0x52E JUMP JUMPDEST DUP3 ADD SWAP2 SWAP1 PUSH1 0x0 MSTORE PUSH1 0x20 PUSH1 0x0 KECCAK256 SWAP1 JUMPDEST DUP2 SLOAD DUP2 MSTORE SWAP1 PUSH1 0x1 ADD SWAP1 PUSH1 0x20 ADD DUP1 DUP4 GT PUSH2 0x511 JUMPI DUP3 SWAP1 SUB PUSH1 0x1F AND DUP3 ADD SWAP2 JUMPDEST POP POP POP POP POP DUP2 MSTORE POP POP SWAP1 POP PUSH1 0x0 DUP1 DUP4 DUP2 MSTORE PUSH1 0x20 ADD SWAP1 DUP2 MSTORE PUSH1 0x20 ADD PUSH1 0x0 KECCAK256 PUSH1 0x0 DUP1 DUP3 ADD PUSH1 0x0 SWAP1 SSTORE PUSH1 0x1 DUP3 ADD PUSH1 0x0 PUSH2 0x564 SWAP2 SWAP1 PUSH2 0xAE6 JUMP JUMPDEST PUSH1 0x2 DUP3 ADD PUSH1 0x0 SWAP1 SSTORE PUSH1 0x3 DUP3 ADD PUSH1 0x0 PUSH2 0x57C SWAP2 SWAP1 PUSH2 0xAE6 JUMP JUMPDEST POP POP PUSH32 0x8AA79B649B6A4EBBE5891B28070D032D5687BB783C9447BCFAEBEAB95FDD0739 DUP2 PUSH1 0x0 ADD MLOAD DUP3 PUSH1 0x20 ADD MLOAD DUP4 PUSH1 0x40 ADD MLOAD DUP5 PUSH1 0x60 ADD MLOAD PUSH1 0x40 MLOAD PUSH2 0x5C3 SWAP5 SWAP4 SWAP3 SWAP2 SWAP1 PUSH2 0xEFE JUMP JUMPDEST PUSH1 0x40 MLOAD DUP1 SWAP2 SUB SWAP1 LOG1 POP POP JUMP JUMPDEST PUSH1 0x1 PUSH1 0x0 SWAP1 SLOAD SWAP1 PUSH2 0x100 EXP SWAP1 DIV PUSH20 0xFFFFFFFFFFFFFFFFFFFFFFFFFFFFFFFFFFFFFFFF AND PUSH20 0xFFFFFFFFFFFFFFFFFFFFFFFFFFFFFFFFFFFFFFFF AND CALLER PUSH20 0xFFFFFFFFFFFFFFFFFFFFFFFFFFFFFFFFFFFFFFFF AND EQ PUSH2 0x65F JUMPI PUSH1 0x40 MLOAD PUSH32 0x8C379A000000000000000000000000000000000000000000000000000000000 DUP2 MSTORE PUSH1 0x4 ADD PUSH2 0x656 SWAP1 PUSH2 0x118A JUMP JUMPDEST PUSH1 0x40 MLOAD DUP1 SWAP2 SUB SWAP1 REVERT JUMPDEST PUSH1 0x0 PUSH2 0x669 PUSH2 0xA15 JUMP JUMPDEST SWAP1 POP PUSH1 0x40 MLOAD DUP1 PUSH1 0x80 ADD PUSH1 0x40 MSTORE DUP1 DUP3 DUP2 MSTORE PUSH1 0x20 ADD DUP6 DUP2 MSTORE PUSH1 0x20 ADD DUP5 DUP2 MSTORE PUSH1 0x20 ADD DUP4 DUP2 MSTORE POP PUSH1 0x0 DUP1 DUP4 DUP2 MSTORE PUSH1 0x20 ADD SWAP1 DUP2 MSTORE PUSH1 0x20 ADD PUSH1 0x0 KECCAK256 PUSH1 0x0 DUP3 ADD MLOAD DUP2 PUSH1 0x0 ADD SSTORE PUSH1 0x20 DUP3 ADD MLOAD DUP2 PUSH1 0x1 ADD SWAP1 DUP2 PUSH2 0x6BD SWAP2 SWAP1 PUSH2 0x1356 JUMP JUMPDEST POP PUSH1 0x40 DUP3 ADD MLOAD DUP2 PUSH1 0x2 ADD SSTORE PUSH1 0x60 DUP3 ADD MLOAD DUP2 PUSH1 0x3 ADD SWAP1 DUP2 PUSH2 0x6DD SWAP2 SWAP1 PUSH2 0x1356 JUMP JUMPDEST POP SWAP1 POP POP PUSH32 0xD0D4CD8737018E52A6388A5921967E80BEC857BEFD9CA6C10FA377129E0CBA4B DUP2 DUP6 DUP6 DUP6 PUSH1 0x40 MLOAD PUSH2 0x716 SWAP5 SWAP4 SWAP3 SWAP2 SWAP1 PUSH2 0xEFE JUMP JUMPDEST PUSH1 0x40 MLOAD DUP1 SWAP2 SUB SWAP1 LOG1 POP POP POP POP JUMP JUMPDEST PUSH1 0x0 PUSH1 0x20 MSTORE DUP1 PUSH1 0x0 MSTORE PUSH1 0x40 PUSH1 0x0 KECCAK256 PUSH1 0x0 SWAP2 POP SWAP1 POP DUP1 PUSH1 0x0 ADD SLOAD SWAP1 DUP1 PUSH1 0x1 ADD DUP1 SLOAD PUSH2 0x74D SWAP1 PUSH2 0x10E7 JUMP JUMPDEST DUP1 PUSH1 0x1F ADD PUSH1 0x20 DUP1 SWAP2 DIV MUL PUSH1 0x20 ADD PUSH1 0x40 MLOAD SWAP1 DUP2 ADD PUSH1 0x40 MSTORE DUP1 SWAP3 SWAP2 SWAP1 DUP2 DUP2 MSTORE PUSH1 0x20 ADD DUP3 DUP1 SLOAD PUSH2 0x779 SWAP1 PUSH2 0x10E7 JUMP JUMPDEST DUP1 ISZERO PUSH2 0x7C6 JUMPI DUP1 PUSH1 0x1F LT PUSH2 0x79B JUMPI PUSH2 0x100 DUP1 DUP4 SLOAD DIV MUL DUP4 MSTORE SWAP2 PUSH1 0x20 ADD SWAP2 PUSH2 0x7C6 JUMP JUMPDEST DUP3 ADD SWAP2 SWAP1 PUSH1 0x0 MSTORE PUSH1 0x20 PUSH1 0x0 KECCAK256 SWAP1 JUMPDEST DUP2 SLOAD DUP2 MSTORE SWAP1 PUSH1 0x1 ADD SWAP1 PUSH1 0x20 ADD DUP1 DUP4 GT PUSH2 0x7A9 JUMPI DUP3 SWAP1 SUB PUSH1 0x1F AND DUP3 ADD SWAP2 JUMPDEST POP POP POP POP POP SWAP1 DUP1 PUSH1 0x2 ADD SLOAD SWAP1 DUP1 PUSH1 0x3 ADD DUP1 SLOAD PUSH2 0x7E1 SWAP1 PUSH2 0x10E7 JUMP JUMPDEST DUP1 PUSH1 0x1F ADD PUSH1 0x20 DUP1 SWAP2 DIV MUL PUSH1 0x20 ADD PUSH1 0x40 MLOAD SWAP1 DUP2 ADD PUSH1 0x40 MSTORE DUP1 SWAP3 SWAP2 SWAP1 DUP2 DUP2 MSTORE PUSH1 0x20 ADD DUP3 DUP1 SLOAD PUSH2 0x80D SWAP1 PUSH2 0x10E7 JUMP JUMPDEST DUP1 ISZERO PUSH2 0x85A JUMPI DUP1 PUSH1 0x1F LT PUSH2 0x82F JUMPI PUSH2 0x100 DUP1 DUP4 SLOAD DIV MUL DUP4 MSTORE SWAP2 PUSH1 0x20 ADD SWAP2 PUSH2 0x85A JUMP JUMPDEST DUP3 ADD SWAP2 SWAP1 PUSH1 0x0 MSTORE PUSH1 0x20 PUSH1 0x0 KECCAK256 SWAP1 JUMPDEST DUP2 SLOAD DUP2 MSTORE SWAP1 PUSH1 0x1 ADD SWAP1 PUSH1 0x20 ADD DUP1 DUP4 GT PUSH2 0x83D JUMPI DUP3 SWAP1 SUB PUSH1 0x1F AND DUP3 ADD SWAP2 JUMPDEST POP POP POP POP POP SWAP1 POP DUP5 JUMP JUMPDEST PUSH1 0x1 PUSH1 0x0 SWAP1 SLOAD SWAP1 PUSH2 0x100 EXP SWAP1 DIV PUSH20 0xFFFFFFFFFFFFFFFFFFFFFFFFFFFFFFFFFFFFFFFF AND PUSH20 0xFFFFFFFFFFFFFFFFFFFFFFFFFFFFFFFFFFFFFFFF AND CALLER PUSH20 0xFFFFFFFFFFFFFFFFFFFFFFFFFFFFFFFFFFFFFFFF AND EQ PUSH2 0x8F4 JUMPI PUSH1 0x40 MLOAD PUSH32 0x8C379A000000000000000000000000000000000000000000000000000000000 DUP2 MSTORE PUSH1 0x4 ADD PUSH2 0x8EB SWAP1 PUSH2 0x118A JUMP JUMPDEST PUSH1 0x40 MLOAD DUP1 SWAP2 SUB SWAP1 REVERT JUMPDEST PUSH1 0x0 DUP1 PUSH1 0x0 DUP7 DUP2 MSTORE PUSH1 0x20 ADD SWAP1 DUP2 MSTORE PUSH1 0x20 ADD PUSH1 0x0 KECCAK256 PUSH1 0x0 ADD SLOAD SUB PUSH2 0x94C JUMPI PUSH1 0x40 MLOAD PUSH32 0x8C379A000000000000000000000000000000000000000000000000000000000 DUP2 MSTORE PUSH1 0x4 ADD PUSH2 0x943 SWAP1 PUSH2 0x1098 JUMP JUMPDEST PUSH1 0x40 MLOAD DUP1 SWAP2 SUB SWAP1 REVERT JUMPDEST DUP3 PUSH1 0x0 DUP1 DUP7 DUP2 MSTORE PUSH1 0x20 ADD SWAP1 DUP2 MSTORE PUSH1 0x20 ADD PUSH1 0x0 KECCAK256 PUSH1 0x1 ADD SWAP1 DUP2 PUSH2 0x96E SWAP2 SWAP1 PUSH2 0x1356 JUMP JUMPDEST POP DUP2 PUSH1 0x0 DUP1 DUP7 DUP2 MSTORE PUSH1 0x20 ADD SWAP1 DUP2 MSTORE PUSH1 0x20 ADD PUSH1 0x0 KECCAK256 PUSH1 0x2 ADD DUP2 SWAP1 SSTORE POP DUP1 PUSH1 0x0 DUP1 DUP7 DUP2 MSTORE PUSH1 0x20 ADD SWAP1 DUP2 MSTORE PUSH1 0x20 ADD PUSH1 0x0 KECCAK256 PUSH1 0x3 ADD SWAP1 DUP2 PUSH2 0x9AB SWAP2 SWAP1 PUSH2 0x1356 JUMP JUMPDEST POP PUSH32 0x31885BD69BE5FD94381A4D4DC2B2F4868DD0E8D7F8FA4C667A0A4675F3ABEEEC DUP5 DUP5 DUP5 DUP5 PUSH1 0x40 MLOAD PUSH2 0x9E1 SWAP5 SWAP4 SWAP3 SWAP2 SWAP1 PUSH2 0xEFE JUMP JUMPDEST PUSH1 0x40 MLOAD DUP1 SWAP2 SUB SWAP1 LOG1 POP POP POP POP JUMP JUMPDEST PUSH1 0x1 PUSH1 0x0 SWAP1 SLOAD SWAP1 PUSH2 0x100 EXP SWAP1 DIV PUSH20 0xFFFFFFFFFFFFFFFFFFFFFFFFFFFFFFFFFFFFFFFF AND DUP2 JUMP JUMPDEST PUSH1 0x0 DUP1 PUSH1 0x2 SLOAD CALLER TIMESTAMP PUSH1 0x40 MLOAD PUSH1 0x20 ADD PUSH2 0xA2F SWAP4 SWAP3 SWAP2 SWAP1 PUSH2 0x1491 JUMP JUMPDEST PUSH1 0x40 MLOAD PUSH1 0x20 DUP2 DUP4 SUB SUB DUP2 MSTORE SWAP1 PUSH1 0x40 MSTORE DUP1 MLOAD SWAP1 PUSH1 0x20 ADD KECCAK256 PUSH1 0x0 SHR SWAP1 POP JUMPDEST PUSH1 0x0 DUP1 PUSH1 0x0 DUP4 DUP2 MSTORE PUSH1 0x20 ADD SWAP1 DUP2 MSTORE PUSH1 0x20 ADD PUSH1 0x0 KECCAK256 PUSH1 0x0 ADD SLOAD EQ PUSH2 0xAB7 JUMPI PUSH1 0x2 PUSH1 0x0 DUP2 SLOAD DUP1 SWAP3 SWAP2 SWAP1 PUSH2 0xA7B SWAP1 PUSH2 0x14FD JUMP JUMPDEST SWAP2 SWAP1 POP SSTORE POP PUSH1 0x2 SLOAD CALLER TIMESTAMP PUSH1 0x40 MLOAD PUSH1 0x20 ADD PUSH2 0xA97 SWAP4 SWAP3 SWAP2 SWAP1 PUSH2 0x1491 JUMP JUMPDEST PUSH1 0x40 MLOAD PUSH1 0x20 DUP2 DUP4 SUB SUB DUP2 MSTORE SWAP1 PUSH1 0x40 MSTORE DUP1 MLOAD SWAP1 PUSH1 0x20 ADD KECCAK256 PUSH1 0x0 SHR SWAP1 POP PUSH2 0xA4B JUMP JUMPDEST DUP1 SWAP2 POP POP SWAP1 JUMP JUMPDEST PUSH1 0x40 MLOAD DUP1 PUSH1 0x80 ADD PUSH1 0x40 MSTORE DUP1 PUSH1 0x0 DUP2 MSTORE PUSH1 0x20 ADD PUSH1 0x60 DUP2 MSTORE PUSH1 0x20 ADD PUSH1 0x0 DUP2 MSTORE PUSH1 0x20 ADD PUSH1 0x60 DUP2 MSTORE POP SWAP1 JUMP JUMPDEST POP DUP1 SLOAD PUSH2 0xAF2 SWAP1 PUSH2 0x10E7 JUMP JUMPDEST PUSH1 0x0 DUP3 SSTORE DUP1 PUSH1 0x1F LT PUSH2 0xB04 JUMPI POP PUSH2 0xB23 JUMP JUMPDEST PUSH1 0x1F ADD PUSH1 0x20 SWAP1 DIV SWAP1 PUSH1 0x0 MSTORE PUSH1 0x20 PUSH1 0x0 KECCAK256 SWAP1 DUP2 ADD SWAP1 PUSH2 0xB22 SWAP2 SWAP1 PUSH2 0xB26 JUMP JUMPDEST JUMPDEST POP JUMP JUMPDEST JUMPDEST DUP1 DUP3 GT ISZERO PUSH2 0xB3F JUMPI PUSH1 0x0 DUP2 PUSH1 0x0 SWAP1 SSTORE POP PUSH1 0x1 ADD PUSH2 0xB27 JUMP JUMPDEST POP SWAP1 JUMP JUMPDEST PUSH1 0x0 PUSH1 0x40 MLOAD SWAP1 POP SWAP1 JUMP JUMPDEST PUSH1 0x0 DUP1 REVERT JUMPDEST PUSH1 0x0 DUP1 REVERT JUMPDEST PUSH1 0x0 DUP2 SWAP1 POP SWAP2 SWAP1 POP JUMP JUMPDEST PUSH2 0xB6A DUP2 PUSH2 0xB57 JUMP JUMPDEST DUP2 EQ PUSH2 0xB75 JUMPI PUSH1 0x0 DUP1 REVERT JUMPDEST POP JUMP JUMPDEST PUSH1 0x0 DUP2 CALLDATALOAD SWAP1 POP PUSH2 0xB87 DUP2 PUSH2 0xB61 JUMP JUMPDEST SWAP3 SWAP2 POP POP JUMP JUMPDEST PUSH1 0x0 PUSH1 0x20 DUP3 DUP5 SUB SLT ISZERO PUSH2 0xBA3 JUMPI PUSH2 0xBA2 PUSH2 0xB4D JUMP JUMPDEST JUMPDEST PUSH1 0x0 PUSH2 0xBB1 DUP5 DUP3 DUP6 ADD PUSH2 0xB78 JUMP JUMPDEST SWAP2 POP POP SWAP3 SWAP2 POP POP JUMP JUMPDEST PUSH2 0xBC3 DUP2 PUSH2 0xB57 JUMP JUMPDEST DUP3 MSTORE POP POP JUMP JUMPDEST PUSH1 0x0 DUP2 MLOAD SWAP1 POP SWAP2 SWAP1 POP JUMP JUMPDEST PUSH1 0x0 DUP3 DUP3 MSTORE PUSH1 0x20 DUP3 ADD SWAP1 POP SWAP3 SWAP2 POP POP JUMP JUMPDEST PUSH1 0x0 JUMPDEST DUP4 DUP2 LT ISZERO PUSH2 0xC03 JUMPI DUP1 DUP3 ADD MLOAD DUP2 DUP5 ADD MSTORE PUSH1 0x20 DUP2 ADD SWAP1 POP PUSH2 0xBE8 JUMP JUMPDEST PUSH1 0x0 DUP5 DUP5 ADD MSTORE POP POP POP POP JUMP JUMPDEST PUSH1 0x0 PUSH1 0x1F NOT PUSH1 0x1F DUP4 ADD AND SWAP1 POP SWAP2 SWAP1 POP JUMP JUMPDEST PUSH1 0x0 PUSH2 0xC2B DUP3 PUSH2 0xBC9 JUMP JUMPDEST PUSH2 0xC35 DUP2 DUP6 PUSH2 0xBD4 JUMP JUMPDEST SWAP4 POP PUSH2 0xC45 DUP2 DUP6 PUSH1 0x20 DUP7 ADD PUSH2 0xBE5 JUMP JUMPDEST PUSH2 0xC4E DUP2 PUSH2 0xC0F JUMP JUMPDEST DUP5 ADD SWAP2 POP POP SWAP3 SWAP2 POP POP JUMP JUMPDEST PUSH1 0x0 PUSH1 0x80 DUP4 ADD PUSH1 0x0 DUP4 ADD MLOAD PUSH2 0xC71 PUSH1 0x0 DUP7 ADD DUP3 PUSH2 0xBBA JUMP JUMPDEST POP PUSH1 0x20 DUP4 ADD MLOAD DUP5 DUP3 SUB PUSH1 0x20 DUP7 ADD MSTORE PUSH2 0xC89 DUP3 DUP3 PUSH2 0xC20 JUMP JUMPDEST SWAP2 POP POP PUSH1 0x40 DUP4 ADD MLOAD PUSH2 0xC9E PUSH1 0x40 DUP7 ADD DUP3 PUSH2 0xBBA JUMP JUMPDEST POP PUSH1 0x60 DUP4 ADD MLOAD DUP5 DUP3 SUB PUSH1 0x60 DUP7 ADD MSTORE PUSH2 0xCB6 DUP3 DUP3 PUSH2 0xC20 JUMP JUMPDEST SWAP2 POP POP DUP1 SWAP2 POP POP SWAP3 SWAP2 POP POP JUMP JUMPDEST PUSH1 0x0 PUSH1 0x20 DUP3 ADD SWAP1 POP DUP2 DUP2 SUB PUSH1 0x0 DUP4 ADD MSTORE PUSH2 0xCDD DUP2 DUP5 PUSH2 0xC59 JUMP JUMPDEST SWAP1 POP SWAP3 SWAP2 POP POP JUMP JUMPDEST PUSH1 0x0 DUP1 REVERT JUMPDEST PUSH1 0x0 DUP1 REVERT JUMPDEST PUSH32 0x4E487B7100000000000000000000000000000000000000000000000000000000 PUSH1 0x0 MSTORE PUSH1 0x41 PUSH1 0x4 MSTORE PUSH1 0x24 PUSH1 0x0 REVERT JUMPDEST PUSH2 0xD27 DUP3 PUSH2 0xC0F JUMP JUMPDEST DUP2 ADD DUP2 DUP2 LT PUSH8 0xFFFFFFFFFFFFFFFF DUP3 GT OR ISZERO PUSH2 0xD46 JUMPI PUSH2 0xD45 PUSH2 0xCEF JUMP JUMPDEST JUMPDEST DUP1 PUSH1 0x40 MSTORE POP POP POP JUMP JUMPDEST PUSH1 0x0 PUSH2 0xD59 PUSH2 0xB43 JUMP JUMPDEST SWAP1 POP PUSH2 0xD65 DUP3 DUP3 PUSH2 0xD1E JUMP JUMPDEST SWAP2 SWAP1 POP JUMP JUMPDEST PUSH1 0x0 PUSH8 0xFFFFFFFFFFFFFFFF DUP3 GT ISZERO PUSH2 0xD85 JUMPI PUSH2 0xD84 PUSH2 0xCEF JUMP JUMPDEST JUMPDEST PUSH2 0xD8E DUP3 PUSH2 0xC0F JUMP JUMPDEST SWAP1 POP PUSH1 0x20 DUP2 ADD SWAP1 POP SWAP2 SWAP1 POP JUMP JUMPDEST DUP3 DUP2 DUP4 CALLDATACOPY PUSH1 0x0 DUP4 DUP4 ADD MSTORE POP POP POP JUMP JUMPDEST PUSH1 0x0 PUSH2 0xDBD PUSH2 0xDB8 DUP5 PUSH2 0xD6A JUMP JUMPDEST PUSH2 0xD4F JUMP JUMPDEST SWAP1 POP DUP3 DUP2 MSTORE PUSH1 0x20 DUP2 ADD DUP5 DUP5 DUP5 ADD GT ISZERO PUSH2 0xDD9 JUMPI PUSH2 0xDD8 PUSH2 0xCEA JUMP JUMPDEST JUMPDEST PUSH2 0xDE4 DUP5 DUP3 DUP6 PUSH2 0xD9B JUMP JUMPDEST POP SWAP4 SWAP3 POP POP POP JUMP JUMPDEST PUSH1 0x0 DUP3 PUSH1 0x1F DUP4 ADD SLT PUSH2 0xE01 JUMPI PUSH2 0xE00 PUSH2 0xCE5 JUMP JUMPDEST JUMPDEST DUP2 CALLDATALOAD PUSH2 0xE11 DUP5 DUP3 PUSH1 0x20 DUP7 ADD PUSH2 0xDAA JUMP JUMPDEST SWAP2 POP POP SWAP3 SWAP2 POP POP JUMP JUMPDEST PUSH1 0x0 DUP1 PUSH1 0x0 PUSH1 0x60 DUP5 DUP7 SUB SLT ISZERO PUSH2 0xE33 JUMPI PUSH2 0xE32 PUSH2 0xB4D JUMP JUMPDEST JUMPDEST PUSH1 0x0 DUP5 ADD CALLDATALOAD PUSH8 0xFFFFFFFFFFFFFFFF DUP2 GT ISZERO PUSH2 0xE51 JUMPI PUSH2 0xE50 PUSH2 0xB52 JUMP JUMPDEST JUMPDEST PUSH2 0xE5D DUP7 DUP3 DUP8 ADD PUSH2 0xDEC JUMP JUMPDEST SWAP4 POP POP PUSH1 0x20 PUSH2 0xE6E DUP7 DUP3 DUP8 ADD PUSH2 0xB78 JUMP JUMPDEST SWAP3 POP POP PUSH1 0x40 DUP5 ADD CALLDATALOAD PUSH8 0xFFFFFFFFFFFFFFFF DUP2 GT ISZERO PUSH2 0xE8F JUMPI PUSH2 0xE8E PUSH2 0xB52 JUMP JUMPDEST JUMPDEST PUSH2 0xE9B DUP7 DUP3 DUP8 ADD PUSH2 0xDEC JUMP JUMPDEST SWAP2 POP POP SWAP3 POP SWAP3 POP SWAP3 JUMP JUMPDEST PUSH2 0xEAE DUP2 PUSH2 0xB57 JUMP JUMPDEST DUP3 MSTORE POP POP JUMP JUMPDEST PUSH1 0x0 DUP3 DUP3 MSTORE PUSH1 0x20 DUP3 ADD SWAP1 POP SWAP3 SWAP2 POP POP JUMP JUMPDEST PUSH1 0x0 PUSH2 0xED0 DUP3 PUSH2 0xBC9 JUMP JUMPDEST PUSH2 0xEDA DUP2 DUP6 PUSH2 0xEB4 JUMP JUMPDEST SWAP4 POP PUSH2 0xEEA DUP2 DUP6 PUSH1 0x20 DUP7 ADD PUSH2 0xBE5 JUMP JUMPDEST PUSH2 0xEF3 DUP2 PUSH2 0xC0F JUMP JUMPDEST DUP5 ADD SWAP2 POP POP SWAP3 SWAP2 POP POP JUMP JUMPDEST PUSH1 0x0 PUSH1 0x80 DUP3 ADD SWAP1 POP PUSH2 0xF13 PUSH1 0x0 DUP4 ADD DUP8 PUSH2 0xEA5 JUMP JUMPDEST DUP2 DUP2 SUB PUSH1 0x20 DUP4 ADD MSTORE PUSH2 0xF25 DUP2 DUP7 PUSH2 0xEC5 JUMP JUMPDEST SWAP1 POP PUSH2 0xF34 PUSH1 0x40 DUP4 ADD DUP6 PUSH2 0xEA5 JUMP JUMPDEST DUP2 DUP2 SUB PUSH1 0x60 DUP4 ADD MSTORE PUSH2 0xF46 DUP2 DUP5 PUSH2 0xEC5 JUMP JUMPDEST SWAP1 POP SWAP6 SWAP5 POP POP POP POP POP JUMP JUMPDEST PUSH1 0x0 DUP1 PUSH1 0x0 DUP1 PUSH1 0x80 DUP6 DUP8 SUB SLT ISZERO PUSH2 0xF6B JUMPI PUSH2 0xF6A PUSH2 0xB4D JUMP JUMPDEST JUMPDEST PUSH1 0x0 PUSH2 0xF79 DUP8 DUP3 DUP9 ADD PUSH2 0xB78 JUMP JUMPDEST SWAP5 POP POP PUSH1 0x20 DUP6 ADD CALLDATALOAD PUSH8 0xFFFFFFFFFFFFFFFF DUP2 GT ISZERO PUSH2 0xF9A JUMPI PUSH2 0xF99 PUSH2 0xB52 JUMP JUMPDEST JUMPDEST PUSH2 0xFA6 DUP8 DUP3 DUP9 ADD PUSH2 0xDEC JUMP JUMPDEST SWAP4 POP POP PUSH1 0x40 PUSH2 0xFB7 DUP8 DUP3 DUP9 ADD PUSH2 0xB78 JUMP JUMPDEST SWAP3 POP POP PUSH1 0x60 DUP6 ADD CALLDATALOAD PUSH8 0xFFFFFFFFFFFFFFFF DUP2 GT ISZERO PUSH2 0xFD8 JUMPI PUSH2 0xFD7 PUSH2 0xB52 JUMP JUMPDEST JUMPDEST PUSH2 0xFE4 DUP8 DUP3 DUP9 ADD PUSH2 0xDEC JUMP JUMPDEST SWAP2 POP POP SWAP3 SWAP6 SWAP2 SWAP5 POP SWAP3 POP JUMP JUMPDEST PUSH1 0x0 PUSH20 0xFFFFFFFFFFFFFFFFFFFFFFFFFFFFFFFFFFFFFFFF DUP3 AND SWAP1 POP SWAP2 SWAP1 POP JUMP JUMPDEST PUSH1 0x0 PUSH2 0x101B DUP3 PUSH2 0xFF0 JUMP JUMPDEST SWAP1 POP SWAP2 SWAP1 POP JUMP JUMPDEST PUSH2 0x102B DUP2 PUSH2 0x1010 JUMP JUMPDEST DUP3 MSTORE POP POP JUMP JUMPDEST PUSH1 0x0 PUSH1 0x20 DUP3 ADD SWAP1 POP PUSH2 0x1046 PUSH1 0x0 DUP4 ADD DUP5 PUSH2 0x1022 JUMP JUMPDEST SWAP3 SWAP2 POP POP JUMP JUMPDEST PUSH32 0x42756B7520746964616B20646974656D756B616E000000000000000000000000 PUSH1 0x0 DUP3 ADD MSTORE POP JUMP JUMPDEST PUSH1 0x0 PUSH2 0x1082 PUSH1 0x14 DUP4 PUSH2 0xEB4 JUMP JUMPDEST SWAP2 POP PUSH2 0x108D DUP3 PUSH2 0x104C JUMP JUMPDEST PUSH1 0x20 DUP3 ADD SWAP1 POP SWAP2 SWAP1 POP JUMP JUMPDEST PUSH1 0x0 PUSH1 0x20 DUP3 ADD SWAP1 POP DUP2 DUP2 SUB PUSH1 0x0 DUP4 ADD MSTORE PUSH2 0x10B1 DUP2 PUSH2 0x1075 JUMP JUMPDEST SWAP1 POP SWAP2 SWAP1 POP JUMP JUMPDEST PUSH32 0x4E487B7100000000000000000000000000000000000000000000000000000000 PUSH1 0x0 MSTORE PUSH1 0x22 PUSH1 0x4 MSTORE PUSH1 0x24 PUSH1 0x0 REVERT JUMPDEST PUSH1 0x0 PUSH1 0x2 DUP3 DIV SWAP1 POP PUSH1 0x1 DUP3 AND DUP1 PUSH2 0x10FF JUMPI PUSH1 0x7F DUP3 AND SWAP2 POP JUMPDEST PUSH1 0x20 DUP3 LT DUP2 SUB PUSH2 0x1112 JUMPI PUSH2 0x1111 PUSH2 0x10B8 JUMP JUMPDEST JUMPDEST POP SWAP2 SWAP1 POP JUMP JUMPDEST PUSH32 0x48616E79612061646D696E2079616E67206461706174206D656C616B756B616E PUSH1 0x0 DUP3 ADD MSTORE PUSH32 0x2074696E64616B616E20696E6900000000000000000000000000000000000000 PUSH1 0x20 DUP3 ADD MSTORE POP JUMP JUMPDEST PUSH1 0x0 PUSH2 0x1174 PUSH1 0x2D DUP4 PUSH2 0xEB4 JUMP JUMPDEST SWAP2 POP PUSH2 0x117F DUP3 PUSH2 0x1118 JUMP JUMPDEST PUSH1 0x40 DUP3 ADD SWAP1 POP SWAP2 SWAP1 POP JUMP JUMPDEST PUSH1 0x0 PUSH1 0x20 DUP3 ADD SWAP1 POP DUP2 DUP2 SUB PUSH1 0x0 DUP4 ADD MSTORE PUSH2 0x11A3 DUP2 PUSH2 0x1167 JUMP JUMPDEST SWAP1 POP SWAP2 SWAP1 POP JUMP JUMPDEST PUSH1 0x0 DUP2 SWAP1 POP DUP2 PUSH1 0x0 MSTORE PUSH1 0x20 PUSH1 0x0 KECCAK256 SWAP1 POP SWAP2 SWAP1 POP JUMP JUMPDEST PUSH1 0x0 PUSH1 0x20 PUSH1 0x1F DUP4 ADD DIV SWAP1 POP SWAP2 SWAP1 POP JUMP JUMPDEST PUSH1 0x0 DUP3 DUP3 SHL SWAP1 POP SWAP3 SWAP2 POP POP JUMP JUMPDEST PUSH1 0x0 PUSH1 0x8 DUP4 MUL PUSH2 0x120C PUSH32 0xFFFFFFFFFFFFFFFFFFFFFFFFFFFFFFFFFFFFFFFFFFFFFFFFFFFFFFFFFFFFFFFF DUP3 PUSH2 0x11CF JUMP JUMPDEST PUSH2 0x1216 DUP7 DUP4 PUSH2 0x11CF JUMP JUMPDEST SWAP6 POP DUP1 NOT DUP5 AND SWAP4 POP DUP1 DUP7 AND DUP5 OR SWAP3 POP POP POP SWAP4 SWAP3 POP POP POP JUMP JUMPDEST PUSH1 0x0 DUP2 SWAP1 POP SWAP2 SWAP1 POP JUMP JUMPDEST PUSH1 0x0 PUSH2 0x1253 PUSH2 0x124E PUSH2 0x1249 DUP5 PUSH2 0xB57 JUMP JUMPDEST PUSH2 0x122E JUMP JUMPDEST PUSH2 0xB57 JUMP JUMPDEST SWAP1 POP SWAP2 SWAP1 POP JUMP JUMPDEST PUSH1 0x0 DUP2 SWAP1 POP SWAP2 SWAP1 POP JUMP JUMPDEST PUSH2 0x126D DUP4 PUSH2 0x1238 JUMP JUMPDEST PUSH2 0x1281 PUSH2 0x1279 DUP3 PUSH2 0x125A JUMP JUMPDEST DUP5 DUP5 SLOAD PUSH2 0x11DC JUMP JUMPDEST DUP3 SSTORE POP POP POP POP JUMP JUMPDEST PUSH1 0x0 SWAP1 JUMP JUMPDEST PUSH2 0x1296 PUSH2 0x1289 JUMP JUMPDEST PUSH2 0x12A1 DUP2 DUP5 DUP5 PUSH2 0x1264 JUMP JUMPDEST POP POP POP JUMP JUMPDEST JUMPDEST DUP2 DUP2 LT ISZERO PUSH2 0x12C5 JUMPI PUSH2 0x12BA PUSH1 0x0 DUP3 PUSH2 0x128E JUMP JUMPDEST PUSH1 0x1 DUP2 ADD SWAP1 POP PUSH2 0x12A7 JUMP JUMPDEST POP POP JUMP JUMPDEST PUSH1 0x1F DUP3 GT ISZERO PUSH2 0x130A JUMPI PUSH2 0x12DB DUP2 PUSH2 0x11AA JUMP JUMPDEST PUSH2 0x12E4 DUP5 PUSH2 0x11BF JUMP JUMPDEST DUP2 ADD PUSH1 0x20 DUP6 LT ISZERO PUSH2 0x12F3 JUMPI DUP2 SWAP1 POP JUMPDEST PUSH2 0x1307 PUSH2 0x12FF DUP6 PUSH2 0x11BF JUMP JUMPDEST DUP4 ADD DUP3 PUSH2 0x12A6 JUMP JUMPDEST POP POP JUMPDEST POP POP POP JUMP JUMPDEST PUSH1 0x0 DUP3 DUP3 SHR SWAP1 POP SWAP3 SWAP2 POP POP JUMP JUMPDEST PUSH1 0x0 PUSH2 0x132D PUSH1 0x0 NOT DUP5 PUSH1 0x8 MUL PUSH2 0x130F JUMP JUMPDEST NOT DUP1 DUP4 AND SWAP2 POP POP SWAP3 SWAP2 POP POP JUMP JUMPDEST PUSH1 0x0 PUSH2 0x1346 DUP4 DUP4 PUSH2 0x131C JUMP JUMPDEST SWAP2 POP DUP3 PUSH1 0x2 MUL DUP3 OR SWAP1 POP SWAP3 SWAP2 POP POP JUMP JUMPDEST PUSH2 0x135F DUP3 PUSH2 0xBC9 JUMP JUMPDEST PUSH8 0xFFFFFFFFFFFFFFFF DUP2 GT ISZERO PUSH2 0x1378 JUMPI PUSH2 0x1377 PUSH2 0xCEF JUMP JUMPDEST JUMPDEST PUSH2 0x1382 DUP3 SLOAD PUSH2 0x10E7 JUMP JUMPDEST PUSH2 0x138D DUP3 DUP3 DUP6 PUSH2 0x12C9 JUMP JUMPDEST PUSH1 0x0 PUSH1 0x20 SWAP1 POP PUSH1 0x1F DUP4 GT PUSH1 0x1 DUP2 EQ PUSH2 0x13C0 JUMPI PUSH1 0x0 DUP5 ISZERO PUSH2 0x13AE JUMPI DUP3 DUP8 ADD MLOAD SWAP1 POP JUMPDEST PUSH2 0x13B8 DUP6 DUP3 PUSH2 0x133A JUMP JUMPDEST DUP7 SSTORE POP PUSH2 0x1420 JUMP JUMPDEST PUSH1 0x1F NOT DUP5 AND PUSH2 0x13CE DUP7 PUSH2 0x11AA JUMP JUMPDEST PUSH1 0x0 JUMPDEST DUP3 DUP2 LT ISZERO PUSH2 0x13F6 JUMPI DUP5 DUP10 ADD MLOAD DUP3 SSTORE PUSH1 0x1 DUP3 ADD SWAP2 POP PUSH1 0x20 DUP6 ADD SWAP5 POP PUSH1 0x20 DUP2 ADD SWAP1 POP PUSH2 0x13D1 JUMP JUMPDEST DUP7 DUP4 LT ISZERO PUSH2 0x1413 JUMPI DUP5 DUP10 ADD MLOAD PUSH2 0x140F PUSH1 0x1F DUP10 AND DUP3 PUSH2 0x131C JUMP JUMPDEST DUP4 SSTORE POP JUMPDEST PUSH1 0x1 PUSH1 0x2 DUP9 MUL ADD DUP9 SSTORE POP POP POP JUMPDEST POP POP POP POP POP POP JUMP JUMPDEST PUSH1 0x0 DUP2 SWAP1 POP SWAP2 SWAP1 POP JUMP JUMPDEST PUSH2 0x1443 PUSH2 0x143E DUP3 PUSH2 0xB57 JUMP JUMPDEST PUSH2 0x1428 JUMP JUMPDEST DUP3 MSTORE POP POP JUMP JUMPDEST PUSH1 0x0 DUP2 PUSH1 0x60 SHL SWAP1 POP SWAP2 SWAP1 POP JUMP JUMPDEST PUSH1 0x0 PUSH2 0x1461 DUP3 PUSH2 0x1449 JUMP JUMPDEST SWAP1 POP SWAP2 SWAP1 POP JUMP JUMPDEST PUSH1 0x0 PUSH2 0x1473 DUP3 PUSH2 0x1456 JUMP JUMPDEST SWAP1 POP SWAP2 SWAP1 POP JUMP JUMPDEST PUSH2 0x148B PUSH2 0x1486 DUP3 PUSH2 0x1010 JUMP JUMPDEST PUSH2 0x1468 JUMP JUMPDEST DUP3 MSTORE POP POP JUMP JUMPDEST PUSH1 0x0 PUSH2 0x149D DUP3 DUP7 PUSH2 0x1432 JUMP JUMPDEST PUSH1 0x20 DUP3 ADD SWAP2 POP PUSH2 0x14AD DUP3 DUP6 PUSH2 0x147A JUMP JUMPDEST PUSH1 0x14 DUP3 ADD SWAP2 POP PUSH2 0x14BD DUP3 DUP5 PUSH2 0x1432 JUMP JUMPDEST PUSH1 0x20 DUP3 ADD SWAP2 POP DUP2 SWAP1 POP SWAP5 SWAP4 POP POP POP POP JUMP JUMPDEST PUSH32 0x4E487B7100000000000000000000000000000000000000000000000000000000 PUSH1 0x0 MSTORE PUSH1 0x11 PUSH1 0x4 MSTORE PUSH1 0x24 PUSH1 0x0 REVERT JUMPDEST PUSH1 0x0 PUSH2 0x1508 DUP3 PUSH2 0xB57 JUMP JUMPDEST SWAP2 POP PUSH32 0xFFFFFFFFFFFFFFFFFFFFFFFFFFFFFFFFFFFFFFFFFFFFFFFFFFFFFFFFFFFFFFFF DUP3 SUB PUSH2 0x153A JUMPI PUSH2 0x1539 PUSH2 0x14CE JUMP JUMPDEST JUMPDEST PUSH1 0x1 DUP3 ADD SWAP1 POP SWAP2 SWAP1 POP JUMP INVALID LOG2 PUSH5 0x6970667358 0x22 SLT KECCAK256 0xB4 0xC3 0xAE EXTCODESIZE DUP15 SMOD 0x2A EXP EXTCODESIZE 0xD4 SWAP8 EXTCODEHASH SDIV DUP9 PUSH15 0xEC4C7985A37019F13538F9E516F772 0xE 0xAB PUSH5 0x736F6C6343 STOP ADDMOD SLT STOP CALLER "
				},
				"gasEstimates": {
					"creation": {
						"codeDepositCost": "1099800",
						"executionCost": "30412",
						"totalCost": "1130212"
					},
					"external": {
						"admin()": "2602",
						"books(uint256)": "infinite",
						"dapatkanBukuDariISBN(uint256)": "infinite",
						"hapusBuku(uint256)": "infinite",
						"tambahBuku(string,uint256,string)": "infinite",
						"updateBuku(uint256,string,uint256,string)": "infinite"
					},
					"internal": {
						"generateAcakISBN()": "infinite"
					}
				},
				"methodIdentifiers": {
					"admin()": "f851a440",
					"books(uint256)": "68744046",
					"dapatkanBukuDariISBN(uint256)": "02a97d7f",
					"hapusBuku(uint256)": "2e28a7ca",
					"tambahBuku(string,uint256,string)": "48833856",
					"updateBuku(uint256,string,uint256,string)": "ebe47460"
				}
			},
			"storageLayout": {
				"storage": [
					{
						"astId": 15,
						"contract": "contracts/Perpustakaan.sol:Perpustakaan",
						"label": "books",
						"offset": 0,
						"slot": "0",
						"type": "t_mapping(t_uint256,t_struct(Buku)10_storage)"
					},
					{
						"astId": 17,
						"contract": "contracts/Perpustakaan.sol:Perpustakaan",
						"label": "admin",
						"offset": 0,
						"slot": "1",
						"type": "t_address"
					},
					{
						"astId": 20,
						"contract": "contracts/Perpustakaan.sol:Perpustakaan",
						"label": "nonce",
						"offset": 0,
						"slot": "2",
						"type": "t_uint256"
					}
				],
				"types": {
					"t_address": {
						"encoding": "inplace",
						"label": "address",
						"numberOfBytes": "20"
					},
					"t_mapping(t_uint256,t_struct(Buku)10_storage)": {
						"encoding": "mapping",
						"key": "t_uint256",
						"label": "mapping(uint256 => struct Perpustakaan.Buku)",
						"numberOfBytes": "32",
						"value": "t_struct(Buku)10_storage"
					},
					"t_string_storage": {
						"encoding": "bytes",
						"label": "string",
						"numberOfBytes": "32"
					},
					"t_struct(Buku)10_storage": {
						"encoding": "inplace",
						"label": "struct Perpustakaan.Buku",
						"members": [
							{
								"astId": 3,
								"contract": "contracts/Perpustakaan.sol:Perpustakaan",
								"label": "ISBN",
								"offset": 0,
								"slot": "0",
								"type": "t_uint256"
							},
							{
								"astId": 5,
								"contract": "contracts/Perpustakaan.sol:Perpustakaan",
								"label": "judul",
								"offset": 0,
								"slot": "1",
								"type": "t_string_storage"
							},
							{
								"astId": 7,
								"contract": "contracts/Perpustakaan.sol:Perpustakaan",
								"label": "tahun",
								"offset": 0,
								"slot": "2",
								"type": "t_uint256"
							},
							{
								"astId": 9,
								"contract": "contracts/Perpustakaan.sol:Perpustakaan",
								"label": "pengarang",
								"offset": 0,
								"slot": "3",
								"type": "t_string_storage"
							}
						],
						"numberOfBytes": "128"
					},
					"t_uint256": {
						"encoding": "inplace",
						"label": "uint256",
						"numberOfBytes": "32"
					}
				}
			},
			"userdoc": {
				"kind": "user",
				"methods": {},
				"version": 1
			}
		}
	}
}